:020000040800F2
:1000000000000220410600084505000847050008D9
:10001000490500084B0500084D05000800000000D8
:100020000000000000000000000000004F05000874
:1000300051050008000000005305000855050008A0
:100040009106000891060008910600089106000834
:100050009106000891060008910600089106000824
:100060009106000891060008910600089106000814
:100070009106000891060008910600089106000804
:1000800091060008910600089106000891060008F4
:1000900091060008910600089106000891060008E4
:1000A00091060008910600089106000891060008D4
:1000B00091060008910600089106000891060008C4
:1000C00091060008910600089106000891060008B4
:1000D00091060008910600085D05000891060008D9
:1000E0009106000891060008910600089106000894
:1000F0009106000891060008910600089106000884
:10010000910600086D050008910600089106000898
:100110009106000891060008910600089106000863
:100120009106000891060008910600089106000853
:100130009106000891060008910600089106000843
:100140009106000891060008910600087D05000848
:100150009106000891060008910600089106000823
:100160009106000891060008910600089106000813
:1001700091060008910600089106000800000000A2
:08018000910600089106000839
:1001880053B94AB9002908BF00281CBF4FF0FF31F6
:100198004FF0FF3000F00CB8ADF1080C6DE904CE5B
:1001A80006F0D0FFDDF804E0DDE9022304B0704773
:1001B800704700BF0348044B834202D0034B03B18E
:1001C800184770473001002030010020000000006F
:1001D8000548064B1B1AD90F01EBA301491002D0A1
:1001E800034B03B11847704730010020300100204D
:1001F8000000000010B5064C237843B9FFF7DAFF7A
:10020800044B13B10448AFF300800123237010BDE1
:100218003001002000000000CC75000808B5054B2F
:100228001BB105490548AFF30080BDE80840FFF75A
:10023800CFBF00BF0000000034010020CC750008CB
:1002480084B000220092154B196B41F080011963AC
:10025800196B01F08001009100990192196B41F02E
:1002680001011963196B01F00101019101990292D1
:10027800196B41F004011963196B01F00401029133
:10028800029903921A6B42F008021A631B6B03F07F
:1002980008030393039B04B0704700BF0038024073
:1002A80072B6FEE700B595B03022002108A807F025
:1002B800A7F80023039304930593069307930193E8
:1002C800204A116C41F080511164126C02F0805286
:1002D8000192019A02931C4B1A6842F480421A60F8
:1002E8001B6803F480430293029B012308934FF495
:1002F8008033099302230E934FF480020F92042255
:100308001092A822119212930723139308A801F0C0
:1003180033FA98B90F230393022304930023059318
:100328004FF4A05306934FF480530793052103A875
:1003380001F08CFC20B915B05DF804FBFFF7B0FFA5
:10034800FFF7AEFF003802400070004000B5ADF284
:100358007C6D00F0C1F9FFF7A5FFFFF771FF00F012
:1003680013F906F099FC00F063F804F099F84FF4DB
:100378007A7000F0DDF94FF40072002106A807F04A
:100388003FF8002005F0F0F90123002206A91046E5
:1003980005F000FA012221490DF5896006F0B0F94F
:1003A80070B916211E4806F0C9FC08221D4986A806
:1003B80006F0D4F948B116211B4806F0BFFCFEE749
:1003C8001621194806F0BAFCFEE71621144806F073
:1003D800B5FC0DF1080C154B0FCB8CE80F0001ABE9
:1003E8001022614686A806F0C7FA20B116210E48E9
:1003F80006F0A4FC03E01621094806F09FFC86A835
:1004080006F004FC20B91621054806F097FCFEE723
:100418001621054806F092FCFEE700BFEC750008BF
:1004280018000020E475000800000020F07500089E
:10043800064B074A1A6000225A609A60DA604FF445
:10044800006119615A6104229A6170474C010020C9
:10045800002C0140F0B589B0002303930493059361
:10046800069307930268244B9A4201D009B0F0BD65
:100478000024009403F586335A6C42F400625A64EF
:100488005A6C02F400620092009A01941A6B42F0CE
:1004980004021A631A6B02F004020192019A029490
:1004A8001A6B42F008021A631B6B03F008030293ED
:1004B800029B4FF4F85303930227049703260696EA
:1004C8000C2507950DEB05010C4800F01FFA0423D5
:1004D800039304970594069607950DEB05010848C4
:1004E80000F014FA22460121312000F089F9312068
:1004F80000F096F9BAE700BF002C0140000802405E
:10050800000C024082B0002100910B4B5A6C42F45F
:1005180080425A645A6C02F480420092009A019117
:100528001A6C42F080521A641B6C03F080530193DA
:10053800019B02B0704700BF00380240FEE7FEE7AB
:10054800FEE7FEE7FEE770477047704708B500F022
:10055800DDF808BD08B5024802F02CFD08BD00BF53
:10056800D001002008B5024802F092FA08BD00BF89
:100578004C01002008B5024800F0F3FD08BD00BF9B
:10058800541900207047000008B50A480A4B036058
:100598004FF41653436000238360C36003610C2249
:1005A80042618361C36102F049FC00B908BDFFF7ED
:1005B80077FEFBE7D00100200044004010B588B06A
:1005C8000023039304930593069307930268184B3B
:1005D8009A4201D008B010BD0024019403F5FA3303
:1005E8001A6C42F400321A641A6C02F40032019256
:1005F800019A02941A6B42F001021A631B6B03F012
:1006080001030293029B0C23039302230493032305
:1006180006930723079303A9064800F077F92246B3
:100628002146262000F0ECF8262000F0F9F8D1E762
:100638000044004000000240DFF834D0FFF7A2FF7A
:100648000C480D490D4A002302E0D458C450043325
:10065800C4188C42F9D30A4A0A4C002301E01360FB
:100668000432A242FBD306F01DFFFFF76FFE70476E
:1006780000000220000000203001002098760008C9
:1006880030010020D01F0020FEE7000010B504460E
:100698000E4B1A784FF47A73B3FBF2F30C4A1068D6
:1006A800B0FBF3F000F0C0F868B90F2C01D90120B5
:1006B8000AE0002221464FF0FF3000F0A1F8054B78
:1006C8001C60002000E0012010BD00BF34000020A5
:1006D800300000203800002008B50B4B1A6842F49F
:1006E80000721A601A6842F480621A601A6842F44A
:1006F80080721A60032000F071F80F20FFF7C6FF20
:10070800FFF700FF002008BD003C0240034A1168C3
:10071800034B1B780B441360704700BF180200207E
:1007280034000020014B1868704700BF18020020F1
:1007380038B50446FFF7F6FF0546B4F1FF3F02D08F
:10074800044B1B781C44FFF7EDFF401BA042FAD373
:1007580038BD00BF34000020002807DB00F01F026E
:10076800400901239340024A42F82030704700BFF5
:1007780000E100E0002808DB0901C9B200F160408F
:1007880000F5614080F80013704700F00F00090180
:10079800C9B2014B1954704714ED00E000B500F0E0
:1007A8000700C0F1070CBCF1040F28BF4FF0040C80
:1007B800031D062B0FD9C31E4FF0FF3E0EFA0CF097
:1007C80021EA000199400EFA03FE22EA0E0241EAEC
:1007D80002005DF804FB0023EEE70000074AD36837
:1007E80023F4E0631B041B0C000200F4E0600343E5
:1007F80043F0BF6343F40033D360704700ED00E07B
:1008080010B50446054BD868C0F30220FFF7C6FFB1
:1008180001462046FFF7AEFF10BD00BF00ED00E027
:1008280008B5FFF799FF08BD0138B0F1807F0BD2FA
:100838004FF0E0235861054AF02182F82310002088
:10084800986107221A6170470120704700ED00E0A7
:1008580070B50446866DFFF765FF94F83530DBB256
:10086800022B06D080236365002384F834300120EE
:1008780070BD05462268136823F0160313602268CA
:10088800536923F080035361236CE3B12268136832
:1008980023F0080313602268136823F00103136030
:1008A80023681B6813F0010F11D0FFF73BFF431BB0
:1008B800052BF5D920236365032084F83500002330
:1008C80084F83430D4E7A36C002BDFD1E3E7E26D82
:1008D8003F239340B360012384F83530002084F827
:1008E8003400C5E790F83530DBB2022B03D0802303
:1008F800436501207047052380F835300268136886
:1009080023F00103136000207047000000230F2B21
:1009180000F2EC8030B583B068E085684FEA430E9A
:10092800032404FA0EF425EA0405CC6804FA0EF44C
:100938002C438460446824EA02044A68C2F3001223
:100948009A40224342605FE0DC08083450F82420D3
:1009580003F00705AD004FF00F0E0EFA05FE22EA70
:100968000E0E0A69AA4042EA0E0240F824205FE00F
:10097800072200E0002202FA0EF22A4302345C4DFC
:1009880045F824205B4A94686FEA0C0224EA0C05B7
:10099800D1F804E01EF4801F01D04CEA0405554C40
:1009A800A560E46802EA0405D1F804E01EF4001F1B
:1009B80001D04CEA04054F4CE560646802EA04057E
:1009C800D1F804E01EF4003F01D04CEA0405494C7C
:1009D8006560246822404D6815F4803F01D04CEAD8
:1009E8000402444C226001330F2B7DD801229A4027
:1009F8000C6804EA020C32EA0404F4D14C6804F0EE
:100A08000304013C012C88D94A6802F00302032A36
:100A180009D0C4685D000322AA4024EA02048A6857
:100A2800AA402243C2604A6802F00302022A8BD01D
:100A380004684FEA430E032202FA0EF224EA020483
:100A48004A6802F0030202FA0EF2224302604A6880
:100A580012F4403FC7D000220192274A546C44F454
:100A680080445464526C02F480420192019A9C08BA
:100A7800A51C1F4A52F8255003F0030E4FEA8E0EAC
:100A88000F2202FA0EF225EA02051C4A90423FF4B0
:100A980071AF02F5806290421AD002F580629042EE
:100AA80018D002F58062904216D002F5806290421A
:100AB80014D002F58062904212D002F58062904212
:100AC80010D002F5806290423FF452AF082252E7FC
:100AD800012250E702224EE703224CE704224AE7AC
:100AE800052248E7062246E703B030BD704700BF3D
:100AF80000380140003C014000380240000002403C
:100B08002DE9F04383B0D0F8008001EBC10300EB7E
:100B180083039A6A5B6A9A4254D807460C469B1A22
:100B280001EBC10200EB8202D2699A4200D31A4655
:100B380002F103094FEA990915E006F103094FEAA2
:100B48009909BB7904EBC40507EB8505296A00936D
:100B5800B3B2E2B2404603F01FFA2B6A33442B6269
:100B6800AB6A3344AB6208EB441303F510639B692B
:100B78009BB24B4512D304EBC40307EB83039A6A79
:100B88005B6A9A420AD24BB19B1A04EBC40207EB88
:100B98008202D6699E42D0D31E46CEE704EBC40338
:100BA80007EB83077A6ABB6A9A420FD804F00F04EE
:100BB8000122A240D8F8343823EA0203C8F83438AE
:100BC800002000E0012003B0BDE8F0830020FAE730
:100BD80030B583B000287AD00446056890F895347B
:100BE800C3B1032384F89534B5F1A04F17D020681A
:100BF80002F086FF237C8DF80030231D0ECB206881
:100C080002F0BCFE70B1022384F895340125284611
:100C180003B030BD80F8943406F040F9E1E70023D2
:100C2800A371E4E70021206803F0CDFB024608B970
:100C3800034617E0022384F895340125E7E703EB20
:100C4800C30104EB8101012048750B75CB85002099
:100C58000876C861086203EBC30104EB81014862AE
:100C68000133DBB220799842E9D816E002EBC203DF
:100C780004EB8303002183F8551283F8542283F888
:100C88005812C3F85C12C3F8601202EBC20304EBFB
:100C98008303C3F864120132D2B29042E6D8237CAF
:100CA8008DF80030231D0ECB206802F07FFF05462B
:100CB80020B1022384F895340125A8E70023637442
:100CC800012384F89534206803F03CFB9FE7012555
:100CD8009DE7036890F89424012A1AD010B50446B9
:100CE800012280F89424DA6812F0400F02D0427B87
:100CF800012A09D0206802F0FDFE206803F014FBE9
:100D0800002084F8940410BD9A6B42F480329A63F0
:100D1800F0E702207047000070B504460D460068F1
:100D2800066C00EB411303F530639A68A179012939
:100D380011D038498E4256D03DB905EBC50304EBB6
:100D48008303D3F86432002B5ED0E9B2204606F064
:100D5800EFF8002070BD12F0080F09D02E498E421E
:100D6800F7D912F4004FF4D04FF400429A60F0E73C
:100D780012F0200F02D020229A60EAE712F0280F22
:100D8800E7D125498E4206D912F4004F03D04FF41B
:100D980000429A60DDE705EBC50204EB8202D2F857
:100DA80074121B69C3F31203CB1AC2F868327DB9F7
:100DB80005EBC50204EB8202D2F864226AB105EBA6
:100DC800C50204EB8202D2F860121944C2F860121C
:100DD800E9B2204606F0ACF8BBE704F29C420121D8
:100DE80003F030FBF4E712F4004F03D04FF4004255
:100DF8009A60AEE712F0200F01D020229A60E9B283
:100E0800204606F095F8A4E704F29C42002103F07E
:100E180019FB9AE70A31544F0A30544F38B5044643
:100E280003681D6C03EB4113D3F8081B0E4A954267
:100E380007D903F5306311F4004F02D04FF4004294
:100E48009A60204606F06CF8074B9D4202D9A379B8
:100E5800012B01D0002038BD04F29C4201212068FA
:100E680003F0F0FAF6E700BF0A30544F90F89434D4
:100E7800012B0CD010B50446012380F8943441743A
:100E8800006803F041FA002084F8940410BD0220A1
:100E9800704738B505468C4611F0800F2BD101F00C
:100EA8000F0E0EEBCE04A40004F514740444211DA7
:100EB8000EEBCE0E00EB8E0E00208EF855020CF0D5
:100EC8000F0C81F800C0C2F30A028A600B714A78DD
:100ED8000AB1A1F81AC0022B1CD095F89434012B42
:100EE8001BD0012385F89434286802F03AFF0020CB
:100EF80085F8940438BD01F00F0000EBC0018900AB
:100F080010312944043100EBC00005EB80000124B6
:100F18004475D4E700234B71DFE70220EAE710B5F8
:100F280004460A4611F0800F20D101F00F0000EBB3
:100F3800C0039B0003F514732344191D00EBC00084
:100F480004EB8000002380F8553202F00F020A708B
:100F580094F89434012B18D0012384F89434206831
:100F680002F04CFF002084F8940410BD01F00F003B
:100F780000EBC0039B0010332344191D00EBC00095
:100F880004EB800001234375DFE70220EDE710B58D
:100F9800144601F00F0C0CEBCC01890001F514711B
:100FA800014404310CEBCC0E00EB8E0ECEF860221F
:100FB800CEF864320023CEF868328EF855328EF8B7
:100FC80054C28279012A04D0006802F0FDFF002093
:100FD80010BDCEF87042F7E701F00F0101EBC10137
:100FE80000EB8100D0F86802704710B5144601F094
:100FF8000F0C0CEBCC0189001031014404310CEBCF
:10100800CC0E00EB8E0ECEF82020CEF82430002334
:10101800CEF8283001238EF815308EF814C0827966
:101028009A4204D0006802F0CFFF002010BDCEF82D
:101038003040F7E738B501F00F050279AA4238D3F6
:1010480004460B4611F0800F1FD101EBC101890046
:1010580001F514710144043103EBC30300EB83036E
:10106800002283F8552201238B700D7094F8943474
:10107800012B20D0012384F89434206803F0E9F888
:1010880085B1002084F8940438BD05EBC5018900BA
:1010980010310144043105EBC50300EB8303012241
:1010A8005A75E0E704F29C42A179206803F0CAF976
:1010B800E7E70120E8E70220E6E701F00F030279FD
:1010C8009A4230D310B5044611F0800F1ED103EBBD
:1010D800C301890001F514710144043103EBC30213
:1010E80000EB8202002082F8550200228A700B7001
:1010F80094F89434012B18D0012384F89434206890
:1011080003F0D4F8002084F8940410BD03EBC30165
:10111800890010310144043103EBC30200EB820261
:1011280001205075E1E7012070470220EDE708B57E
:1011380011F0800F0CD101F00F0101EBC101890002
:1011480001F5147101440431006802F0C7FE08BDBE
:1011580001F00F0101EBC101890010310144043194
:10116800F2E72DE9F04F83B004460568284603F0FE
:1011780026F910B103B0BDE8F08F0646206803F0E9
:10118800EFF80028F6D005F50067BB68C3F30D2318
:10119800C4F8D434206803F0E3F810F0020F04D048
:1011A8002268536903F002035361206803F0D8F8FA
:1011B80010F0100F15D02268936923F01003936183
:1011C800D5F8208008F00F0908F4F013B3F5802F44
:1011D8004CD0B3F5402F6FD02268936943F01003C9
:1011E8009361206803F0BCF810F4002F76D12068D2
:1011F80003F0B6F810F4802F40F0E080206803F088
:10120800AFF80028C0F26181206803F0A9F810F453
:10121800006F09D0BB6813F0010F40F06E8122689F
:10122800536903F400635361206803F099F810F4DC
:10123800805F40F06681206803F092F810F4005F48
:1012480040F0B381206803F08BF810F0080F40F0ED
:10125800C481206803F084F810F0800F00F0D78173
:10126800AB6923F08003AB610126C0E147F6F07358
:1012780018EA030FB0D04FEA181A4FEAC9030193CE
:1012880009EBC90B04EB8B0BC8F30A12DBF86012ED
:10129800284602F0BBFFDBF86032CAF30A0A53445F
:1012A800CBF86032DBF86832019A4A4404EB8202D8
:1012B8005344C2F868328FE7082204F29C4128465A
:1012C80002F0A4FF09EBC90304EB8303D3F86822F7
:1012D800C8F30A184244C3F868227DE7206803F07F
:1012E80043F88046B14635E005EB49130122C3F8BF
:1012F800082B49462046FFF70FFD3CE005EB491354
:101308000822C3F8082B49462046FFF787FD35E039
:1013180009EBC90304EB830393F85732012B41D03F
:1013280005EB49130222C3F8082B1AF0200F04D04A
:1013380005EB49132022C3F8082B1AF4005F05D0E7
:1013480005EB49134FF40052C3F8082B09F10109C2
:101358004FEA5808B8F1000F3FF449AF18F0010FF1
:10136800F4D05FFA89FB5946206803F00DF88246ED
:1013780010F0010FB8D11AF0080FBFD11AF0100FF2
:1013880004D005EB49131022C3F8082B1AF0020FFA
:10139800CBD06B6913F0800FBAD07B6843F48063BD
:1013A8007B60B5E709EBC90304EB8303002283F8EC
:1013B80057225946204605F00BFEB1E7206802F097
:1013C800DBFF8046B14625E05946204605F0BCFDC6
:1013D8001AF0080F04D005EB49130822C3F80829AE
:1013E8001AF0100F04D005EB49131022C3F808298E
:1013F8001AF0400F04D005EB49134022C3F808291E
:101408001AF0020F40D11AF0800F59D109F10109E1
:101418004FEA5808B8F1000F3FF4F0AE18F0010F8A
:10142800F4D05FFA89FB5946206802F0B6FF82467D
:1014380010F0010FCCD009F00F02012101FA02F2DD
:101448007B6B23EA02037B6305EB4913C3F8081996
:10145800A3798B42B8D109EBC90304EB83031A6A59
:10146800D9690A441A62B9F1000FADD109EBC90371
:1014780004EB83035B6A002BA6D104F29C42012192
:10148800206802F0DFFF9FE74946284602F03EFB4E
:1014980009EBC90304EB8303DB7D012B05D005EBC6
:1014A80049130222C3F80829ADE709EBC90304EB85
:1014B80083030022DA755946204605F08FFDEEE7D2
:1014C80049462046FFF71CFBA0E77B6823F0010391
:1014D8007B6094F8CC34012B08D0204605F072FDCF
:1014E8002268536903F0004353618DE6002184F8B4
:1014F800CC14204600F03EF9F2E7204605F04AFDFC
:101508008DE67B6823F001037B601021206802F0E0
:10151800FDFA1AE005EB46134FF67F31C3F80819B8
:10152800D3F8002922F40012C3F80029C3F8081BD5
:10153800D3F8002B22F40012C3F8002BD3F8002BA9
:1015480042F00062C3F8002B01362379B342E1D898
:10155800FB6943F00113FB61E37BDBB1D7F884300F
:1015680043F00B03C7F884307B6C43F00B037B64B8
:10157800D5F8003823F4FE63C5F8003804F29C421D
:10158800A179206802F05EFF2268536903F4805352
:10159800536150E67B6943F4005343F02B037B61AE
:1015A8003B6943F00B033B61E2E7206802F03CFF34
:1015B800206802F0C5FBE071266800F0F7FB0146E1
:1015C800E279304602F024FA204605F0CEFC226883
:1015D800536903F40053536134E6204605F0BFFC19
:1015E8002268536903F00803536132E60136237910
:1015F800B3420CD906EBC60304EB830393F85732C6
:10160800012BF3D1F1B22046FFF791FDEEE72068F8
:1016180002F0A6FE10F4801F25D1206802F0A0FE7B
:1016280010F4001F59D0012326E001362379B34274
:101638001BD905EB4613D3F8002906EBC60304EBC8
:1016480083031B7E012BF0D1002AEEDA06EBC603DA
:1016580004EB83030122DA7566F07F01C9B22046E4
:10166800FFF765FDE1E70126E0E72268536903F427
:1016780080135361D1E7013322799A4228D905EBC7
:101688004312D2F8001B03EBC30204EB820292F868
:101698005822012AEFD10029EDDA01F48031D4F87B
:1016A800D42402F001029142E5D103EBC30204EB1A
:1016B8008202012182F85712AA6942F08002AA61C7
:1016C8006A6912F0800FD6D17B6843F400737B609F
:1016D8002268536903F400135361206802F040FE46
:1016E80010F0804F10D1206802F03AFE10F0040F7D
:1016F8003FF440AD23685D6815F0040F0DD12268F2
:1017080053682B43536035E5204605F06DFC22688D
:10171800536903F080435361E5E7204605F06AFC0E
:10172800EDE710B40468606A29B940EA0240A06293
:10173800002010BC70478C46A36A00EB13400023BE
:1017480008E003F1400104EB8101496800EB114016
:101758000133DBB20CF1FF318B42F2D340EA024095
:101768000CF13F0104EB81046060E1E70368596212
:101778000020704770470000002800F0E08170B535
:1017880082B00446036813F0010F3BD09F4B9B685F
:1017980003F00C03042B2CD09C4B9B6803F00C0328
:1017A800082B21D06368B3F5803F4FD0B3F5A02F45
:1017B80052D0964B1A6822F480321A601A6822F4C2
:1017C80080221A606368002B50D0FEF7ABFF0546F5
:1017D8008E4B1B6813F4003F14D1FEF7A3FF401B88
:1017E8006428F5D90320B1E1884B5B6813F4800FB6
:1017F800D8D0864B1B6813F4003F03D06368002BD6
:1018080000F09F81236813F0020F54D07F4B9B6830
:1018180013F00C0F3ED07D4B9B6803F00C03082B94
:1018280033D0E368002B68D0794B01221A60FEF7A9
:1018380079FF0546754B1B6813F0020F54D1FEF76C
:1018480071FF401B0228F5D903207FE16F4A136816
:1018580043F480331360B5E76C4B1A6842F4802276
:101868001A601A6842F480321A60ABE7FEF75AFF32
:101878000546664B1B6813F4003FC3D0FEF752FFC2
:10188800401B6428F5D9032060E1604B5B6813F4C2
:10189800800FC6D15D4B1B6813F0020F03D0E368BD
:1018A800012B40F05081594A136823F0F80321694D
:1018B80043EAC1031360236813F0080F42D0636939
:1018C8006BB3534B0122C3F8802EFEF72BFF05465E
:1018D8004E4B5B6F13F0020F34D1FEF723FF401B12
:1018E8000228F5D9032031E1484A136823F0F803A8
:1018F800216943EAC1031360DDE7454B00221A6002
:10190800FEF710FF0546414B1B6813F0020FD2D0BB
:10191800FEF708FF401B0228F5D9032016E13C4BCF
:101928000022C3F8802EFEF7FDFE0546374B5B6F9D
:1019380013F0020F06D0FEF7F5FE401B0228F5D97A
:10194800032003E1236813F0040F77D02F4B1B6C9F
:1019580013F0805F33D1002301932C4B1A6C42F0B3
:1019680080521A641B6C03F080530193019B01257C
:10197800284B1B6813F4807F23D0A368012B34D035
:10198800052B38D0214B1A6F22F001021A671A6F03
:1019980022F004021A67A368002B3DD0FEF7C2FEAE
:1019A80006461A4B1B6F13F0020F46D1FEF7BAFE1C
:1019B800801B41F288339842F3D90320C6E0002502
:1019C800D6E7144A136843F480731360FEF7AAFE3F
:1019D8000646104B1B6813F4807FCED1FEF7A2FE9B
:1019E800801B0228F5D90320B0E0084A136F43F0A2
:1019F80001031367CFE7054B1A6F42F004021A6719
:101A08001A6F42F001021A67C5E700BF00380240AA
:101A18000000474200700040FEF784FE0646524B25
:101A28001B6F13F0020F08D0FEF77CFE801B41F2FB
:101A380088339842F3D9032088E0EDB9A369002BD5
:101A480000F08380484A926802F00C02082A51D0BC
:101A5800022B17D0454B00221A66FEF763FE044698
:101A6800414B1B6813F0007F42D0FEF75BFE001B62
:101A78000228F5D9032069E03B4A136C23F0805310
:101A88001364DBE7394B00221A66FEF74BFE054666
:101A9800354B1B6813F0007F06D0FEF743FE401B52
:101AA8000228F5D9032051E0E369226A1343626AE8
:101AB80043EA8213A26A5208013A43EA0243E26AFD
:101AC80043EA0263284A5360284B01221A66FEF74C
:101AD80029FE0446244B1B6813F0007F06D1FEF74D
:101AE80021FE001B0228F5D903202FE000202DE05D
:101AF80000202BE0012B2BD01B4B5B6803F48001EB
:101B0800E269914226D103F03F02216A8A4223D139
:101B1800616A47F6C0721A40B2EB811F1ED103F406
:101B28004031A26A5208013AB1EB024F18D103F0D2
:101B38007063E26AB3EB026F14D1002006E0012063
:101B48007047012002E0012000E0002002B070BDD3
:101B58000120FBE70120F9E70120F7E70120F5E77D
:101B68000120F3E70120F1E7003802400000474276
:101B780008B5334B9B6803F00C03042B5BD0082B90
:101B88005BD12F4B5A6802F03F025B6813F4800F59
:101B98002CD02B4B5868C0F388104FEA401CBCEB84
:101BA800000C6EEB0E0E4FEA8E1343EA9C634FEA6D
:101BB8008C11B1EB0C0163EB0E03DB0043EA5173AC
:101BC800C90011EB000C43F10003590200234FEA4E
:101BD8004C2041EADC51FEF7D3FA194B5B68C3F39A
:101BE800014301335B00B0FBF3F008BD144B5868A8
:101BF800C0F388104FEA401CBCEB000C6EEB0E0ED5
:101C08004FEA8E1343EA9C634FEA8C11B1EB0C0147
:101C180063EB0E03DB0043EA5173C90011EB000CC0
:101C280043F10003990200234FEA8C2041EA9C51BA
:101C3800FEF7A6FAD1E70348D7E70348D5E700BF80
:101C48000038024000127A000024F400002800F056
:101C58009B8070B50D4604464F4B1B6803F0070385
:101C68008B4208D2CBB24C4A1370136803F00703B7
:101C78008B4240F08B80236813F0020F17D013F0CB
:101C8800040F04D0454A936843F4E05393602368F3
:101C980013F0080F04D0414A936843F460439360FB
:101CA8003E4A936823F0F003A1680B4393602368CE
:101CB80013F0010F32D06368012B21D09A1E012A3C
:101CC80025D9364A126812F0020F61D033498A6862
:101CD80022F0030213438B60FEF724FD06462F4BC8
:101CE8009B6803F00C036268B3EB820F16D0FEF713
:101CF80019FD801B41F288339842F0D9032042E055
:101D0800264A126812F4003FE0D101203BE0234A42
:101D1800126812F0007FD9D1012034E01E4B1B68F5
:101D280003F00703AB4207D9EAB21B4B1A701B68D2
:101D380003F00703AB422DD1236813F0040F06D03C
:101D4800164A936823F4E053E1680B4393602368D1
:101D580013F0080F07D0114A936823F460432169F0
:101D680043EAC1039360FFF703FF0C4B9B68C3F37F
:101D780003130B4AD35CD8400A4B18600A4B186807
:101D8800FEF784FC002070BD012070470120FAE7AF
:101D98000120F8E70120F6E7003C02400038024045
:101DA800607600083000002038000020014B1868D9
:101DB800704700BF3000002008B5FFF7F7FF044B5D
:101DC8009B68C3F38223034AD35CD84008BD00BF95
:101DD800003802405876000808B5FFF7E7FF044BC3
:101DE8009B68C3F34233034AD35CD84008BD00BFA5
:101DF800003802405876000870B582B004460023C7
:101E08000193006801F085FA054610B1284602B032
:101E180070BD206801F076FD38B90123A364A36C76
:101E2800012B0BD02E46284614E00023A36420681B
:101E380001F06FFA0028F2D00546E7E70021206894
:101E480001F0CEFB0028EDD04FF08055DEE7019B76
:101E580001330193019A4FF6FE739A4213D896B94B
:101E68000021206801F0BCFBE0B91249206801F0AC
:101E780095FC0646C0B90021206801F035FAC30F69
:101E8800E5D01E46E3E7019A4FF6FE739A420ED854
:101E980010F0804302D001236364B7E70022626434
:101EA8001D46B3E70546B1E74FF08055AEE74FF062
:101EB8008075ABE7000010C1F8B5846AC66AA6B998
:101EC800F8BD386801F0EDF92070C0F3072363709E
:101ED800C0F30743A370000EE0700434043E0135DC
:101EE800072DEED9BC62FE62EAE707460025F7E750
:101EF800F0B583B0046A466ADEB903B0F0BD237852
:101F08000193627843EA02230193A27843EA0243E9
:101F18000193E27843EA026301930434043E01A981
:101F2800386801F0C1F90135072DE8D93C627E62B5
:101F3800E3E707460025F7E7F0B589B004460F4602
:101F4800FEF7F0FB06460023009301930821206862
:101F580001F09CFA054610B1284609B0F0BD216D84
:101F68000904206801F03CFB05460028F4D14FF035
:101F7800FF3302930823039330230493022305932A
:101F8800002306930123079302A9206801F0AFF903
:101F9800206801F055FB054658B1DDE701F081F9ED
:101FA8004DF825000135FEF7BDFB831BB3F1FF3F5C
:101FB80043D02068436B13F02A0F07D1436B13F407
:101FC800001FEBD1436B13F4005FECD1436B13F0AC
:101FD800080F29D1436B13F4007F25D1436B13F00D
:101FE800020F24D1456B15F0200523D140F23A5356
:101FF8008363019A130203F47F0343EA0263110A1D
:1020080001F47F410B4343EA12633B60009A1302D9
:1020180003F47F0343EA0263110A01F47F410B438F
:1020280043EA12637B6097E70825856394E70225F6
:10203800856391E7202585638EE74FF000458BE7A0
:1020480010B582B00446002100910191006801F0AA
:102058004BF910F0007F13D169462046FFF76CFF5B
:1020680080B9019B13F4802F0ED0216D09042068DC
:1020780001F0B6FA30B90221206801F0C9FA01E08E
:102088004FF4006002B010BD4FF08060FAE710B561
:1020980082B00446002100910191006801F024F902
:1020A80010F0007F13D169462046FFF745FF80B93D
:1020B800019B13F4803F0ED0216D0904206801F0C4
:1020C8008FFA30B90021206801F0A2FA01E04FF43C
:1020D800006002B010BD4FF08060FAE770B581B1C2
:1020E80004460E46016D0904006801F0C1FA054670
:1020F80008B1284670BD0021206801F0F5F830606D
:10210800F7E74FF00065F4E72DE9F04F87B0054693
:102118000C4616469B46DDF840A0FEF703FB002C54
:1021280036D0814695F83470FFB2012F40F009810E
:102138000023AB6306EB0B03EA6D93422ED803230F
:1021480085F834302B680022DA626B6C012B00D0E2
:1021580076024FF0FF3300934FEA4B23019390230D
:1021680002930223039300230493012305936946F2
:10217800286801F0BCF8BBF1010F14D902232B63C6
:102188003146286801F0B2F9A0B9DDF8048038E0DA
:10219800AB6B43F00063AB630127D7E0AB6B43F055
:1021A8000073AB63D2E001232B633146286801F04A
:1021B80085F9E9E72B68674A9A63AB6B0343AB631E
:1021C800012385F8343000232B63BFE0286801F031
:1021D80068F82070C0F307236370C0F30743A37047
:1021E800000EE0700434A8F104080136072EEDD97A
:1021F800FEF798FAA0EB0900504510D2BAF1000F8B
:102208000DD02868466B40F22A331E4015D1436B27
:1022180013F4004FECD0B8F1000FE9D0E6E72B68D3
:102228004C4A9A63AB6B43F00043AB63012385F8D8
:10223800343000232B63032788E0436B13F4807F3B
:1022480005D0BBF1010F02D96B6C032B3CD12B6875
:102258005A6B12F0080F48D15A6B12F4007F44D120
:102268005A6B12F0020F4CD15A6B12F0200F54D156
:102278002868436B13F4001F5BD0B8F1000F58D0E7
:1022880001F00FF82070C0F307236370C0F3074311
:10229800A370000EE0700434A8F10408FEF742FAB7
:1022A800A0EB0900504502D2BAF1000FE0D12B682B
:1022B800284A9A63AB6B43F00043AB63012385F86C
:1022C800343000232B6341E001F058F9034600281D
:1022D800BDD02A681F499163AA6B1343AB630123DE
:1022E80085F8343000232B6330E01A4A9A63AB6BCD
:1022F80043F00803AB63012385F8343000232B63D4
:1023080024E0144A9A63AB6B43F00203AB630123E6
:1023180085F8343000232B6318E00E4A9A63AB6BC0
:1023280043F02003AB63012385F8343000232B638B
:102338000CE040F23A538363012385F834300027D8
:1023480004E0AB6B43F00053AB630127384607B09A
:10235800BDE8F08FFF0540002DE9F04F8BB0054632
:102368000C4616469B46DDF850A0FEF7DBF9002C1C
:1023780037D0804695F83470FFB2012F40F0E680E0
:102388000023AB6306EB0B03EA6D93422FD80323BC
:1023980085F834302B680022DA626B6C012B00D090
:1023A80076024FF0FF3304934FEA4B2305939023B3
:1023B80006930023079308930123099304A9286827
:1023C80000F095FFBBF1010F16D920232B6331468E
:1023D800286801F0BBF80190019BABB9DDF81490B7
:1023E80040E0AB6B43F00063AB630127B3E0AB6B3A
:1023F80043F00073AB63AEE010232B6331462868CB
:1024080001F08CF80190E7E72B68554A9A63AB6BAB
:10241800019A1343AB63012385F8343000232B63FF
:1024280099E023780393627843EA02230393A2781E
:1024380043EA02430393E27843EA026303930434D2
:10244800A9F1040903A9286800F02EFF0136072E18
:10245800E7D9FEF767F9A0EB0800504510D2BAF1AA
:10246800000F0DD02868466B40F21A331E4015D174
:10247800436B13F4804FECD0B9F1000FE9D0E6E7D5
:102488002B68374A9A63AB6B019A1343AB630123FA
:1024980085F8343000232B6303275CE0436B13F487
:1024A800807F05D0BBF1010F02D96B6C032B1CD1C7
:1024B8002B685A6B12F0080F28D15A6B12F4007F60
:1024C80024D15A6B12F0020F2CD15A6B12F0100F54
:1024D80034D0234A9A63AB6B43F01003AB630123F8
:1024E80085F8343000232B6335E001F047F80346C4
:1024F8000028DDD02A681A499163AA6B1343AB639D
:10250800012385F8343000232B6324E0144A9A63AE
:10251800AB6B43F00803AB63012385F83430002329
:102528002B6318E00E4A9A63AB6B43F00203AB636C
:10253800012385F8343000232B630CE040F23A5233
:102548009A63012385F83430002704E0AB6B43F02D
:102558000053AB63012738460BB0BDE8F08F00BFCE
:10256800FF054000704700000346426E920F0A7054
:10257800426EC2F383624A7090F8672002F0030249
:102588008A7090F86620CA7090F865200A7190F8F1
:1025980064204A71826E120DCA80B0F86A2002F077
:1025A8000F020A72826EC2F3C0324A72826EC2F39E
:1025B80080328A72826EC2F34032CA72826EC2F36D
:1025C80000320A7300224A73426C002A40F0868067
:1025D800806E40F6FC7202EA8002D86E42EA90727F
:1025E8000A61DA6EC2F3C2620A7593F86F2002F0CC
:1025F80007024A75DA6EC2F342528A75DA6EC2F37E
:102608008242CA75DA6EC2F3C2320A760A690132A8
:102618005A65087E00F00700023082405A6591F83A
:1026280008C00CF00F0C012000FA0CF09865400A65
:1026380000FB02F2DA654FF400721A66DA6EC2F332
:1026480080324A76DA6EC2F3C6128A76DA6E02F001
:102658007F02CA761A6FD20F0A771A6FC2F34172D5
:102668004A771A6FC2F382628A771A6FC2F383526B
:10267800CA771A6FC2F3405281F82020002081F8EF
:102688002100B3F8722002F0010281F822201A6FAB
:10269800C2F3C03281F823201A6FC2F3803281F866
:1026A80024201A6FC2F3403281F825201A6FC2F332
:1026B800003281F826201A6FC2F3812281F8272080
:1026C8001A6FC2F3012281F828201B6FC3F3460357
:1026D80081F82930012381F82A307047012A11D165
:1026E800826E120402F47C12B0F86E0002430A6192
:1026F8000A69013292025A65DA654FF400729A65E6
:102708001A669BE7026805499163826B42F0805222
:102718008263012083F83400704700BFFF05400042
:1027280070B590B004460123ADF81230006800F08F
:10273800C4FD00286CD0636C032B45D1636C032B5C
:102748005DD1636C032B1DD0BDF8121021650904FF
:10275800206800F0E8FF054600285BD100212068CA
:1027680000F0C2FD60660421206800F0BDFDA0668F
:102778000821206800F0B8FDE0660C21206800F010
:10278800B3FD20670421206800F0AEFD000DE06471
:1027980005A92046FFF7E8FE00283ED1226D120465
:1027A8000023206800F004FF054698BB234653F831
:1027B800106B93E807008DE80700043494E80E00D6
:1027C800304600F055FD25E0206800F097FF0546EB
:1027D80000BB0021206800F087FD606704212068A5
:1027E80000F082FDA0670821206800F07DFDE06709
:1027F8000C21206800F078FDC4F880009EE70DF1F8
:102808001201206801F034F80546002899D001E04B
:102818004FF08065284610B070BD4FF08055F9E73D
:1028280070B58AB004460023049305930693079372
:102838000893762309930AAB13E907008DE807008C
:1028480004AB0ECB206800F013FD18B10125284613
:102858000AB070BD05461A4E0023C6F8A03020689D
:1028680000F027FD0123C6F8A0300220FDF760FF25
:102878002046FFF7C1FA30B1012584F83450A36B24
:102888000343A363E3E72046FFF74AFF30B101257E
:1028980084F83450A36B0343A363D8E74FF4007163
:1028A800206800F0F3FD0028D1D02368054999631A
:1028B800A36B0343A363012584F83450C7E700BF23
:1028C80000802542FF054000A8B110B5044690F8E5
:1028D800343063B1032384F834302046FFF7A0FF77
:1028E80058B9A0632063012384F8343010BD0377FE
:1028F800FDF7B0FDEEE7012070470120F6E7436CD5
:102908000B60836C4B60C36C8B60036DCB60436D55
:102918000B61836D4B61C36D8B61036ECB610020CE
:102928007047000030B58BB004460D46032380F88D
:102938003430436C032B1CD0B1F5805F08D0B1F55F
:10294800006F0AD079B1836B43F00063836314E0AE
:10295800836B43F0805383630FE0FFF771FBA36B36
:102968000343A36309E0FFF792FBA36B0343A3634D
:1029780003E0836B43F080538363A36BC3B1236885
:10298800174A9A63012584F834504FF4007120687F
:1029980000F07CFD30B1236811499963A36B0343B0
:1029A800A3630125012384F8343028460BB030BDD9
:1029B80063680493A3680593E368069307956369BE
:1029C8000893A36909930AAB13E907008DE8070088
:1029D80004AB0ECB206800F04BFC0025D5E700BF08
:1029E800FF05400010B582B004460023019301A9F9
:1029F800FFF774FB10B1A36B0343A3630198C0F303
:102A0800432002B010BD10B5846B236840F23A52DF
:102A18009A632046FFF7E6FF012384F83430002349
:102A280023630538012805D9A36B53B9204601F063
:102A38007AFD10BD206800F0A1FDA36B0343A363DA
:102A4800F2E72046FFF78EFDF3E710B5846B2368A5
:102A580040F23A529A632046FFF7C4FF012384F8F4
:102A68003430002323630538012805D9A36B53B9F3
:102A7800204601F058FD10BD206800F07FFDA36BD3
:102A88000343A363F2E72046FFF76CFDF3E700007A
:102A980038B50446056B03685A6B12F4004F02D030
:102AA80015F0080F28D15A6B12F4807F5AD04FF4D2
:102AB80080729A632268D36B23F4434323F03A036A
:102AC800D3632268D36A23F00103D36215F0080F99
:102AD80026D015F0220F12D1236840F23A529A6399
:102AE800012384F834300023236315F0030F13D037
:102AF800204601F022FD01E0FFF7DEF938BD20682D
:102B080000F03CFD03460028E6D0A26B1343A36304
:102B18002046FFF727FDDFE7204601F009FDEDE736
:102B280015F0800FEAD015F0200F0ED115F0030F25
:102B3800E4D12268D36A23F00803D362012384F81E
:102B48003430204601F0F4FCD8E7206800F016FD88
:102B580003460028EAD0A26B1343A3632046FFF77D
:102B680001FDE3E75A6B12F4804F02D015F0080F0D
:102B780055D1596B40F23A221142BFD05A6B12F02C
:102B8800020F03D0A26B42F00202A2635A6B12F04A
:102B9800080F03D0A26B42F00802A2635A6B12F02E
:102BA800200F03D0A26B42F02002A2635A6B12F0EE
:102BB800100F03D0A26B42F01002A2635A6B12F4FA
:102BC800007F03D0A26B42F00802A26340F23A727F
:102BD8009A632268D36B23F44E7323F00203D36302
:102BE800206800F0CBFCA36B0343A36315F0080F28
:102BF80019D115F0800F81D015F0300F1CD115F0C8
:102C0800030F26D0236C184A1A65206CFDF76AFE5C
:102C180000283FF473AF206CFFF717FF6EE72046DC
:102C2800FFF766F96AE7012384F834300023236349
:102C38002046FFF797FC61E7E36B0C4A1A65E06BE7
:102C4800FDF750FE00283FF459AFE06BFFF7DBFEBD
:102C580054E70023A363012284F834202363204629
:102C680001F061FC4AE700BF532A00080F2A000858
:102C7800026802F10C0353E8003F23F490730C320E
:102C880042E800310029F3D1026802F1140353E845
:102C9800003F23F00103143242E800310029F3D148
:102CA800036B012B05D0202380F8423000230363F7
:102CB8007047026802F10C0353E8003F23F0100349
:102CC8000C3242E800310029F3D1ECE790F84130AA
:102CD800DBB2212B01D0022070478368B3F5805FF7
:102CE80017D0036A5A1C02621A7803685A60C38CA8
:102CF8009BB2013B9BB2C3844BB90268D36823F0F3
:102D08008003D3600268D36843F04003D360002097
:102D180070470369002BE4D1036A1B880268C3F378
:102D280008035360036A02330362E0E710B5044600
:102D38000268136923F44053C1680B431361836825
:102D480002691A4343691A43C3691A430168CB6885
:102D580023F4164323F00C031343CB600268536932
:102D680023F4407381690B4353610368314A9342EA
:102D780006D002F58062934202D0FFF71DF801E009
:102D8800FFF72AF8E369B3F5004F29D000210318AB
:102D980049411B1841F10001C90041EA5371DB00A8
:102DA800181863684FEA83024FEA937341F10001F0
:102DB800FDF7E6F9204AA2FB00314909642303FB29
:102DC80011031B013233A2FB03235B0903F0F0025A
:102DD80002EB011203F00F03216813448B6010BD4E
:102DE8000023021843EB0301121841F10001C90046
:102DF80041EA5271D200101841F10001626892183C
:102E08005B41FDF7BDF90C4AA2FB00314909642377
:102E180003FB1103DB003233A2FB03235B095A00D7
:102E280002F4F87202EB011203F00703216813445D
:102E38008B60D4E7001001401F85EB5160B310B5DB
:102E4800044690F8413013B3242384F841302268B3
:102E5800D36823F40053D3602046FFF767FF226846
:102E6800136923F4904313612268536923F02A03FA
:102E780053612268D36843F40053D3600020606430
:102E8800202384F8413084F84230606310BD80F814
:102E98004030FDF793FBD7E701207047704708B52E
:102EA8000168CA6822F04002CA60202280F84120E6
:102EB800FFF7F4FF002008BD7047704708B5806B26
:102EC8000023C385C384FFF7F8FF08BD704790F857
:102ED8004230DBB2222B69D18368B3F5805F4FD0D3
:102EE800826AB3F5805F04D0002B56D10369002BAA
:102EF80053D103685B681370836A01338362C38D9F
:102F08009BB2013B9BB2C385002B51D100B583B066
:102F18000268D36823F02003D3600268D36823F4DF
:102F28008073D3600268536923F00103536120233F
:102F380080F8423000234363036B012B33D1002315
:102F48000363026802F10C0353E8003F23F0100307
:102F58000C3242E800310029F3D103681A6812F0F4
:102F6800100F06D0002201921A6801925B68019343
:102F7800019B818DFFF7AAFF002003B05DF804FBD9
:102F88000269002AACD1826A03685B68C3F308034C
:102F98001380836A02338362B1E703685B6803F0D6
:102FA8007F031370A8E7FFF787FFE5E70220704764
:102FB8000020704710B582B0044602681368D068D4
:102FC800516913F00F0F09D113F0200F0CD010F036
:102FD800200F09D02046FFF77AFF16E011F0010113
:102FE80015D110F4907F12D1216B012979D013F0FB
:102FF800800F03D010F0800F40F0148113F0400FC1
:1030080003D010F0400F40F0118102B010BD13F052
:10301800010F06D010F4807F03D0626C42F00102E9
:10302800626413F0040F04D019B1626C42F002021A
:10303800626413F0020F04D019B1626C42F004020A
:10304800626413F0080F07D010F0200F00D119B1F7
:10305800626C42F008026264626C002AD5D013F0F8
:10306800200F02D010F0200F29D123685B6903F0EC
:103078004003626C12F0080F00D163B32046FFF7DB
:10308800F7FD23685B6913F0400F20D0226802F136
:10309800140353E8003F23F04003143242E80031A0
:1030A8000029F3D1E36B73B1624A1A65E06BFDF74F
:1030B80019FC0028A9D0E06B036D9847A5E72046C6
:1030C800FFF705FFD1E72046FFF7F7FE9DE720460B
:1030D800FFF7F3FE99E72046FFF7EFFE002363644E
:1030E80093E713F0100F82D010F0100F3FF47FAF6A
:1030F800002301931368019353680193019B53695B
:1031080013F0400F52D0E26B13685B689BB2002B40
:103118003FF47BAFA18D99427FF677AFE385D36902
:10312800B3F5807F37D0226802F10C0353E8003FE3
:1031380023F480730C3242E800310029F3D122686D
:1031480002F1140353E8003F23F00103143242E86C
:1031580000310029F3D1226802F1140353E8003F3B
:1031680023F04003143242E800310029F3D1202330
:1031780084F8423000232363226802F10C0353E8E9
:10318800003F23F010030C3242E800310029F3D14C
:10319800E06BFDF75DFB02236363A18DE38D9BB2BA
:1031A800C91A89B22046FFF791FE2EE7A18DE38D5B
:1031B8009BB2C91A89B2E38D9BB2002B3FF425AFAD
:1031C80000293FF422AF226802F10C0353E8003FC4
:1031D80023F490730C3242E800300028F3D12268BF
:1031E80002F1140353E8003F23F00103143242E8CC
:1031F80000300028F3D1202384F8423000232363D1
:10320800226802F10C0353E8003F23F010030C324C
:1032180042E800300028F3D1022363632046FFF719
:1032280055FEF2E62046FFF751FDEEE62046FFF791
:1032380036FEEAE6C52E00080B4B1B680B4AA2FBBC
:1032480003235B0A41F2883202FB03F31A46013B6F
:103258003AB1426B12F0800FF8D0C5238363002087
:1032680070474FF00040704730000020D34D621087
:1032780084B00DF1040C8CE80E000B461343039A3E
:103288001343049A1343059A1343069A1343426857
:1032980022F4FD4222F07F0213434360002004B071
:1032A8007047D0F8800070470B68C0F88030002065
:1032B80070470323036000207047006800F0030094
:1032C80070470B6883604B688A681343CA68134366
:1032D8000A691343C2686FF30B021343C3600020EB
:1032E80070470069C0B270471430405870470B6887
:1032F80043624B6883628B68CA6813430A69134345
:103308004A691343C26A22F0F7021343C3620020DA
:10331800704710B586B004460023019302930393C7
:1033280004934FF48063059301A9FFF7CAFF204671
:10333800FFF782FF06B010BD38B504460D46504B66
:103348001B685049A1FB03135B0A03FB02F21346F7
:10335800013A002B5DD0636B13F0450FF7D013F4DF
:10336800006FF4D1636B13F0040F06D1636B13F095
:10337800010F05D00120A0634DE00420A0634AE0BE
:10338800C523A3632046FFF7ACFFA84201D0012064
:1033980041E000212046FFF7A7FF03463A481840BE
:1033A800C8B3002B38DB13F0804F38D113F0005F1F
:1033B80037D113F0805F36D113F0006F36D113F098
:1033C800806F36D113F0807F36D113F4000F36D1D9
:1033D80013F4800F36D113F4001F36D113F4801F75
:1033E80036D113F4802F36D113F4003F36D113F4BD
:1033F800803F36D113F4004F36D113F4804F36D1C5
:1034080013F4005F36D113F0080F36D04FF40000E4
:1034180001E04FF0004038BD4FF00070FBE740205E
:10342800F9E78020F7E74FF48070F4E74FF4007075
:10343800F1E74FF48060EEE74FF40060EBE74FF4FC
:103448008050E8E74FF40050E5E74FF48040E2E7AA
:103458004FF40040DFE74FF40030DCE74FF4802002
:10346800D9E74FF40020D6E74FF48010D3E74FF4A4
:103478000010D0E74FF48000CDE74FF48030CAE762
:1034880030000020D34D621008E0FFFD30B587B052
:1034980004460191102502954023039300230493C9
:1034A8004FF48063059301A9FFF70BFF41F28832BF
:1034B80029462046FFF740FF07B030BD30B587B03A
:1034C8000446019111250295402303930023049398
:1034D8004FF48063059301A9FFF7F3FE41F28832A8
:1034E80029462046FFF728FF07B030BD30B587B022
:1034F8000446019112250295402303930023049367
:103508004FF48063059301A9FFF7DBFE41F288328F
:1035180029462046FFF710FF07B030BD30B587B009
:103528000446019118250295402303930023049330
:103538004FF48063059301A9FFF7C3FE41F2883277
:1035480029462046FFF7F8FE07B030BD30B587B0F2
:1035580004460191192502954023039300230493FF
:103568004FF48063059301A9FFF7ABFE41F288325F
:1035780029462046FFF7E0FE07B030BD30B587B0DA
:103588000446002301930C250295402203920493DC
:103598004FF48063059301A9FFF793FE034A294678
:1035A8002046FFF7C9FE07B030BD00BF00E1F505B2
:1035B80030B587B00446019207250295402303934E
:1035C800002304934FF48063059301A9FFF779FE64
:1035D80041F2883229462046FFF7AEFE07B030BDDB
:1035E80030B587B0044601913725029540230393EF
:1035F800002304934FF48063059301A9FFF761FE4C
:1036080041F2883229462046FFF796FE07B030BDC2
:1036180030B587B0044601910625029540230393EF
:10362800002304934FF48063059301A9FFF749FE33
:1036380041F2883229462046FFF77EFE07B030BDAA
:1036480030B587B004460023019333250295402204
:10365800039204934FF48063059301A9FFF731FEA9
:1036680041F2883229462046FFF766FE07B030BD92
:1036780030B587B0044601910D2502954023039388
:10368800002304934FF48063059301A9FFF719FE03
:1036980041F2883229462046FFF74EFE07B030BD7A
:1036A8000146144B1B68144AA2FB03235B0A41F230
:1036B800883202FB03F31A46013BBAB14A6B12F097
:1036C800450FF8D012F4006FF5D14B6B13F0040FCF
:1036D80006D1486B10F0010005D1C5238B637047F4
:1036E8000420886370470120886370474FF00040CA
:1036F800704700BF30000020D34D621010B586B06F
:1037080004460023019302220292C02203920493EA
:103718004FF48063059301A9FFF7D3FD2046FFF717
:10372800BFFF06B010BD10B586B00446019109234D
:103738000293C0230393002304934FF480630593FB
:1037480001A9FFF7BEFD2046FFF7AAFF06B010BD8E
:103758000146104B1B68104AA2FB03235B0A41F287
:10376800883202FB03F31A46013B82B14A6B12F01E
:10377800450FF8D012F4006FF5D1486B10F0040033
:1037880002D1C5238B6370470420886370474FF0CC
:103798000040704730000020D34D621010B586B04D
:1037A800044641F0004141F480110191292302931C
:1037B80040230393002304934FF48063059301A9E6
:1037C800FFF77FFD2046FFF7C3FF06B010BD0000DE
:1037D800F8B505460E461746234B1B68234AA2FB3D
:1037E80003235B0A41F2883202FB03F31A46013BCA
:1037F8008AB36C6B14F0450FF8D014F4006FF5D150
:103808006B6B13F0040F06D16B6B13F0010F05D02F
:103818000120A86321E00420A8631EE02846FFF7E2
:1038280060FDB04201D0012017E0C523AB63002141
:103838002846FFF759FD034610F4604008D013F4FA
:10384800804F0BD113F4004F0BD04FF4805004E09D
:103858001B0C3B8001E04FF00040F8BD4FF40050D6
:10386800FBE74FF48030F8E730000020D34D6210BA
:1038780070B586B004460D460023019303260296D0
:103888004022039204934FF48063059301A9FFF744
:1038980018FD2A4631462046FFF79AFF06B070BD4C
:1038A8000146164B1B68164AA2FB03235B0A41F22A
:1038B800883202FB03F31A46013BE2B14A6B12F06D
:1038C800450FF8D012F4006FF5D14B6B13F0040FCD
:1038D8000BD14B6B13F001030AD1486B10F0400079
:1038E8000BD040228A6318467047042088637047CB
:1038F8000120886370474FF0004070473000002077
:10390800D34D621010B586B004464FF4D5730193B9
:103918000823029340230393002304934FF4806306
:10392800059301A9FFF7CDFC2046FFF7B9FF06B0C4
:1039380010BD82B000230193019B01330193019BC9
:10394800B3F1706F15D80369002BF5DA00230193E2
:10395800036943F001030361019B01330193019B58
:10396800B3F1706F08D8036913F0010FF4D1002088
:1039780000E0032002B070470320FBE784B010B5D5
:10398800044603A880E80E009DF81130012B21D1D0
:10399800A36B23F48033A363E36823F4840323F045
:1039A8004003E360E36823F44013E3609DF81830B4
:1039B800012B0AD02046FFF7BCFF9DF80E30012BE3
:1039C8001CD0BDE8104004B07047E36843F480138E
:1039D800E360EFE7E36843F04003E3602046FFF766
:1039E800A8FF9DF8153023B9A36B43F48033A36374
:1039F800E3E7A36B23F48033A363DEE7A36843F014
:103A08000603A360A36843F02003A360D9E700007E
:103A1800022A0AD00922C36823F47053C360C3681A
:103A280043EA8223C36000207047234B0B44234A98
:103A380093422FD9224B0B44224A93422CD9A1F509
:103A48007403A3F51053204A934227D9A1F1837335
:103A5800A3F5E7431D4A934222D31D4B0B441D4A4D
:103A680093421FD91C4B0B441C4A93421CD31C4B3A
:103A78000B441C4A934219D3A1F1B773A3F55853C9
:103A8800194A934214D3194B0B44194A934211D241
:103A98000722C0E70F22BEE70E22BCE70D22BAE7D5
:103AA8000C22B8E70B22B6E70A22B4E70922B2E7EC
:103AB8000822B0E70622AEE7405327FFFF340C0088
:103AC800401E1BFF3F420F007F4F120020D61300FD
:103AD80060B6E5FE5FE3160000D3CEFE40771B001C
:103AE800C05BB3FEC091210020753800E05459FE38
:103AF800E09C4100836843F0010383600020704725
:103B0800836823F0010383600020704782B000239C
:103B18000193019B01330193019BB3F1706F15D899
:103B28000369002BF5DA00230193890141F0200194
:103B38000161019B01330193019BB3F1706F08D8B8
:103B4800036913F0200FF4D1002000E0032002B035
:103B580070470320FBE782B000230193019B0133E8
:103B68000193019BB3F1706F13D80369002BF5DA49
:103B78000023019310230361019B01330193019BEF
:103B8800B3F1706F08D8036913F0100FF4D1002057
:103B980000E0032002B070470320FBE7D0F80038AC
:103BA8001943C0F8001800207047000084B0F8B529
:103BB800044607A880E80E00002306E003F140024F
:103BC80004EB82020021516001330E2BF6D99DF8D7
:103BD800266006BBD4F8043843F00203C4F804385E
:103BE800A36B43F40013A363A36B23F40023A36321
:103BF800A36B23F48023A3630023C4F8003E9DF83D
:103C08002130012B15D19DF81F306BB900212046BA
:103C1800FFF7C4FF11E0A36B23F40013A363A36BA6
:103C280043F40023A363E7E701212046FFF7B6FF2B
:103C380003E003212046FFF7B1FF10212046FFF7DC
:103C480065FF054600B101252046FFF784FF00B156
:103C5800012504F5006C0023CCF81030CCF81430A2
:103C6800CCF81C300AE0CBB94FF00060C2F800096C
:103C780000220A614FF67F328A6001339DF81C10DA
:103C8800994210D904EB431202F51061D2F80009E9
:103C98000028E8DB0020C2F80009E9E74FF090406F
:103CA800C2F80009E4E700230AE0BBB14FF09047EF
:103CB800C2F8007B002202614FF67F328260013336
:103CC800994210D904EB431202F53060D2F8007B18
:103CD800002FEADB0027C2F8007BEBE74FF0006714
:103CE800C2F8007BE6E7DCF8103023F48073CCF8E8
:103CF80010300023A3616FF0804363619DF81E308C
:103D08001BB9A36943F01003A361A2690B4B1343CA
:103D1800A3619DF822301BB1A36943F00803A36196
:103D2800012E04D02846BDE8F84004B07047A369C6
:103D380043F0804343F00403A361F3E700383C8079
:103D4800D0F8083803F00603022B04D0062B04D061
:103D58002BB90020704702207047022070470F20BF
:103D6800704710B591F800C04B78012B23D000F5AF
:103D7800006ED0F81C380CF00F040122A24043EA70
:103D88000243C0F81C3800EB4C10D0F8003B13F489
:103D9800004F0ED1D0F8003B8A68C2F30A020979B5
:103DA80042EA8142134343F0805343F40043C0F88E
:103DB800003B002010BDD0F81C280CF00F0E03FAB1
:103DC8000EF39BB21343C0F81C3800EB4C10D0F82C
:103DD800003913F4004FECD1D0F800398A68C2F3E7
:103DE8000A02097942EA814242EA8C52134343F0BB
:103DF800805343F40043C0F80039DAE730B40B7855
:103E08004A78012A26D000EB4313D3F8002B002A66
:103E180052DBD0F83C480A7802F00F024FF0010C50
:103E28000CFA02F224EA0242C0F83C28D0F81C2816
:103E3800097801F00F010CFA01FC22EA0C42C0F8E3
:103E48001C28D3F8001B234A0A40C3F8002B002083
:103E580030BC704700EB4313D3F80029002A1EDB5F
:103E6800D0F83C580A7802F00F02012404FA02F252
:103E780092B225EA0202C0F83C28D0F81C2809783A
:103E880001F00F018C40A4B222EA0402C0F81C28F9
:103E9800D3F80019104A0A40C3F80029D7E7D3F825
:103EA800002942F00062C3F80029D3F8002942F043
:103EB8008042C3F80029D3E7D3F8002B42F0006210
:103EC800C3F8002BD3F8002B42F08042C3F8002B34
:103ED8009FE700BF0078F3EF007833EC10B483B0AD
:103EE800024600230193487801280AD00B7802EB98
:103EF8004313D3F8000B00282CDB002003B010BCC0
:103F080070470B7802EB4313D3F80049002C01DB10
:103F18000020F3E7D3F8004944F00064C3F80049EF
:103F28000B7802EB4313D3F8004944F08044C3F8FC
:103F38000049019B01330193019C42F210739C429A
:103F4800DCD80B7802EB4313D3F80039002BF0DBF5
:103F58000020D3E7D3F8000B40F00060C3F8000B53
:103F68000B7802EB4313D3F8000B40F08040C3F802
:103F7800000B019B01330193019842F210739842A0
:103F880008D80B7802EB4313D3F8003B002BF0DB87
:103F98000020B3E70120B1E710B59DF8084084B9C7
:103FA80003334FEA930E4FF0000C08E000EB0233A6
:103FB80003F5805351F8044B1C600CF1010CF445D7
:103FC800F4D3002010BD0000F0B583B00C784B7816
:103FD800012B2DD000EB441C0CF530631D696FF3E9
:103FE80012051D611D696FF3DC451D61002C40F051
:103FF800CE800C690CB18C680C618C680C621D69F0
:10400800C4F312042C431C611C6944F400241C6191
:10401800012A00F0DF800B79012B00F0E180DCF849
:10402800003B43F00443CCF8003B002003B0F0BD54
:104038000B6973BB00EB4413D3F810596FF3DC45DD
:10404800C3F81059D3F8105945F40025C3F810598E
:10405800D3F810596FF31205C3F81059012A54D038
:1040680000EB4414D4F8003943F00443C4F8003991
:104078000B79012B72D00B69002BD6D0D0F83438CD
:10408800097801F00F0101228A401343C0F834383F
:10409800CBE700EB441303F510631D696FF31205BA
:1040A8001D611D696FF3DC451D6184B90E698D685A
:1040B800AE4200D90D611D6945F400251D611D69D9
:1040C8000E69C6F3120C45EA0C051D61C6E70D69B9
:1040D8008E683544013DB5FBF6F51E691FFA85FC6F
:1040E800494F07EAC54535431D610D79012DE6D1D4
:1040F8001D6925F0C0451D611D694FEA4C7C0CF017
:10410800C04C45EA0C051D61D9E7CB691BB100EB32
:104118004412C2F814390B79012B08D000EB44146F
:10412800D4F8003943F00443C4F800397DE7D0F8E7
:10413800083813F4807F08D100EB4412D2F8003914
:1041480043F00053C2F80039E8E700EB4412D2F814
:10415800003943F08053C2F80039DFE7D0F8083857
:1041680013F4807F0CD1D4F8003943F00053C4F81D
:10417800003900920B8A0A78C968FFF70DFF54E7E7
:10418800D4F8003943F08053C4F80039F1E70C69DA
:1041980054B91C698D68C5F312052C431C611C6950
:1041A80044F400241C6133E78D682C44013CB4FBC3
:1041B800F5F4A4B204FB05F50D621D69124E06EA7A
:1041C800C4442C431C611C690D6AC5F312052C43B9
:1041D8001C611DE7CA68002A3FF41DAF5A611AE73F
:1041E800D0F8083813F4807F06D1DCF8003B43F0A0
:1041F8000053CCF8003B12E7DCF8003B43F0805357
:10420800CCF8003B0BE700BF0000F81F10B5844650
:1042180008464FEA920E02F00302002305E00CF56F
:104228008051096840F8041B01337345F7D37AB10C
:104238000CF5805CDCF800400021CBB2DB0024FAEE
:1042480003F300F8013B0131013A92B2002AF4D19C
:1042580010BD0B784A78012A14D000EB4310D0F82F
:10426800002B002A06DB2BB1D0F8003B23F080435B
:10427800C0F8003BD0F8003B43F40013C0F8003B03
:104288000020704700EB4310D0F80029002A06DB15
:104298002BB1D0F8003923F08043C0F80039D0F8AA
:1042A800003943F40013C0F80039E9E70B784A787D
:1042B800012A0ED000EB4310D0F8003B23F4001382
:1042C800C0F8003B0B79023BDBB2012B15D900206B
:1042D800704700EB4310D0F8003923F40013C0F8FE
:1042E80000390B79023BDBB2012BF0D8D0F800394A
:1042F80043F08053C0F80039E9E7D0F8003B43F0B9
:104308008053C0F8003BE2E7D0F8003823F4FE639E
:10431800C0F80038D0F80038090101F4FE610B43F9
:10432800C0F8003800207047D0F8003E23F003039F
:10433800C0F8003ED0F8043823F00203C0F804386F
:1043480000207047D0F8003E23F00303C0F8003E79
:10435800D0F8043843F00203C0F80438002070474E
:104368004269806910407047D0F8183800F500603D
:10437800C0691840000C7047D0F8183800F5006084
:10438800C069184080B2704700EB4111D1F8082B82
:1043980000F50060406910407047D0F81028D0F848
:1043A800343801F00F0C23FA0CF3DB01DBB21343B2
:1043B80000EB411000F510608068184070474069B4
:1043C80000F00100704738B50546C36823F0C043C4
:1043D800C360012913D019BBC36843F08043C3608D
:1043E80000240A20FCF7A4F90A342846FFF7E7FF5F
:1043F80008B1C72CF5D9C82C14D0002038BDC36823
:1044080043F00053C36000240A20FCF791F90A34F2
:104418002846FFF7D4FF0128EDD0C72CF4D9EAE7E6
:104428000120EBE70120E9E7D0F800396FF30A0330
:10443800C0F80039D0F8043843F48073C0F8043861
:104448000020704710B4046C144B9C4203D9D0F878
:10445800003B002B16DB0024C0F8104BD0F8104BA3
:1044680044F40024C0F8104BD0F8104B44F0180462
:10447800C0F8104BD0F8104B44F0C044C0F8104BB3
:10448800012902D0002010BC7047C0F8142BD0F8C6
:10449800003B43F08023C0F8003BF3E70A30544F59
:1044A80008B50349034802F0F1FB034B187008BD37
:1044B8001C020020707600082002002000207047AF
:1044C80000B583B0009313460A4601460348FDF73A
:1044D8001BFE00B1012003B05DF804FB4C01002075
:1044E80000B583B0009313460A4601460348FDF71A
:1044F80033FF00B1012003B05DF804FB4C0100203C
:1045080008B50348FEF76EFA043818BF012008BD45
:104518004C01002008B501460148FEF7F0F908BD36
:104528004C010020704708B5FFF7FCFF08BD704735
:1045380008B5FFF7FCFF08BD704708B5FFF7FCFF9B
:1045480008BD82B001238DF807309DF8070002B03E
:104558007047000038B5FFF7F4FF012802D00125A5
:10456800284638BD04460748FEF7AEF90546002838
:10457800F6D14FF400610348FEF7D4F90028EFD0D4
:104588002546EDE74C01002008B5074B01221A70BB
:10459800FFF7B6FF20B9044A137803F0FE0313703F
:1045A800014B187808BD00BF3C00002010B5044638
:1045B800074B01221A70FFF7CDFF10B1044B187892
:1045C80010BD2046FFF7E0FF014B1870F6E700BF6B
:1045D8003C00002008B5FFF7D7FF08BD08B508461E
:1045E80011461A464FF0FF33FFF76AFF30B9FFF75D
:1045F80087FF03460028FAD1184608BD0123FBE7C8
:1046080008B5084611461A464FF0FF33FFF768FF12
:1046180030B9FFF775FF03460028FAD1184608BDE0
:104628000123FBE730B589B0134B187810F001046B
:104638001BD1154603291CD8DFE801F002040A1033
:104648000C4613E06846FFF765FF069B2B600DE0FC
:104658006846FFF75FFF079B2B8007E06846FFF778
:1046680059FF079B5B0A2B6000E00324204609B032
:1046780030BD0424FAE700BF3C00002010B5D0F894
:10468800D43203F1B00250F822408CB100EB820022
:1046980043687BB194F80002FF280DD09B6894F81A
:1046A800012221469847FF2384F80032002010BDDC
:1046B8000320FCE70020FAE70020F8E70A2303803C
:1046C80000487047BC000020F8B506460F4F82210D
:1046D800384600F044FC05460121384600F03FFC0E
:1046E80004468121384600F03AFC0DB11022AA7127
:1046F8001CB1402222710022627118B1402202715D
:1047080000224271432333800048F8BD4000002056
:10471800F8B506460F4F8221384600F020FC0546C2
:104728000121384600F01BFC04468121384600F080
:1047380016FC0DB11022AA711CB140222271002270
:10474800627118B140220271002242714323338002
:104758000048F8BD40000020F8B506460F4F8221FA
:10476800384600F0FCFB05460121384600F0F7FB0F
:1047780004468121384600F0F2FB0DB11022AA71DF
:104788001CB1002222710222627118B1002202714A
:1047980002224271432333800048F8BD40000020C4
:1047A80038B5D0F8D432B03350F8235095B1044618
:1047B80002F070FCC5F80C02D4F8D432B03304EB24
:1047C80083046368DB6805F50371D5F8040298472C
:1047D800002038BD0320FCE738B5D0F8C852D0F81F
:1047E800D432B03350F8234084B301F00F0303EB05
:1047F800830200EB820292694AB103EBC30C05EB1A
:104808008C05ED69B2FBF5FC05FB1C2292B1002377
:10481800C4F81432D0F8D432B03300EB83004368C4
:104828001B69ABB10A4604F50471D4F8080298472D
:10483800002038BD03EB830300EB830300249C6155
:104848002346224602F06EFC2046F2E70320F0E7FA
:104858000020EEE7F0B583B0D0F8D43203F1B0020F
:1048680050F8227000228DF80720ADF80420002FA0
:104878007BD004460D46097811F0600634D0202E0E
:104888006CD1EA882AB311F0800F07D16B7887F8CA
:104898000032EA883F2A13D8D2B212E0B03300EBD4
:1048A80083035B689B68394668789847EA88072AD3
:1048B80028BF07223946204600F008FF002651E0AD
:1048C800402287F801223946204600F014FF0026CE
:1048D80048E0B03300EB83035B689B6800222946FD
:1048E8006878984700263DE06F780B2F31D8DFE8CD
:1048F80007F006393030303030303030162690F836
:104908009C32DBB2032B04D0294600F065FB03265A
:1049180028E0022201A900F0D9FE3E4622E090F8E4
:104928009C32DBB2032B04D0294600F055FB03264A
:1049380018E001220DF1070100F0C8FE12E090F81E
:104948009C32DBB2032B0DD0294600F045FB032631
:1049580008E0294600F040FB032603E0294600F062
:104968003BFB0326304603B0F0BD0326FAE738B513
:104978000446812102F0B6FB002525870121204647
:1049880002F0B0FBA4F878518221204602F0AAFB7D
:10499800A4F84C50A4F84E50D4F8D43203F1B00225
:1049A80054F822209AB1B03304EB83035B685B6848
:1049B8009847D4F8D432B03354F8230002F074FB8B
:1049C800D4F8D432B03344F82350C4F8BC52002091
:1049D80038BD70B504464FF4077002F061FB00283B
:1049E80049D005464FF40772002102F009FDD4F8BA
:1049F800D432B03344F82350C4F8BC52237C002B83
:104A080041D14FF4007302228121204602F05FFB5E
:104A1800012626874FF4007302223146204602F011
:104A280056FBA4F878611023A4F84E30082303221B
:104A38008221204602F04BFB0123A4F84C300026CB
:104A4800C5F80462D4F8D432B03304EB83035B684E
:104A58001B689847C5F81462C5F81862D5F804228F
:104A680062B3257C1DBB4FF400730121204602F080
:104A780061FB284670BDD4F8D432B033002244F824
:104A880023200225F5E7402302228121204602F057
:104A98001EFB01262687402302223146204602F0CB
:104AA80016FBA4F878611023A4F84E30BEE7402323
:104AB8000121204602F03EFB0025DAE70225D8E76F
:104AC80039B1D0F8D432B03300EB83004160002014
:104AD800704703207047D0F8D432B03350F82330F1
:104AE8002BB1C3F80812C3F8102200207047032026
:104AF8007047D0F8D432B03350F823301BB1C3F824
:104B08000412002070470320704708B5D0F8D4324B
:104B1800B03350F823208AB1D2F814320BB10120F7
:104B280008BD0123C2F81432D2F81032C362D2F899
:104B38000822812102F0F6FA0020F1E70320EFE7CE
:104B480010B5D0F8D432B03350F8232092B1047C99
:104B580044B94FF40073D2F80422012102F0EAFAB2
:104B6800204610BD4023D2F80422012102F0E2FAC7
:104B78000024F5E70324F3E798B108B503460020BD
:104B8800C3F8B802C3F8C402C3F8D00209B1C3F825
:104B9800B412012183F89C121A70184602F030FAF8
:104BA80008BD0320704710B582B00023ADF8063069
:104BB800B9B10446C0F8B812D0F8D422CB6A43B1D0
:104BC800AE3250F82230DB6A0DF106009847C4F87F
:104BD800D002D4F8D8320133C4F8D832002002B059
:104BE80010BD0320FBE708B502F069FA08BD08B557
:104BF800D0F8B83213B11B68984708BD0020FCE70D
:104C080008B5D0F8B8325B68984700B908BD0320EA
:104C1800FCE738B5044600F2AA25284600F0C8F992
:104C28000123C4F89432B4F8B032C4F8983294F836
:104C3800AA1201F01F03012B07D0022B0AD073B967
:104C48002946204600F08AFB38BD2946204600F058
:104C5800C0FBF9E72946204600F0FDFBF4E701F028
:104C68008001204602F046FAEEE7F8B50446012333
:104C780080F89C320023C0F894324360C0F8A43214
:104C880080F8A032D0F8B832DBB15B68DBB1002124
:104C980098470746C8B9402300221146204602F02B
:104CA80016FA0126A4F864614025C4F860512B4621
:104CB80000228021204602F00AFAA684256238469E
:104CC800F8BD0027E7E70027E5E70327E3E70174D6
:104CD8000020704790F89C32DBB2042B04D090F887
:104CE8009C32DBB280F89D32042380F89C3200208D
:104CF800704790F89C32DBB2042B01D0002070473B
:104D080090F89D32DBB280F89C32F7E708B590F84E
:104D18009C32DBB2032B01D0002008BDD0F8B8329A
:104D2800002BF9D0DB69002BF6D09847F4E708B5DB
:104D3800D0F8D432AE3350F823205AB190F89C32D0
:104D4800DBB2032B01D0002008BD136A23B19847BA
:104D58000020F9E70320F7E70020F5E708B5D0F8C9
:104D6800D432AE3350F823205AB190F89C32DBB2DB
:104D7800032B01D0002008BD536A23B198470020B7
:104D8800F9E70320F7E70020F5E70020704708B5AA
:104D9800012380F89C32D0F8B83223B15B680179DE
:104DA800984710B908BD0020FCE70320FAE7002067
:104DB80070470020704738B504460D46002942D197
:104DC8001346D0F89422032A01D0084638BDD0F8FB
:104DD8005C11D0F86021914209D890F8AA3203F00A
:104DE8001F03012B0ED0022B1BD028460FE0891A77
:104DF800C0F85C118A4228BF0A46194600F08AFCAE
:104E08002846E3E790F8AE12FFF7D1FF20B994F8EF
:104E18009C32DBB2032B09D0204600F083FC2846E5
:104E2800D4E790F8AE12FFF7C4FFEFE700F1AE0346
:104E380054F823301A69002AEED0C4F8D4021B694A
:104E480020469847E8E701F07F01FFF7B2FF90B9E5
:104E580094F89C32DBB2032BB8D100F1AE0354F8BE
:104E680023309A69002AB1D0C4F8D4029B69294634
:104E780020469847AAE70020A8E738B504460D461B
:104E880000294BD11346D0F89422022A07D094F86F
:104E9800A00218B1002384F8A032284638BDC269A0
:104EA800016A8A420ED88A4218D094F89C32DBB242
:104EB800032B27D08021204602F01CF9204600F061
:104EC8003CFCE4E7521AC261194600F00CFC0023CE
:104ED8001A461946204602F02DF9D8E78369994207
:104EE800E3D8D0F898229342DFD20022114600F08E
:104EF800FAFB0021C4F898120B460A46204602F035
:104F080019F9C4E7D4F8B832DA68002AD2D00022F6
:104F1800C4F8D422DB6820469847CBE741F08001EB
:104F2800FFF747FF90B994F89C32DBB2032BB5D159
:104F380000F1AE0354F823305A69002AAED0C4F801
:104F4800D4025B69294620469847A7E70020A5E7D1
:104F58000B88027813440B80037818447047428802
:104F680003789A4218D930B583B004460D46ADF897
:104F780006306388BDF806209A420AD20DF1060170
:104F8800FFF7E6FF4378052BF3D18378AB42F0D1E6
:104F980000E0002003B030BD002070470346002029
:104FA80002E00130C0B201331A78002AF9D1704703
:104FB8000B7803704B7843708B78CA7843EA0223E6
:104FC80043800B794A7943EA022383808B79CA7933
:104FD80043EA0223C380704710B50446802102F0DB
:104FE80089F80021204602F085F810BD30B583B05D
:104FF80004460D460023ADF806304A88130A013BE3
:10500800062B00F2AB80DFE803F0041F33A9A98D5B
:105018009A00D0F8B4321B680DF10601007C98475D
:10502800EA88002A00F0A380BDF80630002B00F0C3
:1050380099809A4228BF1A46ADF8062001462046B4
:1050480000F044FB03B030BD037C43B9D0F8B8325C
:105058009B6A0DF10600984702234370E0E7D0F8F9
:10506800B832DB6A0DF10600984702234370D7E790
:10507800D2B2052A52D8DFE802F003101D2A3744BD
:10508800D0F8B4325B6823B10DF10601007C984773
:10509800C6E72946FFF7A0FFD4E7D0F8B4329B68EB
:1050A80023B10DF10601007C9847B9E72946FFF7BF
:1050B80093FFC7E7D0F8B432DB6823B10DF10601DE
:1050C800007C9847ACE72946FFF786FFBAE7D0F897
:1050D800B4321B6923B10DF10601007C98479FE7A4
:1050E8002946FFF779FFADE7D0F8B4325B6923B101
:1050F8000DF10601007C984792E72946FFF76CFFFF
:10510800A0E7D0F8B4329B6923B10DF10601007C09
:10511800984785E72946FFF75FFF93E72946FFF79A
:105128005BFF8FE7037C33B9D0F8B8325B6B0DF1C6
:105138000600984774E72946FFF74EFF82E7037C8D
:1051480043B9D0F8B8321B6B0DF106009847072316
:10515800437065E72946FFF73FFF73E72946FFF7E6
:105168003BFF6FE729462046FFF736FF6AE72046F0
:1051780000F0D8FA66E738B504468B88FBB9CB88C7
:10518800EBB94B887F2B1AD803F07F0590F89C3237
:10519800DBB2032B0CD080F89E52294601F0BAFFEF
:1051A800204600F0BFFA35B1022384F89C3209E0AA
:1051B800FFF712FF06E0012384F89C3202E0204644
:1051C800FFF70AFF38BD000070B504460E468D781B
:1051D8002F4B1D70012D10D890F89C32DBB2022B9A
:1051E8000FD0032B26D0FFF7F7FE294B197820465E
:1051F800FFF706FD0325284670BDFFF7EDFE0325E2
:10520800F9E7A5B145602946FFF7F1FC054638B135
:1052180031462046FFF7E0FE022384F89C32EAE795
:10522800204600F07FFA032384F89C32E3E700F07D
:1052380079FAE0E7CDB141688D4225D0C9B2FFF7D0
:10524800DFFC134B197861602046FFF7D0FC054658
:10525800B0B131462046FFF7BFFE21792046FFF75F
:10526800CFFC022384F89C32C5E7022380F89C32E5
:1052780045602946FFF7C4FC204600F053FABAE718
:10528800204600F04FFAB6E700F04CFA0025B2E7E6
:105298002102002008B5CB88012B0BD190F89C3255
:1052A800DBB2022B09D9032B11D10122011D00F019
:1052B8000DFA01E0FFF790FE08BD5BB23BB1014675
:1052C800002341F8083F012200F000FAF4E7FFF755
:1052D80083FEF1E708B590F89C32013B022B12D807
:1052E800CB88022B0CD10123C360D0F8A4320BB1B8
:1052F8000323C360022200F10C0100F0E7F908BDA6
:10530800FFF76AFEFBE7FFF767FEF8E708B54B888B
:10531800012B04D0022B07D0FFF75EFE08BDC0F8B2
:10532800A43200F0FFF9F9E78B881B0A80F8A03255
:1053380000F0F8F9F2E708B590F89C32013B022B2F
:1053480009D84B88012B00D008BD0023C0F8A4322F
:1053580000F0E8F9F8E7FFF73FFEF5E738B50C7815
:1053680004F06004202C06D0402C04D06CB1FFF768
:1053780033FE002407E0D0F8D432AE3350F823309F
:105388009B6898470446204638BD4D78092D1DD89E
:10539800DFE805F012191C161C08051C0F0BFFF797
:1053A80025FEF0E7FFF7E7FEEDE7FFF70DFF044600
:1053B800E9E7FFF76FFFE6E7FFF78CFF2C46E2E728
:1053C800FFF7A4FFDFE7FFF7B6FFDCE7FFF704FE10
:1053D800D9E770B505460C460B7803F06003202B1F
:1053E80007D0402B05D023B1FFF7F6FD0026304645
:1053F80070BD95F89C32013B022B26D821790129F2
:1054080005D921462846FFF7E7FD0026EFE728469D
:10541800FFF7CDFC68B900F1AE0255F8222091687B
:1054280089B1C5F8D40293682146284698470646AC
:1054380000E00326E388002BD9D1002ED7D12846D7
:1054480000F070F9D3E70326F4E721462846FFF772
:10545800C3FD0026CBE72DE9F04106460D468B88B3
:10546800DFB20C7804F06004202C08D0402C06D061
:10547800DCB1FFF7B1FD00242046BDE8F0813946D4
:105488003046FFF796FC0446002840F0F880C6F83E
:10549800D40200F1AE0356F823309B68002BEBD002
:1054A8002946304698470446E6E791F80180B8F166
:1054B800010F31D0B8F1030F05D0B8F1000F67D054
:1054C800FFF78AFDD8E790F89C32DBB2022B04D0B4
:1054D800032B12D0FFF780FDCEE70FB1802F04D148
:1054E80029463046FFF778FDC6E7394601F002FE47
:1054F8008021304601F0FEFDBEE74B8823B91FB17D
:10550800802F01D0CB881BB1304600F00BF9B3E7F0
:10551800394601F0EFFDF7E790F89C32DBB2022B39
:1055280004D0032B12D0FFF757FDA5E70FB1802F4A
:1055380004D129463046FFF74FFD9DE7394601F073
:10554800D9FD8021304601F0D5FD95E74B88002B29
:1055580092D117F07F0F17D1304600F0E3F83946A3
:105568003046FFF726FC002886D1C6F8D40200F1A1
:10557800AE0256F822209268002A00F0828029465E
:1055880030469047044677E7394601F0BBFDE3E72C
:1055980090F89C22D2B2022A05D0032A27D0FFF71E
:1055A8001BFD444668E70FB1802F13D113F0800F1D
:1055B80014D107F07F0707EB8707B90001F5A87139
:1055C8003144043100230B600222304600F07EF89B
:1055D800444651E7FFF700FD44464DE707F07F07D3
:1055E80007EB8707B900103131440431EAE75BB2B1
:1055F800002B1FDB07F00F0202EB820200EB820296
:10560800B2F864211AB3002B25DB07F07F0303EB04
:1056180083039C0004F5A874344404340FB1802F2C
:1056280022D10023236002222146304600F04EF8A2
:10563800444621E707F00F0202EB820200EB8202E8
:10564800928C002ADFD1FFF7C7FC444614E7FFF726
:10565800C3FC444610E707F07F0303EB83039C0079
:10566800103434440434D9E73946304601F0FCFCA0
:1056780010B101232360D6E700232360D3E7002479
:10568800FAE60446F8E600B370B50D461646044639
:10569800FFF784FC01304300B3F5007F06D89BB2C6
:1056A80033802B7003236B7002230AE04FF40073DE
:1056B800F6E7EA5401345A1CD2B20021A954023345
:1056C800DBB22278002AF4D170BD704708B51346C2
:1056D8000222C0F894228361C3610A46002101F0C6
:1056E80021FD002008BD08B513460A46002101F037
:1056F80019FD002008BD08B513460322C0F89422FE
:10570800C0F85831C0F85C310A46002101F012FD9A
:10571800002008BD08B513460A46002101F00AFD1D
:10572800002008BD08B50422C0F8942200231A46B8
:10573800194601F0F7FC002008BD08B50522C0F89D
:10574800942200231A46194601F0F4FC002008BDF3
:1057580008B5044B03EB8002526852680344187A78
:10576800904708BD4C020020094B1B5C73B910B56B
:105778000446074B03EB8002526812680344187A08
:10578800904710B9024B01221A5510BD00207047EE
:105798004C02002038B5044C04EB80056D68AD68F8
:1057A8000444207AA84738BD4C02002038B5044C80
:1057B80004EB80056D68ED680444207AA84738BD7D
:1057C8004C02002010B5044B03EB80046468246984
:1057D8000344187AA04710BD4C0200204278007894
:1057E80040EA02207047C378827842EA032243786D
:1057F80043EA0223007840EA032070470170090A4F
:10580800417070470170C1F307234370C1F3074328
:105818008370090EC1707047944632B10A7801311D
:1058280002700130BCF1010CF8D1704701700130F1
:10583800013AFBD1704784469CF800000CF1010C3A
:105848000B780131C01A013A01D00028F4D0704712
:10585800034600E00133187808B18842FAD170474E
:1058680030B400252B4601E001250133012B15D862
:105878001A01174CA258002AF6D00468A242F4D1A3
:10588800134A02EB0312546882689442EDD1104A1D
:1058980002EB0312946842699442E6D1022B0AD0C3
:1058A800A1B90B4A02EB03139B89B3F5807F0BD098
:1058B800002030BC70472DB9022901D01220F8E72A
:1058C8000020F6E70020F4E71020F2E71020F0E7C8
:1058D80024020020002000E00130012804D8030140
:1058E800034AD358002BF7D1023818BF012070475C
:1058F8002402002030B4002300E00133012B13D828
:105908001A01244CA45802689442F6D1214A02EBA9
:105918000312546882689442EFD11E4A02EB0312C4
:10592800946842699442E8D1022B08D009B3194A15
:1059380002EB031292895ABB4FF480721FE00023D6
:10594800012B05D81A01134CA2580AB10133F7E705
:10595800022B1BD00F4D1C0105EB0312D0F800C021
:1059680045F804C0846854604069906000209081C4
:10597800DCE7084A02EB03129289013292B2054928
:1059880001EB03118A81581C30BC70470020FBE7EB
:105998000020F9E7240200200138012815D80D4B12
:1059A80003EB00139B89B3F5807F03D043B1013B20
:1059B8009BB200E00023074A02EB0012938133B93F
:1059C80003010020034AD05070470220704700208E
:1059D800704700BF24020020002302E010BC70477B
:1059E8000133012B11D81A0108498A588242F7D18C
:1059F80010B41A0100248C500133012BEED81A017F
:105A080002498A588242F7D1F3E7704724020020FE
:105A180002394369023B8B4204D94389806A01FBFE
:105A280003007047002070470268C36A0433490ABC
:105A38005289B1FBF2F101E0091A0833186818B16C
:105A48008142F9D258680844704770B506460D4639
:105A580001F11A00FFF7C2FE3378032B00D070BDA6
:105A6800044605F11400FFF7B9FE44EA0040F6E7E2
:105A780070B506460C46154691B204F11A00FFF7B8
:105A8800BDFE3378032B00D070BD290C04F114003F
:105A9800FFF7B4FEF8E700002DE9F84F81468A4683
:105AA8000F6800F1240B0B2220215846FFF7BEFE99
:105AB800002633464FF0080819E001357B5D2F2B8F
:105AC800FBD05C2BF9D02F44CAF80070002E5CD0B4
