:020000040800F2
:1000000000000220DD1A0008F9170008FB1700089D
:10001000FD170008FF170008011800080000000085
:1000200000000000000000000000000003180008AD
:10003000051800080000000007180008091800084B
:100040002D1B00082D1B00082D1B00082D1B000870
:100050002D1B00082D1B00082D1B00082D1B000860
:100060002D1B00082D1B00082D1B00082D1B000850
:100070002D1B00082D1B00082D1B00082D1B000840
:100080002D1B00082D1B00082D1B00082D1B000830
:100090002D1B00082D1B00082D1B00082D1B000820
:1000A0002D1B00082D1B00082D1B00082D1B000810
:1000B0002D1B00082D1B00082D1B00082D1B000800
:1000C0002D1B00082D1B00082D1B00082D1B0008F0
:1000D0002D1B00082D1B0008111800082D1B0008FF
:1000E0002D1B00082D1B00082D1B00082D1B0008D0
:1000F0002D1B00082D1B00082D1B00082D1B0008C0
:100100002D1B0008211800082D1B00082D1B0008BE
:100110002D1B00082D1B0008311800082D1B00089E
:100120002D1B00082D1B00082D1B00082D1B00088F
:100130002D1B00082D1B00082D1B00082D1B00087F
:100140002D1B00082D1B00082D1B0008411800085E
:100150002D1B00082D1B00082D1B00082D1B00085F
:100160002D1B00082D1B00082D1B00082D1B00084F
:100170002D1B00082D1B00082D1B0008000000008F
:080180002D1B00082D1B0008D7
:1001C00081F0004102E000BF83F0004330B54FEA08
:1001D00041044FEA430594EA050F08BF90EA020F75
:1001E0001FBF54EA000C55EA020C7FEA645C7FEA08
:1001F000655C00F0E2804FEA5454D4EB5555B8BF2B
:100200006D420CDD2C4480EA020281EA030382EA9B
:10021000000083EA010180EA020281EA0303362D2D
:1002200088BF30BD11F0004F4FEA01314FF4801C00
:100230004CEA113102D0404261EB410113F0004F12
:100240004FEA03334CEA133302D0524263EB4303C9
:1002500094EA050F00F0A780A4F10104D5F1200E67
:100260000DDB02FA0EFC22FA05F2801841F10001C2
:1002700003FA0EF2801843FA05F359410EE0A5F196
:1002800020050EF1200E012A03FA0EFC28BF4CF0C7
:10029000020C43FA05F3C01851EBE37101F000457D
:1002A00007D54FF0000EDCF1000C7EEB00006EEB8A
:1002B0000101B1F5801F1BD3B1F5001F0CD3490814
:1002C0005FEA30004FEA3C0C04F101044FEA44526B
:1002D00012F5800F80F09A80BCF1004F08BF5FEAF2
:1002E000500C50F1000041EB045141EA050130BDD2
:1002F0005FEA4C0C404141EB0101013C28BFB1F5E4
:10030000801FE9D291F0000F04BF01460020B1FA2E
:1003100081F308BF2033A3F10B03B3F120020CDA01
:100320000C3208DD02F1140CC2F10C0201FA0CF0DF
:1003300021FA02F10CE002F11402D8BFC2F1200C44
:1003400001FA02F120FA0CFCDCBF41EA0C019040FA
:10035000E41AA2BF01EB0451294330BD6FEA040443
:100360001F3C1CDA0C340EDC04F11404C4F120022E
:1003700020FA04F001FA02F340EA030021FA04F340
:1003800045EA030130BDC4F10C04C4F1200220FA97
:1003900002F001FA04F340EA0300294630BD21FAD5
:1003A00004F0294630BD94F0000F83F4801306BF9B
:1003B00081F480110134013D4EE77FEA645C18BF8F
:1003C0007FEA655C29D094EA050F08BF90EA020F26
:1003D00005D054EA000C04BF1946104630BD91EA1E
:1003E000030F1EBF0021002030BD5FEA545C05D121
:1003F0004000494128BF41F0004130BD14F5800460
:100400003CBF01F5801130BD01F0004545F0FE41D3
:1004100041F470014FF0000030BD7FEA645C1ABF08
:10042000194610467FEA655C1CBF0B46024650EA3F
:10043000013406BF52EA033591EA030F41F400216B
:1004400030BD00BF90F0000F04BF0021704730B5F1
:100450004FF4806404F132044FF000054FF00001C6
:1004600050E700BF90F0000F04BF0021704730B587
:100470004FF4806404F1320410F0004548BF40425C
:100480004FF000013EE700BF42004FEAE2014FEAB1
:1004900031014FEA02701FBF12F07F4393F07F4F8C
:1004A00081F06051704732F07F4208BF704793F08F
:1004B0007F4F04BF41F40021704730B54FF46074A2
:1004C00001F0004521F000411CE700BF50EA0102A5
:1004D00008BF704730B54FF000050AE050EA01024E
:1004E00008BF704730B511F0004502D5404261EBBE
:1004F00041014FF4806404F132045FEA915C3FF4FF
:10050000D8AE4FF003025FEADC0C18BF03325FEA9B
:10051000DC0C18BF033202EBDC02C2F1200300FA4C
:1005200003FC20FA02F001FA03FE40EA0E0021FA71
:1005300002F11444BDE600BF80F0004002E000BFBD
:1005400081F0004142001FBF5FEA410392EA030FBE
:100550007FEA226C7FEA236C6AD04FEA1262D2EB08
:100560001363C1BFD218414048404140B8BF5B420D
:10057000192B88BF704710F0004F40F4000020F0A6
:100580007F4018BF404211F0004F41F4000121F0BC
:100590007F4118BF494292EA030F3FD0A2F1010206
:1005A00041FA03FC10EB0C00C3F1200301FA03F144
:1005B00000F0004302D5494260EB4000B0F5000F67
:1005C00013D3B0F1807F06D340084FEA310102F126
:1005D0000102FE2A51D2B1F1004F40EBC25008BFD8
:1005E00020F0010040EA03007047490040EB0000A2
:1005F000013A28BFB0F5000FEDD2B0FA80FCACF1A3
:10060000080CB2EB0C0200FA0CF0AABF00EBC250CF
:1006100052421843BCBFD0401843704792F0000FBD
:1006200081F4000106BF80F400000132013BB5E710
:100630004FEA41037FEA226C18BF7FEA236C21D086
:1006400092EA030F04D092F0000F08BF08467047EB
:1006500090EA010F1CBF0020704712F07F4F04D1B9
:10066000400028BF40F00040704712F100723CBFCC
:1006700000F50000704700F0004343F0FE4040F4F6
:10068000000070477FEA226216BF08467FEA2363B4
:100690000146420206BF5FEA412390EA010F40F49F
:1006A000800070474FF0000304E000BF10F00043EB
:1006B00048BF40425FEA000C08BF704743F09643D2
:1006C00001464FF000001CE050EA010208BF7047ED
:1006D0004FF000030AE000BF50EA010208BF704774
:1006E00011F0004302D5404261EB41015FEA010C89
:1006F00002BF84460146002043F0B64308BFA3F181
:100700008053A3F50003BCFA8CF2083AA3EBC25362
:1007100010DB01FA02FC634400FA02FCC2F1200281
:10072000BCF1004F20FA02F243EB020008BF20F0B8
:100730000100704702F1200201FA02FCC2F120021E
:1007400050EA4C0021FA02F243EB020008BF20EA13
:10075000DC7070474FF0FF0C1CEAD0521EBF1CEA41
:10076000D15392EA0C0F93EA0C0F6FD01A4480EA2F
:10077000010C400218BF5FEA41211ED04FF0006318
:1007800043EA501043EA5111A0FB01310CF0004044
:10079000B1F5000F3EBF490041EAD3715B0040EA6A
:1007A000010062F17F02FD2A1DD8B3F1004F40EB3A
:1007B000C25008BF20F00100704790F0000F0CF00D
:1007C000004C08BF49024CEA502040EA51207F3AD1
:1007D000C2BFD2F1FF0340EAC250704740F40000AC
:1007E0004FF00003013A5DDC12F1190FDCBF00F09D
:1007F00000407047C2F10002410021FA02F1C2F14B
:10080000200200FA02FC5FEA310040F1000053EAE6
:100810004C0308BF20EADC70704792F0000F00F034
:10082000004C02BF400010F4000F013AF9D040EA3A
:100830000C0093F0000F01F0004C02BF490011F4CE
:10084000000F013BF9D041EA0C018FE70CEAD153CC
:1008500092EA0C0F18BF93EA0C0F0AD030F0004C4C
:1008600018BF31F0004CD8D180EA010000F0004000
:10087000704790F0000F17BF90F0004F084691F0BE
:10088000000F91F0004F14D092EA0C0F01D14202F8
:100890000FD193EA0C0F03D14B0218BF084608D1C1
:1008A00080EA010000F0004040F0FE4040F400000B
:1008B000704740F0FE4040F4400070474FF0FF0C9E
:1008C0001CEAD0521EBF1CEAD15392EA0C0F93EAE5
:1008D0000C0F69D0A2EB030280EA010C49024FEA37
:1008E000402037D04FF0805343EA111143EA1013F0
:1008F0000CF000408B4238BF5B0042F17D024FF4A8
:10090000000C8B4224BF5B1A40EA0C00B3EB510F82
:1009100024BFA3EB510340EA5C00B3EB910F24BF6B
:10092000A3EB910340EA9C00B3EBD10F24BFA3EBF0
:10093000D10340EADC001B0118BF5FEA1C1CE0D1B8
:10094000FD2A3FF650AF8B4240EBC25008BF20F06B
:10095000010070470CF0004C4CEA50207F32C2BFBF
:10096000D2F1FF0340EAC250704740F400004FF05C
:100970000003013A37E792F0000F00F0004C02BF8D
:10098000400010F4000F013AF9D040EA0C0093F057
:10099000000F01F0004C02BF490011F4000F013BB1
:1009A000F9D041EA0C0195E70CEAD15392EA0C0F19
:1009B00008D142027FF47DAF93EA0C0F7FF470AF51
:1009C000084676E793EA0C0F04D14B023FF44CAF94
:1009D00008466EE730F0004C18BF31F0004CCAD129
:1009E00030F000427FF45CAF31F000437FF43CAF65
:1009F0005FE700BF7BB972B90029BEBF00204FF08E
:100A0000004106E008BF00281CBF6FF000414FF016
:100A1000FF3000F057B8ADF1080C6DE904CE0029A5
:100A200009DB002B1ADB09F00FFADDF804E0DDE941
:100A3000022304B07047404261EB4101002B1BDBF5
:100A400009F002FADDF804E0DDE9022304B04042D7
:100A500061EB4101524263EB43037047524263EB47
:100A6000430309F0F1F9DDF804E0DDE9022304B005
:100A7000404261EB41017047524263EB430309F08E
:100A8000E3F9DDF804E0DDE9022304B0524263EB50
:100A90004303704753B94AB9002908BF00281CBF57
:100AA0004FF0FF314FF0FF3000F00CB8ADF1080C03
:100AB0006DE904CE09F0C8F9DDF804E0DDE90223B0
:100AC00004B07047704700BF844641EA000313F04A
:100AD00003036DD1403A41D351F8043B40F8043B45
:100AE00051F8043B40F8043B51F8043B40F8043B08
:100AF00051F8043B40F8043B51F8043B40F8043BF8
:100B000051F8043B40F8043B51F8043B40F8043BE7
:100B100051F8043B40F8043B51F8043B40F8043BD7
:100B200051F8043B40F8043B51F8043B40F8043BC7
:100B300051F8043B40F8043B51F8043B40F8043BB7
:100B400051F8043B40F8043B51F8043B40F8043BA7
:100B500051F8043B40F8043B403ABDD2303211D347
:100B600051F8043B40F8043B51F8043B40F8043B87
:100B700051F8043B40F8043B51F8043B40F8043B77
:100B8000103AEDD20C3205D351F8043B40F8043B47
:100B9000043AF9D2043208D0D2071CBF11F8013B45
:100BA00000F8013B01D30B8803806046704700BF0B
:100BB000082A13D38B078DD010F003038AD0C3F11A
:100BC0000403D21ADB071CBF11F8013B00F8013BFC
:100BD00080D331F8023B20F8023B7BE7043AD9D3BB
:100BE000013A11F8013B00F8013BF9D20B78037090
:100BF0004B7843708B78837060467047000000002C
:100C000030B490F800F020F007016FF0000C10F005
:100C1000070491F820F040F048804FF000046FF096
:100C20000700D1E9002391F840F000F1080082FAB2
:100C30004CF2A4FA8CF283FA4CF3A2FA8CF34BBB7D
:100C4000D1E9022382FA4CF200F10800A4FA8CF2F6
:100C500083FA4CF3A2FA8CF3E3B9D1E9042382FAC4
:100C60004CF200F10800A4FA8CF283FA4CF3A2FAD9
:100C70008CF37BB9D1E9062301F1200182FA4CF211
:100C800000F10800A4FA8CF283FA4CF3A2FA8CF378
:100C9000002BC6D0002A04BF04301A4612BAB2FA9A
:100CA00082F200EBD20030BC7047D1E9002304F09F
:100CB0000305C4F100004FEAC50514F0040F91F8D4
:100CC00040F00CFA05F562EA05021CBF63EA050371
:100CD00062464FF00004AAE7000000000000000098
:100CE00001F0FF01102A2BDB10F0070F08D010F8DD
:100CF000013B013A8B422DD010F0070F42B3F6D1E1
:100D0000F0B441EA012141EA014122F007047FF0F9
:100D100000070023F0E80256083C85EA010586EA50
:100D2000010685FA47F5A3FA87F586FA47F6A5FA8C
:100D300087F68EB9EED1F0BC01F0FF0102F0070298
:100D400032B110F8013B013A83EA010313B1F8D143
:100D50000020704701387047002D06BF3546033824
:100D6000073815F0010F07D1013015F4807F02BF5D
:100D7000013015F4C03F0130F0BC0138704700BFAE
:100D800070B54FF0FF0C4CF4E06C1CEA11541DBF21
:100D90001CEA135594EA0C0F95EA0C0F00F0DEF8EC
:100DA0002C4481EA030621EA4C5123EA4C5350EAD1
:100DB000013518BF52EA033541F4801143F4801322
:100DC00038D0A0FB02CE4FF00005E1FB02E506F0B3
:100DD0000042E0FB03E54FF00006E1FB03569CF008
:100DE000000F18BF4EF0010EA4F1FF04B6F5007F0E
:100DF00064F5407404D25FEA4E0E6D4146EB060680
:100E000042EAC62141EA55514FEAC52040EA5E5008
:100E10004FEACE2EB4F1FD0C88BFBCF5E06F1ED8B2
:100E2000BEF1004F08BF5FEA500E50F1000041EBE9
:100E3000045170BD06F0004646EA010140EA020096
:100E400081EA0301B4EB5C04C2BFD4EB0C0541EAB8
:100E5000045170BD41F480114FF0000E013C00F3CD
:100E6000AB8014F1360FDEBF002001F0004170BDF1
:100E7000C4F10004203C35DA0C341BDC04F114040A
:100E8000C4F1200500FA05F320FA04F001FA05F296
:100E900040EA020001F0004221F0004110EBD37063
:100EA00021FA04F642EB06015EEA430E08BF20EA8F
:100EB000D37070BDC4F10C04C4F1200500FA04F332
:100EC00020FA05F001FA04F240EA020001F00041C4
:100ED00010EBD37041F100015EEA430E08BF20EA37
:100EE000D37070BDC4F1200500FA05F24EEA020E7F
:100EF00020FA04F301FA05F243EA020321FA04F0AE
:100F000001F0004121FA04F220EA020000EBD37064
:100F10005EEA430E08BF20EAD37070BD94F0000F64
:100F20000FD101F00046400041EB010111F4801F98
:100F300008BF013CF7D041EA060195F0000F18BF49
:100F4000704703F00046520043EB030313F4801F85
:100F500008BF013DF7D043EA0603704794EA0C0F3F
:100F60000CEA135518BF95EA0C0F0CD050EA410655
:100F700018BF52EA4306D1D181EA030101F00041D2
:100F80004FF0000070BD50EA410606BF10461946FA
:100F900052EA430619D094EA0C0F02D150EA013606
:100FA00013D195EA0C0F05D152EA03361CBF104647
:100FB00019460AD181EA030101F0004141F0FE41E6
:100FC00041F470014FF0000070BD41F0FE4141F46A
:100FD000780170BD70B54FF0FF0C4CF4E06C1CEA6A
:100FE00011541DBF1CEA135594EA0C0F95EA0C0F1F
:100FF00000F0A7F8A4EB050481EA030E52EA0335DA
:101000004FEA013100F088804FEA03334FF08055FA
:1010100045EA131343EA12634FEA022245EA111527
:1010200045EA10654FEA00260EF000419D4208BFD8
:10103000964244F1FD0404F5407402D25B084FEA85
:101040003202B61A65EB03055B084FEA32024FF431
:1010500080104FF4002CB6EB020E75EB030E22BF8E
:10106000B61A754640EA0C005B084FEA3202B6EB4E
:10107000020E75EB030E22BFB61A754640EA5C00FD
:101080005B084FEA3202B6EB020E75EB030E22BF8D
:10109000B61A754640EA9C005B084FEA3202B6EB8E
:1010A000020E75EB030E22BFB61A754640EADC004D
:1010B00055EA060E18D04FEA051545EA16754FEAAF
:1010C00006164FEAC30343EA52734FEAC2025FEACD
:1010D0001C1CC0D111F4801F0BD141EA00014FF05C
:1010E00000004FF0004CB6E711F4801F04BF01432D
:1010F0000020B4F1FD0C88BFBCF5E06F3FF6AFAE49
:10110000B5EB030C04BFB6EB020C5FEA500C50F1D8
:10111000000041EB045170BD0EF0004E4EEA11315B
:1011200014EB5C04C2BFD4EB0C0541EA045170BD62
:1011300041F480114FF0000E013C90E645EA060EA6
:101140008DE60CEA135594EA0C0F08BF95EA0C0FD4
:101150003FF43BAF94EA0C0F0AD150EA01347FF41C
:1011600034AF95EA0C0F7FF425AF104619462CE7F3
:1011700095EA0C0F06D152EA03353FF4FDAE104656
:10118000194622E750EA410618BF52EA43067FF4A7
:10119000C5AE50EA41047FF40DAF52EA43057FF437
:1011A000EBAE12E74FF0FF3C06E000BF4FF0010C42
:1011B00002E000BF4FF0010C4DF804CD4FEA410CA6
:1011C0007FEA6C5C4FEA430C18BF7FEA6C5C1BD073
:1011D00001B050EA410C0CBF52EA430C91EA030FF4
:1011E00002BF90EA020F0020704710F1000F91EA51
:1011F000030F58BF994208BF90422CBFD8176FEA1F
:10120000E37040F0010070474FEA410C7FEA6C5CEC
:1012100002D150EA013C07D14FEA430C7FEA6C5CF3
:10122000D6D152EA033CD3D05DF8040B704700BF1F
:101230008446104662468C461946634600E000BF6D
:1012400001B5FFF7B7FF002848BF10F1000F01BD3F
:101250004DF808EDFFF7F4FF0CBF012000205DF80A
:1012600008FB00BF4DF808EDFFF7EAFF34BF01208F
:1012700000205DF808FB00BF4DF808EDFFF7E0FF28
:1012800094BF012000205DF808FB00BF4DF808ED79
:10129000FFF7CEFF94BF012000205DF808FB00BFE0
:1012A0004DF808EDFFF7C4FF34BF012000205DF8C2
:1012B00008FB00BF4FEA410C7FEA6C5C02D150EAA8
:1012C000013C0AD14FEA430C7FEA6C5C02D152EA3E
:1012D000033C02D14FF0000070474FF0010070470F
:1012E0004FEA410212F5001215D211D56FF478734E
:1012F000B3EB625212D94FEAC12343F0004343EAF1
:10130000505311F0004F23FA02F018BF40427047CB
:101310004FF00000704750EA013005D111F0004055
:1013200008BF6FF0004070474FF00000704700BFEB
:101330000348044B834202D0034B03B11847704764
:10134000D0070020D0070020000000000548064B11
:101350001B1AD90F01EBA301491002D0034B03B1B3
:1013600018477047D0070020D00700200000000079
:1013700010B5064C237843B9FFF7DAFF044B13B1DD
:101380000448AFF300800123237010BDD007002074
:10139000000000005805010808B5054B1BB10549C0
:1013A0000548AFF30080BDE80840FFF7CFBF00BF9E
:1013B00000000000D407002058050108F0B58BB0EC
:1013C00000240594069407940894099400942C4BE7
:1013D0001A6B42F080021A631A6B02F080020092CC
:1013E000009A01941A6B42F001021A631A6B02F020
:1013F00001020192019A02941A6B42F002021A63EE
:101400001A6B02F002020292029A03941A6B42F0E3
:1014100008021A631A6B02F008020392039A0494FA
:101420001A6B42F004021A631B6B03F0040304936B
:10143000049B144F01224FF48051384600F0B2FD56
:10144000114D22464FF40061284600F0ABFD4FF4E9
:10145000805305930126069607940323089305A954
:10146000384600F0A5FC4FF40063059306960794F8
:10147000089405A9284600F09BFC0BB0F0BD00BF06
:101480000038024000040240000C024072B6FEE741
:1014900000B595B03022002108A809F09BFB00237D
:1014A000039304930593069307930193204A116CC9
:1014B00041F080511164126C02F080520192019A45
:1014C00002931C4B1A6842F480421A601B6803F4B2
:1014D00080430293029B012308934FF480330993C6
:1014E00002230E934FF480020F9204221092A8223E
:1014F000119212930723139308A801F095FB98B952
:101500000F23039302230493002305934FF4A05366
:1015100006934FF480530793052103A801F0EEFDD5
:1015200020B915B05DF804FBFFF7B0FFFFF7AEFF81
:10153000003802400070004010B500F01FFBFFF7BC
:10154000A7FFFFF73BFF00F045FA08F013FA00F0A1
:1015500073F804F0BBFE00F0D7F800F021FA00F0B9
:10156000D7F907F087FF07F097FF2F4B1B780A2B5F
:10157000FBD10A2200212D4809F050F92C4CC4E976
:101580000001294B00221A70042008F09BF9206802
:101590006268510141EAD06143011B1A61EB02010B
:1015A000890041EA93719B001B1842EB0102D200B3
:1015B00042EA5372DB00236062601E4802F0B4FF0F
:1015C00007F000FF06E007F041FF08F0CDF8022029
:1015D00000F000FB144B1B78012BF6D1124B0022BC
:1015E0001A70124B1B78012BEDD0022BEDD108F0B5
:1015F0002BF809E00C4B00221A7008F055F808F09F
:10160000B3F8022000F0E6FA07F046FF064B1B781D
:10161000012BEFD1054B1B78FF2BEBD1024B0022A6
:101620001A7008F023F9D0E7781D0020381D00203B
:10163000F8090020CC080020054B064A1A60002259
:101640005A609A60DA601A615A6104229A6170479E
:10165000EC070020002C0140F0B589B00023039373
:1016600004930593069307930268244B9A4201D092
:1016700009B0F0BD0024009403F586335A6C42F49F
:1016800000625A645A6C02F400620092009A01945B
:101690001A6B42F004021A631A6B02F00402019200
:1016A000019A02941A6B42F008021A631B6B03F052
:1016B00008030293029B4FF4885303930227049775
:1016C000032606960C2507950DEB05010C4800F046
:1016D0006FFB0423039304970594069607950DEB7F
:1016E0000501084800F064FB22460121312000F08A
:1016F000D9FA312000F0E6FABAE700BF002C014029
:1017000000080240000C024008B50F480F4B036070
:101710004FF4827343604FF4806383600023C3609F
:10172000036143614FF4007282611822C261036257
:10173000436283620A23C36202F0A8FC00B908BDB9
:10174000FFF7A4FEFBE700BF700800200038004050
:1017500000B589B000230393049305930693079380
:101760000268154B9A4202D009B05DF804FB0021D3
:10177000019103F500331A6C42F480421A641A6C2A
:1017800002F480420192019A02911A6B42F0020225
:101790001A631B6B03F002030293029B4FF4C043D6
:1017A000039302230493032306930523079303A9BA
:1017B000024800F0FDFAD7E700380040000402407C
:1017C00082B0002100910B4B5A6C42F480425A6463
:1017D0005A6C02F480420092009A01911A6C42F015
:1017E00080521A641B6C03F080530193019B02B07A
:1017F000704700BF00380240FEE7FEE7FEE7FEE765
:10180000FEE770477047704708B500F0D1F908BD92
:1018100008B5024803F014FB08BD00BF14090020FE
:1018200008B5024802F058FA08BD00BFEC070020D6
:1018300008B5024802F0C0FE08BD00BFCC08002079
:1018400008B5024800F0E5FE08BD00BF9C2100205D
:101850000120704708B509F05FFB162303604FF0C5
:10186000FF3008BD08B54FF0FF31FFF7F3FFFEE78B
:1018700070B50C461646002506E0AFF30080214601
:1018800001F8010B01350C46B542F6DB304670BD60
:1018900070B50C461646002504E014F8010BAFF3B2
:1018A00000800135B542F8DB304670BD4FF0FF30A7
:1018B00070474FF400534B60002070470120704781
:1018C0000020704710B503460C4A0D490D480068CA
:1018D00040B10C4800680344521A934206D8094AA2
:1018E000136010BD0748084C0460F2E709F014FBD0
:1018F0000C2303604FF0FF30F3E700BF000002202D
:1019000000040000C808002098290020704700004B
:1019100000B583B00023009301930F480F4A026083
:1019200042F2CF02426083600922C260836102F00A
:101930005FFF50B90023009301936946064802F007
:1019400083FF28B903B05DF804FBFFF79FFDF1E7C3
:10195000FFF79CFDF6E700BFCC0800200010004018
:1019600002680E4B9A4200D0704700B583B0002148
:10197000019103F50A331A6C42F010021A641B6CD1
:1019800003F010030193019B0A46362000F08AF908
:10199000362000F097F903B05DF804FB001000401A
:1019A00008B50A480A4B03604FF4165343600023FE
:1019B0008360C36003610C2242618361C36103F0F1
:1019C000B4F800B908BDFFF761FDFBE75C09002032
:1019D0000010014008B50A480A4B03604FF4165343
:1019E000436000238360C36003610C224261836112
:1019F000C36103F09AF800B908BDFFF747FDFBE7A4
:101A0000140900200044004010B58AB0002305935B
:101A1000069307930893099303682B4A934204D0D3
:101A20002A4A934224D00AB010BD00210191284BCC
:101A30005A6C42F010025A645A6C02F01002019281
:101A4000019A02911A6B42F002021A631B6B03F0B7
:101A500002030293029BC0230593022306930323F0
:101A600008930723099305A91A4800F0A1F9DAE7BA
:101A700000240394164B1A6C42F400321A641A6C58
:101A800002F400320392039A04941A6B42F00102AA
:101A90001A631B6B03F001030493049B0C2305934F
:101AA00002230693032308930723099305A90A48F1
:101AB00000F07EF922462146262000F0F3F8262089
:101AC00000F000F9AFE700BF001001400044004003
:101AD000003802400004024000000240DFF834D029
:101AE000FFF714FF0C480D490D4A002302E0D458BB
:101AF000C4500433C4188C42F9D30A4A0A4C002358
:101B000001E013600432A242FBD309F00BFAFFF7A5
:101B100013FD70470000022000000020D0070020C5
:101B20003CB60308D007002094290020FEE70000FF
:101B300010B504460E4B1A784FF47A73B3FBF2F3E8
:101B40000C4A1068B0FBF3F000F0C0F868B90F2C35
:101B500001D901200AE0002221464FF0FF3000F0B9
:101B6000A1F8054B1C60002000E0012010BD00BF63
:101B700004000020000000200800002008B50B4BE6
:101B80001A6842F400721A601A6842F480621A609D
:101B90001A6842F480721A60032000F071F80F2076
:101BA000FFF7C6FFFFF70CFE002008BD003C024017
:101BB000034A1168034B1B780B441360704700BF46
:101BC000A409002004000020014B1868704700BFE2
:101BD000A409002038B50446FFF7F6FF0546B4F126
:101BE000FF3F02D0044B1B781C44FFF7EDFF401B66
:101BF000A042FAD338BD00BF04000020002807DB54
:101C000000F01F02400901239340024A42F82030AD
:101C1000704700BF00E100E0002808DB0901C9B2FD
:101C200000F1604000F5614080F80013704700F05B
:101C30000F000901C9B2014B1954704714ED00E0BF
:101C400000B500F00700C0F1070CBCF1040F28BF7D
:101C50004FF0040C031D062B0FD9C31E4FF0FF3E9F
:101C60000EFA0CF021EA000199400EFA03FE22EA76
:101C70000E0241EA02005DF804FB0023EEE70000DB
:101C8000074AD36823F4E0631B041B0C000200F432
:101C9000E060034343F0BF6343F40033D360704715
:101CA00000ED00E010B50446054BD868C0F30220F3
:101CB000FFF7C6FF01462046FFF7AEFF10BD00BF8D
:101CC00000ED00E008B5FFF799FF08BD0138B0F15D
:101CD000807F0BD24FF0E0235861054AF02182F853
:101CE00023100020986107221A6170470120704775
:101CF00000ED00E070B50446866DFFF765FF94F8CF
:101D00003530DBB2022B06D080236365002384F8D4
:101D10003430012070BD05462268136823F0160395
:101D200013602268536923F080035361236CE3B18D
:101D30002268136823F0080313602268136823F0F5
:101D40000103136023681B6813F0010F11D0FFF724
:101D50003BFF431B052BF5D920236365032084F843
:101D60003500002384F83430D4E7A36C002BDFD196
:101D7000E3E7E26D3F239340B360012384F83530FD
:101D8000002084F83400C5E790F83530DBB2022B30
:101D900003D08023436501207047052380F8353048
:101DA0000268136823F001031360002070470000ED
:101DB00000230F2B00F2EC8030B583B068E085681B
:101DC0004FEA430E032404FA0EF425EA0405CC6816
:101DD00004FA0EF42C438460446824EA02044A683E
:101DE000C2F300129A40224342605FE0DC080834EC
:101DF00050F8242003F00705AD004FF00F0E0EFA47
:101E000005FE22EA0E0E0A69AA4042EA0E0240F8D6
:101E100024205FE0072200E0002202FA0EF22A43AB
:101E200002345C4D45F824205B4A94686FEA0C024A
:101E300024EA0C05D1F804E01EF4801F01D04CEA1E
:101E40000405554CA560E46802EA0405D1F804E0F5
:101E50001EF4001F01D04CEA04054F4CE560646895
:101E600002EA0405D1F804E01EF4003F01D04CEA78
:101E70000405494C6560246822404D6815F4803F94
:101E800001D04CEA0402444C226001330F2B7DD870
:101E900001229A400C6804EA020C32EA0404F4D1EC
:101EA0004C6804F00304013C012C88D94A6802F014
:101EB0000302032A09D0C4685D000322AA4024EA71
:101EC00002048A68AA402243C2604A6802F0030200
:101ED000022A8BD004684FEA430E032202FA0EF264
:101EE00024EA02044A6802F0030202FA0EF22243D4
:101EF00002604A6812F4403FC7D000220192274A8C
:101F0000546C44F480445464526C02F48042019254
:101F1000019A9C08A51C1F4A52F8255003F0030E95
:101F20004FEA8E0E0F2202FA0EF225EA02051C4A33
:101F300090423FF471AF02F5806290421AD002F5F0
:101F40008062904218D002F58062904216D002F56D
:101F50008062904214D002F58062904212D002F565
:101F60008062904210D002F5806290423FF452AFFE
:101F7000082252E7012250E702224EE703224CE7F3
:101F800004224AE7052248E7062246E703B030BDAF
:101F9000704700BF00380140003C0140003802405B
:101FA000000002400AB181617047090481617047F5
:101FB0002DE9F04383B0D0F8008001EBC10300EBC2
:101FC00083039A6A5B6A9A4254D807460C469B1A66
:101FD00001EBC10200EB8202D2699A4200D31A4699
:101FE00002F103094FEA990915E006F103094FEAE6
:101FF0009909BB7904EBC40507EB8505296A0093B1
:10200000B3B2E2B2404603F0DDFE2B6A33442B62EA
:10201000AB6A3344AB6208EB441303F510639B696E
:102020009BB24B4512D304EBC40307EB83039A6ABC
:102030005B6A9A420AD24BB19B1A04EBC40207EBCB
:102040008202D6699E42D0D31E46CEE704EBC4037B
:1020500007EB83077A6ABB6A9A420FD804F00F0431
:102060000122A240D8F8343823EA0203C8F83438F1
:10207000002000E0012003B0BDE8F0830020FAE773
:1020800030B583B000287AD00446056890F89534BE
:10209000C3B1032384F89534B5F1A04F17D020685D
:1020A00003F044FC237C8DF80030231D0ECB206808
:1020B00003F07AFB70B1022384F895340125284699
:1020C00003B030BD80F8943407F06AFDE1E70023E7
:1020D000A371E4E70021206804F08BF8024608B9F8
:1020E000034617E0022384F895340125E7E703EB64
:1020F000C30104EB8101012048750B75CB850020DD
:102100000876C861086203EBC30104EB81014862F1
:102110000133DBB220799842E9D816E002EBC20322
:1021200004EB8303002183F8551283F8542283F8CB
:102130005812C3F85C12C3F8601202EBC20304EB3E
:102140008303C3F864120132D2B29042E6D8237CF2
:102150008DF80030231D0ECB206803F03DFC0546B2
:1021600020B1022384F895340125A8E70023637485
:10217000012384F89534206803F0FAFF9FE70125D6
:102180009DE7036890F89424012A1AD010B50446FC
:10219000012280F89424DA6812F0400F02D0427BCA
:1021A000012A09D0206803F0BBFB206803F0D2FFAE
:1021B000002084F8940410BD9A6B42F480329A6334
:1021C000F0E702207047000070B504460D46006835
:1021D000066C00EB411303F530639A68A17901297D
:1021E00011D038498E4256D03DB905EBC50304EBFA
:1021F0008303D3F86432002B5ED0E9B2204607F0A7
:1022000019FD002070BD12F0080F09D02E498E4232
:10221000F7D912F4004FF4D04FF400429A60F0E77F
:1022200012F0200F02D020229A60EAE712F0280F65
:10223000E7D125498E4206D912F4004F03D04FF45E
:1022400000429A60DDE705EBC50204EB8202D2F89A
:1022500074121B69C3F31203CB1AC2F868327DB93A
:1022600005EBC50204EB8202D2F864226AB105EBE9
:10227000C50204EB8202D2F860121944C2F860125F
:10228000E9B2204607F0D6FCBBE704F29C420121EC
:1022900003F0EEFFF4E712F4004F03D04FF40042D6
:1022A0009A60AEE712F0200F01D020229A60E9B2C6
:1022B000204607F0BFFCA4E704F29C42002103F093
:1022C000D7FF9AE70A31544F0A30544F38B50446C5
:1022D00003681D6C03EB4113D3F8081B0E4A9542AB
:1022E00007D903F5306311F4004F02D04FF40042D8
:1022F0009A60204607F096FC074B9D4202D9A379CD
:10230000012B01D0002038BD04F29C42012120683D
:1023100003F0AEFFF6E700BF0A30544F90F8943454
:10232000012B0CD010B50446012380F8943441747D
:10233000006803F0FFFE002084F8940410BD022022
:10234000704738B505468C4611F0800F2BD101F04F
:102350000F0E0EEBCE04A40004F514740444211DEA
:102360000EEBCE0E00EB8E0E00208EF855020CF018
:102370000F0C81F800C0C2F30A028A600B714A7820
:102380000AB1A1F81AC0022B1CD095F89434012B85
:102390001BD0012385F89434286803F0F8FB002053
:1023A00085F8940438BD01F00F0000EBC0018900EE
:1023B00010312944043100EBC00005EB80000124FA
:1023C0004475D4E700234B71DFE70220EAE710B53C
:1023D00004460A4611F0800F20D101F00F0000EBF7
:1023E000C0039B0003F514732344191D00EBC000C8
:1023F00004EB8000002380F8553202F00F020A70CF
:1024000094F89434012B18D0012384F89434206874
:1024100003F00AFC002084F8940410BD01F00F00C2
:1024200000EBC0039B0010332344191D00EBC000D8
:1024300004EB800001234375DFE70220EDE710B5D0
:10244000144601F00F0C0CEBCC01890001F514715E
:10245000014404310CEBCC0E00EB8E0ECEF8602262
:10246000CEF864320023CEF868328EF855328EF8FA
:1024700054C28279012A04D0006803F0BBFC00201A
:1024800010BDCEF87042F7E701F00F0101EBC1017A
:1024900000EB8100D0F86802704710B5144601F0D7
:1024A0000F0C0CEBCC0189001031014404310CEB12
:1024B000CC0E00EB8E0ECEF82020CEF82430002378
:1024C000CEF8283001238EF815308EF814C08279AA
:1024D0009A4204D0006803F08DFC002010BDCEF8B5
:1024E0003040F7E738B501F00F050279AA4238D33A
:1024F00004460B4611F0800F1FD101EBC10189008A
:1025000001F514710144043103EBC30300EB8303B1
:10251000002283F8552201238B700D7094F89434B7
:10252000012B20D0012384F89434206803F0A7FD08
:1025300085B1002084F8940438BD05EBC5018900FD
:1025400010310144043105EBC50300EB8303012284
:102550005A75E0E704F29C42A179206803F088FEF6
:10256000E7E70120E8E70220E6E701F00F03027940
:102570009A4230D310B5044611F0800F1ED103EB00
:10258000C301890001F514710144043103EBC30256
:1025900000EB8202002082F8550200228A700B7044
:1025A00094F89434012B18D0012384F894342068D3
:1025B00003F092FD002084F8940410BD03EBC301E6
:1025C000890010310144043103EBC30200EB8202A5
:1025D00001205075E1E7012070470220EDE708B5C2
:1025E00011F0800F0CD101F00F0101EBC101890046
:1025F00001F5147101440431006803F085FB08BD46
:1026000001F00F0101EBC1018900103101440431D7
:10261000F2E72DE9F04F83B004460568284603F041
:10262000E4FD10B103B0BDE8F08F0646206803F06A
:10263000ADFD0028F6D005F50067BB68C3F30D2398
:10264000C4F8D434206803F0A1FD10F0020F04D0C8
:102650002268536903F002035361206803F096FD7A
:1026600010F0100F15D02268936923F010039361C6
:10267000D5F8208008F00F0908F4F013B3F5802F87
:102680004CD0B3F5402F6FD02268936943F010030C
:102690009361206803F07AFD10F4002F76D1206852
:1026A00003F074FD10F4802F40F0E080206803F008
:1026B0006DFD0028C0F26181206803F067FD10F411
:1026C000006F09D0BB6813F0010F40F06E812268E3
:1026D000536903F400635361206803F057FD10F45D
:1026E000805F40F06681206803F050FD10F4005FC9
:1026F00040F0B381206803F049FD10F0080F40F06E
:10270000C481206803F042FD10F0800F00F0D781F3
:10271000AB6923F08003AB610126C0E147F6F0739B
:1027200018EA030FB0D04FEA181A4FEAC903019311
:1027300009EBC90B04EB8B0BC8F30A12DBF8601230
:10274000284603F079FCDBF86032CAF30A0A5344E6
:10275000CBF86032DBF86832019A4A4404EB82021B
:102760005344C2F868328FE7082204F29C4128469D
:1027700003F062FC09EBC90304EB8303D3F868227E
:10278000C8F30A184244C3F868227DE7206803F0C2
:1027900001FD8046B14635E005EB49130122C3F83F
:1027A000082B49462046FFF70FFD3CE005EB491397
:1027B0000822C3F8082B49462046FFF787FD35E07D
:1027C00009EBC90304EB830393F85732012B41D083
:1027D00005EB49130222C3F8082B1AF0200F04D08E
:1027E00005EB49132022C3F8082B1AF4005F05D02B
:1027F00005EB49134FF40052C3F8082B09F1010906
:102800004FEA5808B8F1000F3FF449AF18F0010F34
:10281000F4D05FFA89FB5946206803F0CBFC82466E
:1028200010F0010FB8D11AF0080FBFD11AF0100F35
:1028300004D005EB49131022C3F8082B1AF0020F3D
:10284000CBD06B6913F0800FBAD07B6843F4806300
:102850007B60B5E709EBC90304EB8303002283F82F
:1028600057225946204607F035FAB1E7206803F0B1
:1028700099FC8046B14625E05946204607F0E6F926
:102880001AF0080F04D005EB49130822C3F80829F1
:102890001AF0100F04D005EB49131022C3F80829D1
:1028A0001AF0400F04D005EB49134022C3F8082961
:1028B0001AF0020F40D11AF0800F59D109F1010925
:1028C0004FEA5808B8F1000F3FF4F0AE18F0010FCE
:1028D000F4D05FFA89FB5946206803F074FC824605
:1028E00010F0010FCCD009F00F02012101FA02F221
:1028F0007B6B23EA02037B6305EB4913C3F80819DA
:10290000A3798B42B8D109EBC90304EB83031A6A9C
:10291000D9690A441A62B9F1000FADD109EBC903B4
:1029200004EB83035B6A002BA6D104F29C420121D5
:10293000206803F09DFC9FE74946284602F0FCFF13
:1029400009EBC90304EB8303DB7D012B05D005EB09
:1029500049130222C3F80829ADE709EBC90304EBC8
:1029600083030022DA755946204607F0B9F9EEE7ED
:1029700049462046FFF71CFBA0E77B6823F00103D4
:102980007B6094F8CC34012B08D0204607F09CF9EA
:102990002268536903F0004353618DE6002184F8F7
:1029A000CC14204600F03EF9F2E7204607F074F917
:1029B0008DE67B6823F001037B601021206802F024
:1029C000BBFF1AE005EB46134FF67F31C3F8081939
:1029D000D3F8002922F40012C3F80029C3F8081B19
:1029E000D3F8002B22F40012C3F8002BD3F8002BED
:1029F00042F00062C3F8002B01362379B342E1D8DC
:102A0000FB6943F00113FB61E37BDBB1D7F8843052
:102A100043F00B03C7F884307B6C43F00B037B64FB
:102A2000D5F8003823F4FE63C5F8003804F29C4260
:102A3000A179206803F01CFC2268536903F48053D9
:102A4000536150E67B6943F4005343F02B037B61F1
:102A50003B6943F00B033B61E2E7206803F0FAFBBC
:102A6000206803F083F8E071266800F0F7FB014668
:102A7000E279304602F0E2FE204607F0F8F82268DC
:102A8000536903F40053536134E6204607F0E9F834
:102A90002268536903F00803536132E60136237953
:102AA000B3420CD906EBC60304EB830393F8573209
:102AB000012BF3D1F1B22046FFF791FDEEE720683C
:102AC00003F064FB10F4801F25D1206803F05EFB47
:102AD00010F4001F59D0012326E001362379B342B8
:102AE0001BD905EB4613D3F8002906EBC60304EB0C
:102AF00083031B7E012BF0D1002AEEDA06EBC6031E
:102B000004EB83030122DA7566F07F01C9B2204627
:102B1000FFF765FDE1E70126E0E72268536903F46A
:102B200080135361D1E7013322799A4228D905EB0A
:102B30004312D2F8001B03EBC30204EB820292F8AB
:102B40005822012AEFD10029EDDA01F48031D4F8BE
:102B5000D42402F001029142E5D103EBC30204EB5D
:102B60008202012182F85712AA6942F08002AA610A
:102B70006A6912F0800FD6D17B6843F400737B60E2
:102B80002268536903F400135361206803F0FEFACE
:102B900010F0804F10D1206803F0F8FA10F0040F05
:102BA0003FF440AD23685D6815F0040F0DD1226835
:102BB00053682B43536035E5204607F097F82268A9
:102BC000536903F080435361E5E7204607F094F82A
:102BD000EDE710B40468606A29B940EA0240A062D7
:102BE000002010BC70478C46A36A00EB1340002302
:102BF00008E003F1400104EB8101496800EB11405A
:102C00000133DBB20CF1FF318B42F2D340EA0240D8
:102C10000CF13F0104EB81046060E1E70368596255
:102C20000020704770470000002800F0E08170B578
:102C300082B00446036813F0010F3BD09F4B9B68A2
:102C400003F00C03042B2CD09C4B9B6803F00C036B
:102C5000082B21D06368B3F5803F4FD0B3F5A02F88
:102C600052D0964B1A6822F480321A601A6822F405
:102C700080221A606368002B50D0FEF7A5FF05463E
:102C80008E4B1B6813F4003F14D1FEF79DFF401BD1
:102C90006428F5D90320B1E1884B5B6813F4800FF9
:102CA000D8D0864B1B6813F4003F03D06368002B19
:102CB00000F09F81236813F0020F54D07F4B9B6874
:102CC00013F00C0F3ED07D4B9B6803F00C03082BD8
:102CD00033D0E368002B68D0794B01221A60FEF7ED
:102CE00073FF0546754B1B6813F0020F54D1FEF7B6
:102CF0006BFF401B0228F5D903207FE16F4A136860
:102D000043F480331360B5E76C4B1A6842F48022B9
:102D10001A601A6842F480321A60ABE7FEF754FF7B
:102D20000546664B1B6813F4003FC3D0FEF74CFF0B
:102D3000401B6428F5D9032060E1604B5B6813F405
:102D4000800FC6D15D4B1B6813F0020F03D0E36800
:102D5000012B40F05081594A136823F0F803216990
:102D600043EAC1031360236813F0080F42D063697C
:102D70006BB3534B0122C3F8802EFEF725FF0546A7
:102D80004E4B5B6F13F0020F34D1FEF71DFF401B5B
:102D90000228F5D9032031E1484A136823F0F803EB
:102DA000216943EAC1031360DDE7454B00221A6045
:102DB000FEF70AFF0546414B1B6813F0020FD2D005
:102DC000FEF702FF401B0228F5D9032016E13C4B19
:102DD0000022C3F8802EFEF7F7FE0546374B5B6FE7
:102DE00013F0020F06D0FEF7EFFE401B0228F5D9C4
:102DF000032003E1236813F0040F77D02F4B1B6CE3
:102E000013F0805F33D1002301932C4B1A6C42F0F6
:102E100080521A641B6C03F080530193019B0125BF
:102E2000284B1B6813F4807F23D0A368012B34D078
:102E3000052B38D0214B1A6F22F001021A671A6F46
:102E400022F004021A67A368002B3DD0FEF7BCFEF7
:102E500006461A4B1B6F13F0020F46D1FEF7B4FE65
:102E6000801B41F288339842F3D90320C6E0002545
:102E7000D6E7144A136843F480731360FEF7A4FE88
:102E80000646104B1B6813F4807FCED1FEF79CFEE4
:102E9000801B0228F5D90320B0E0084A136F43F0E5
:102EA00001031367CFE7054B1A6F42F004021A675C
:102EB0001A6F42F001021A67C5E700BF00380240EE
:102EC0000000474200700040FEF77EFE0646524B6F
:102ED0001B6F13F0020F08D0FEF776FE801B41F245
:102EE00088339842F3D9032088E0EDB9A369002B19
:102EF00000F08380484A926802F00C02082A51D000
:102F0000022B17D0454B00221A66FEF75DFE0446E1
:102F1000414B1B6813F0007F42D0FEF755FE001BAB
:102F20000228F5D9032069E03B4A136C23F0805353
:102F30001364DBE7394B00221A66FEF745FE0546AF
:102F4000354B1B6813F0007F06D0FEF73DFE401B9B
:102F50000228F5D9032051E0E369226A1343626A2B
:102F600043EA8213A26A5208013A43EA0243E26A40
:102F700043EA0263284A5360284B01221A66FEF78F
:102F800023FE0446244B1B6813F0007F06D1FEF796
:102F90001BFE001B0228F5D903202FE000202DE0A6
:102FA00000202BE0012B2BD01B4B5B6803F480012E
:102FB000E269914226D103F03F02216A8A4223D17D
:102FC000616A47F6C0721A40B2EB811F1ED103F44A
:102FD0004031A26A5208013AB1EB024F18D103F016
:102FE0007063E26AB3EB026F14D1002006E00120A7
:102FF0007047012002E0012000E0002002B070BD17
:103000000120FBE70120F9E70120F7E70120F5E7C0
:103010000120F3E70120F1E70038024000004742B9
:1030200008B5334B9B6803F00C03042B5BD0082BD3
:103030005BD12F4B5A6802F03F025B6813F4800F9C
:103040002CD02B4B5868C0F388104FEA401CBCEBC7
:10305000000C6EEB0E0E4FEA8E1343EA9C634FEAB0
:103060008C11B1EB0C0163EB0E03DB0043EA5173EF
:10307000C90011EB000C43F10003590200234FEA91
:103080004C2041EADC51FDF705FD194B5B68C3F3A9
:10309000014301335B00B0FBF3F008BD144B5868EB
:1030A000C0F388104FEA401CBCEB000C6EEB0E0E18
:1030B0004FEA8E1343EA9C634FEA8C11B1EB0C018B
:1030C00063EB0E03DB0043EA5173C90011EB000C04
:1030D00043F10003990200234FEA8C2041EA9C51FE
:1030E000FDF7D8FCD1E70348D7E70348D5E700BF91
:1030F0000038024000127A000024F400002800F09A
:103100009B8070B50D4604464F4B1B6803F00703C8
:103110008B4208D2CBB24C4A1370136803F00703FA
:103120008B4240F08B80236813F0020F17D013F00E
:10313000040F04D0454A936843F4E0539360236836
:1031400013F0080F04D0414A936843F4604393603E
:103150003E4A936823F0F003A1680B439360236811
:1031600013F0010F32D06368012B21D09A1E012A7F
:1031700025D9364A126812F0020F61D033498A68A5
:1031800022F0030213438B60FEF71EFD06462F4B11
:103190009B6803F00C036268B3EB820F16D0FEF756
:1031A00013FD801B41F288339842F0D9032042E09E
:1031B000264A126812F4003FE0D101203BE0234A86
:1031C000126812F0007FD9D1012034E01E4B1B6839
:1031D00003F00703AB4207D9EAB21B4B1A701B6816
:1031E00003F00703AB422DD1236813F0040F06D080
:1031F000164A936823F4E053E1680B439360236815
:1032000013F0080F07D0114A936823F46043216933
:1032100043EAC1039360FFF703FF0C4B9B68C3F3C2
:1032200003130B4AD35CD8400A4B18600A4B18684A
:10323000FEF77EFC002070BD012070470120FAE7F8
:103240000120F8E70120F6E7003C02400038024088
:10325000780501080000002008000020014B1868D4
:10326000704700BF0000002008B5FFF7F7FF044BD0
:103270009B68C3F38223034AD35CD84008BD00BFD8
:10328000003802407005010808B5FFF7E7FF044B5E
:103290009B68C3F34233034AD35CD84008BD00BFE8
:1032A000003802407005010870B582B00446002362
:1032B0000193006801F073FF054610B1284602B083
:1032C00070BD206802F034FA38B90123A364A36CFE
:1032D000012B0BD02E46284614E00023A36420685F
:1032E00001F05DFF0028F2D00546E7E700212068E5
:1032F00002F0BCF80028EDD04FF08055DEE7019BCE
:1033000001330193019A4FF6FE739A4213D896B98E
:103310000021206802F0AAF8E0B91249206802F002
:1033200053F90646C0B90021206801F023FFC30FFE
:10333000E5D01E46E3E7019A4FF6FE739A420ED897
:1033400010F0804302D001236364B7E70022626477
:103350001D46B3E70546B1E74FF08055AEE74FF0A5
:103360008075ABE7000010C1F8B5846AC66AA6B9DB
:10337000F8BD386801F0DBFE2070C0F307236370EE
:10338000C0F30743A370000EE0700434043E01351F
:10339000072DEED9BC62FE62EAE707460025F7E793
:1033A000F0B583B0046A466ADEB903B0F0BD237895
:1033B0000193627843EA02230193A27843EA02432D
:1033C0000193E27843EA026301930434043E01A9C5
:1033D000386801F0AFFE0135072DE8D93C627E6206
:1033E000E3E707460025F7E770B581B104460E46CE
:1033F000016D0904006802F051F8054608B128463D
:1034000070BD0021206801F0B5FE3060F7E74FF095
:103410000065F4E72DE9F04F87B005460C461646E7
:103420009B46DDF840A0FEF7CFFB002C36D081464E
:1034300095F83470FFB2012F40F009810023AB638F
:1034400006EB0B03EA6D93422ED8032385F8343044
:103450002B680022DA626B6C012B00D076024FF0F1
:10346000FF3300934FEA4B230193902302930223EF
:10347000039300230493012305936946286801F010
:103480007CFEBBF1010F14D902232B63314628685F
:1034900001F072FFA0B9DDF8048038E0AB6B43F0B7
:1034A0000063AB630127D7E0AB6B43F00073AB6302
:1034B000D2E001232B633146286801F045FFE9E79C
:1034C0002B68674A9A63AB6B0343AB63012385F8B0
:1034D000343000232B63BFE0286801F028FE207001
:1034E000C0F307236370C0F30743A370000EE070BE
:1034F0000434A8F104080136072EEDD9FEF764FB69
:10350000A0EB0900504510D2BAF1000F0DD0286889
:10351000466B40F22A331E4015D1436B13F4004F23
:10352000ECD0B8F1000FE9D0E6E72B684C4A9A637B
:10353000AB6B43F00043AB63012385F834300023C9
:103540002B63032788E0436B13F4807F05D0BBF126
:10355000010F02D96B6C032B3CD12B685A6B12F014
:10356000080F48D15A6B12F4007F44D15A6B12F005
:10357000020F4CD15A6B12F0200F54D12868436BC4
:1035800013F4001F5BD0B8F1000F58D001F0CFFD4D
:103590002070C0F307236370C0F30743A370000ECD
:1035A000E0700434A8F10408FEF70EFBA0EB09005C
:1035B000504502D2BAF1000FE0D12B68284A9A6335
:1035C000AB6B43F00043AB63012385F83430002339
:1035D0002B6341E001F018FF03460028BDD02A68A4
:1035E0001F499163AA6B1343AB63012385F8343001
:1035F00000232B6330E01A4A9A63AB6B43F0080355
:10360000AB63012385F8343000232B6324E0144A94
:103610009A63AB6B43F00203AB63012385F834304C
:1036200000232B6318E00E4A9A63AB6B43F0200330
:10363000AB63012385F8343000232B630CE040F2A8
:103640003A538363012385F83430002704E0AB6BE1
:1036500043F00053AB630127384607B0BDE8F08F55
:10366000FF0540002DE9F04F8BB005460C4616468D
:103670009B46DDF850A0FEF7A7FA002C37D0804615
:1036800095F83470FFB2012F40F0E6800023AB6361
:1036900006EB0B03EA6D93422FD8032385F83430F1
:1036A0002B680022DA626B6C012B00D076024FF09F
:1036B000FF3304934FEA4B23059390230693002393
:1036C000079308930123099304A9286801F055FD85
:1036D000BBF1010F16D920232B633146286801F076
:1036E0007BFE0190019BABB9DDF8149040E0AB6B21
:1036F00043F00063AB630127B3E0AB6B43F00073AF
:10370000AB63AEE010232B633146286801F04CFE1A
:103710000190E7E72B68554A9A63AB6B019A134314
:10372000AB63012385F8343000232B6399E02378C1
:103730000393627843EA02230393A27843EA0243A5
:103740000393E27843EA026303930434A9F1040982
:1037500003A9286801F0EEFC0136072EE7D9FEF731
:1037600033FAA0EB0800504510D2BAF1000F0DD08B
:103770002868466B40F21A331E4015D1436B13F490
:10378000804FECD0B9F1000FE9D0E6E72B68374A5B
:103790009A63AB6B019A1343AB63012385F8343012
:1037A00000232B6303275CE0436B13F4807F05D079
:1037B000BBF1010F02D96B6C032B1CD12B685A6B28
:1037C00012F0080F28D15A6B12F4007F24D15A6BE3
:1037D00012F0020F2CD15A6B12F0100F34D0234A82
:1037E0009A63AB6B43F01003AB63012385F834306D
:1037F00000232B6335E001F007FE03460028DDD0EF
:103800002A681A499163AA6B1343AB63012385F8B5
:10381000343000232B6324E0144A9A63AB6B43F0EB
:103820000803AB63012385F8343000232B6318E0D1
:103830000E4A9A63AB6B43F00203AB63012385F836
:10384000343000232B630CE040F23A529A63012398
:1038500085F83430002704E0AB6B43F00053AB63D2
:10386000012738460BB0BDE8F08F00BFFF054000D0
:10387000704700000346426E920F0A70426EC2F318
:1038800083624A7090F8672002F003028A7090F811
:103890006620CA7090F865200A7190F864204A7119
:1038A000826E120DCA80B0F86A2002F00F020A720E
:1038B000826EC2F3C0324A72826EC2F380328A7262
:1038C000826EC2F34032CA72826EC2F300320A7351
:1038D00000224A73426C002A40F08680806E40F6D7
:1038E000FC7202EA8002D86E42EA90720A61DA6ED5
:1038F000C2F3C2620A7593F86F2002F007024A759C
:10390000DA6EC2F342528A75DA6EC2F38242CA7527
:10391000DA6EC2F3C2320A760A6901325A65087E4B
:1039200000F00700023082405A6591F808C00CF0A0
:103930000F0C012000FA0CF09865400A00FB02F21F
:10394000DA654FF400721A66DA6EC2F380324A7694
:10395000DA6EC2F3C6128A76DA6E02F07F02CA7697
:103960001A6FD20F0A771A6FC2F341724A771A6F31
:10397000C2F382628A771A6FC2F38352CA771A6FD0
:10398000C2F3405281F82020002081F82100B3F8D2
:10399000722002F0010281F822201A6FC2F3C032B5
:1039A00081F823201A6FC2F3803281F824201A6F25
:1039B000C2F3403281F825201A6FC2F3003281F839
:1039C00026201A6FC2F3812281F827201A6FC2F3D2
:1039D000012281F828201B6FC3F3460381F82930A8
:1039E000012381F82A307047012A11D1826E120416
:1039F00002F47C12B0F86E0002430A610A690132D7
:103A000092025A65DA654FF400729A651A669BE76E
:103A1000026805499163826B42F080528263012003
:103A200083F83400704700BFFF05400070B590B0C8
:103A300004460123ADF81230006801F084FB002831
:103A40006CD0636C032B45D1636C032B5DD1636C2D
:103A5000032B1DD0BDF8121021650904206801F068
:103A600078FD054600285BD10021206801F082FB2B
:103A700060660421206801F07DFBA06608212068B3
:103A800001F078FBE0660C21206801F073FB2067F1
:103A90000421206801F06EFB000DE06405A92046BA
:103AA000FFF7E8FE00283ED1226D120400232068B3
:103AB00001F0C4FC054698BB234653F8106B93E80D
:103AC00007008DE80700043494E80E00304601F04A
:103AD00015FB25E0206801F027FD054600BB00210D
:103AE000206801F047FB60670421206801F042FB79
:103AF000A0670821206801F03DFBE0670C212068E9
:103B000001F038FBC4F880009EE70DF11201206837
:103B100001F0C4FD0546002899D001E04FF0806512
:103B2000284610B070BD4FF08055F9E770B58AB0E7
:103B30000446002304930593069307930893762382
:103B400009930AAB13E907008DE8070004AB0ECB1D
:103B5000206801F0D3FA18B1012528460AB070BDDB
:103B600005461A4E0023C6F8A030206801F0E7FA97
:103B70000123C6F8A0300220FEF72CF82046FFF7FC
:103B800093FB30B1012584F83450A36B0343A36346
:103B9000E3E72046FFF74AFF30B1012584F83450AF
:103BA000A36B0343A363D8E74FF40071206801F0CF
:103BB000B3FB0028D1D0236805499963A36B034365
:103BC000A363012584F83450C7E700BF0080254275
:103BD000FF054000A8B110B5044690F8343063B139
:103BE000032384F834302046FFF7A0FF58B9A063C0
:103BF0002063012384F8343010BD0377FDF72CFDDA
:103C0000EEE7012070470120F6E7436C0B60836C00
:103C10004B60C36C8B60036DCB60436D0B61836D38
:103C20004B61C36D8B61036ECB610020704710B593
:103C300082B004460023019301A9FFF7D5FB10B120
:103C4000A36B0343A3630198C0F3432002B010BDEC
:103C500010B5846B236840F23A529A632046FFF70E
:103C6000E6FF012384F8343000232363053801285C
:103C700005D9A36B53B9204602F06BFB10BD206839
:103C800001F0C2FBA36B0343A363F2E72046FFF7F7
:103C9000EFFDF3E710B5846B236840F23A529A6364
:103CA0002046FFF7C4FF012384F834300023236348
:103CB0000538012805D9A36B53B9204602F049FB0A
:103CC00010BD206801F0A0FBA36B0343A363F2E7E0
:103CD0002046FFF7CDFDF3E738B50446056B0368D2
:103CE0005A6B12F4004F02D015F0080F28D15A6B0E
:103CF00012F4807F5AD04FF480729A632268D36B9B
:103D000023F4434323F03A03D3632268D36A23F0B6
:103D10000103D36215F0080F26D015F0220F12D13F
:103D2000236840F23A529A63012384F83430002326
:103D3000236315F0030F13D0204602F014FB01E0BB
:103D4000FFF712FB38BD206801F05EFB0346002838
:103D5000E6D0A26B1343A3632046FFF789FDDFE79C
:103D6000204602F0FBFAEDE715F0800FEAD015F0DF
:103D7000200F0ED115F0030FE4D12268D36A23F08F
:103D80000803D362012384F83430204602F0E6FAB7
:103D9000D8E7206801F038FB03460028EAD0A26B80
:103DA0001343A3632046FFF763FDE3E75A6B12F466
:103DB000804F02D015F0080F55D1596B40F23A22CE
:103DC0001142BFD05A6B12F0020F03D0A26B42F027
:103DD0000202A2635A6B12F0080F03D0A26B42F0EA
:103DE0000802A2635A6B12F0200F03D0A26B42F0BC
:103DF0002002A2635A6B12F0100F03D0A26B42F0A4
:103E00001002A2635A6B12F4007F03D0A26B42F03F
:103E10000802A26340F23A729A632268D36B23F4D9
:103E20004E7323F00203D363206801F0EDFAA36B15
:103E30000343A36315F0080F19D115F0800F81D04B
:103E400015F0300F1CD115F0030F26D0236C184A43
:103E50001A65206CFDF798FF00283FF473AF206CC3
:103E6000FFF718FF6EE72046FFF79AFA6AE701238B
:103E700084F83430002323632046FFF7F9FC61E720
:103E8000E36B0C4A1A65E06BFDF77EFF00283FF4F8
:103E900059AFE06BFFF7DCFE54E70023A363012278
:103EA00084F834202363204602F053FA4AE700BF27
:103EB000953C0008513C00082DE9F04782B00546CA
:103EC000884617461E46FDF77FFE0A9B1B1A03EB2A
:103ED0000609FDF779FE8246284B1B68C3F3CB33F6
:103EE00009FB03F301932B689C6838EA04040CBFB8
:103EF00001230023BB423DD0B6F1FF3FF3D0FDF7D5
:103F000063FEA0EB0A00484507D2019A02B14A4677
:103F1000019B013B01939146E5E72A68536823F032
:103F2000E00353606B68B3F5827F0BD0AB6AB3F5E7
:103F3000005F14D0012385F85130002385F85030FC
:103F4000032018E0AB68B3F5004F02D0B3F5806FE3
:103F5000ECD12A68136823F040031360E6E72A686F
:103F6000136823F4005313602A68136843F4005362
:103F70001360DFE7002002B0BDE8F08700000020FA
:103F800070B584B004460D46164600920B460122D9
:103F90000221FFF791FFD0B9174B1B68174AA2FB0C
:103FA00003235B0D4FF47A7202FB03F30393636800
:103FB000B3F5827F11D0039B3BB1039B013B03937D
:103FC00023689B6813F0800FF5D104B070BD636D5A
:103FD00043F0200363650320F7E700962B46002299
:103FE00080212046FFF768FF0028EED0636D43F084
:103FF000200363650320E8E700000020819F5E1630
:1040000010B582B004460B464168B1F5827F14D0EA
:104010006168B1F5827F2AD1A168B1F5806F19D0AE
:104020000092002280212046FFF746FF30B3636DE7
:1040300043F020036365032020E08168B1F5004F61
:1040400002D0B1F5806FE3D12068016821F0400112
:104050000160DDE70092002201212046FFF72CFFDE
:1040600060B1636D43F020036365032006E00092B6
:10407000002201212046FFF71FFF08B902B010BD42
:10408000636D43F0200363650320F7E700285AD0EF
:1040900010B50446436A33B94368B3F5827F05D04F
:1040A0000023C36102E00023036143610023A36294
:1040B00094F85130002B40D0022384F8513022680C
:1040C000136823F040031360636803F48273A268EB
:1040D00002F404421343E26802F4006213432269CB
:1040E00002F002021343626902F001021343A26963
:1040F00002F400721343E26902F038021343226AA9
:1041000002F080021343A26A02F4005221681343B2
:104110000B60638B03F00403626A02F010022168F3
:1041200013434B602268D36923F40063D3610020FA
:104130006065012384F8513010BD84F8503020466A
:10414000FDF706FBB8E7012070472DE9F04383B087
:104150000446884691461F460A9DFDF735FD0646F2
:1041600094F85130DBB26268012B0AD0B2F5827F3D
:1041700040F00581A268002A40F00581042B40F040
:104180000481B8F1000F00F00281B9F1000F00F0D6
:104190000081002F00F0FF8094F85030012B00F0D8
:1041A000FC80012384F8503094F85130DBB2042BAA
:1041B00002D0052384F8513000236365C4F8389099
:1041C000E787A787C4F83080E786A78623646364FF
:1041D00023681A6812F0400F03D11A6842F04002B7
:1041E0001A60E368B3F5006F11D063680BB1012F5B
:1041F0000BD1226B236812781A73236B013323636C
:10420000E38E9BB2013B9BB2E386012771E06368BA
:104210000BB1012F0BD1226B23681288DA60236B5C
:1042200002332363E38E9BB2013B9BB2E3860127FB
:104230001BE023689A6812F0010F0ED0E28F92B251
:104240005AB1DA68A36B1A80A36B0233A363E38FBE
:104250009BB2013B9BB2E3870127FDF7B5FC801BB6
:10426000A84202D3B5F1FF3F1ED1E38E9BB21BB92A
:10427000E38F9BB2002B62D023689A6812F0020F82
:10428000D7D0E28E92B2002AD3D0002FD1D0226BA9
:104290001288DA60236B02332363E38E9BB2013B07
:1042A0009BB2E3860027C4E7012384F85130002342
:1042B00084F85030032063E023689A6812F0010FFD
:1042C0000ED0E28F92B25AB1DA68A36B1A70A36B68
:1042D0000133A363E38F9BB2013B9BB2E3870127CA
:1042E000FDF772FC831BAB4202D3B5F1FF3F1ED139
:1042F000EDB1E38E9BB213B9E38F9BB2FBB12368A0
:104300009A6812F0020FD7D0E28E92B2002AD3D070
:10431000002FD1D0226B12781A73236B01332363E1
:10432000E38E9BB2013B9BB2E3860027C4E70123E7
:1043300084F85130002384F85030032020E03246C6
:1043400029462046FFF71CFE90B9A36833B90193B4
:104350002368DA6801929B680193019B012384F82A
:104360005130002384F85030636D4BB1012007E0D9
:1043700020236365002384F85030012000E00220F0
:1043800003B0BDE8F0830220FAE70220F8E701203D
:10439000F6E70120F4E70120F2E70220F0E72DE93B
:1043A000F04383B090F85160F6B2012E40F0B48033
:1043B0000446894690461D464368B3F5827F01D185
:1043C000836893B3FDF700FC0746B9F1000F00F0D6
:1043D000A480B8F1000F00F0A08094F85030012BB9
:1043E00000F09F80012384F85030042384F851307A
:1043F00000236365C4F83890A4F83C80A4F83E809C
:104400002363A386E38623646364A368B3F5004F44
:1044100015D023681A6812F0400F03D11A6842F0D1
:1044200040021A60E368F3B143E0042380F851309E
:10443000009513460A46FFF788FE06466DE022689F
:10444000136823F0400313602268136823F4804349
:104450001360DEE7FDF7B8FBC01BA84202D3B5F13D
:10446000FF3F15D1A5B1E38F9BB2002B42D023684B
:104470009A6812F0010FEDD0A26B1B7B1370A36B37
:104480000133A363E38F9BB2013B9BB2E387EAE76F
:10449000012384F85130002384F8503003263CE097
:1044A000FDF792FBC01BA84202D3B5F1FF3F19D123
:1044B000C5B1E38F9BB2EBB123689A6812F0010F8C
:1044C000EED0DA68A36B1A80A36B0233A363B4F84F
:1044D0003EC01FFA8CFC0CF1FF3C1FFA8CFCA4F8C8
:1044E0003EC0E6E7012384F85130002384F85030C1
:1044F000032612E03A4629462046FFF781FD08B11F
:1045000020236365012384F85130002384F8503060
:10451000636D13B9002600E00226304603B0BDE803
:10452000F0830226F9E7000090F83D30DBB2012B62
:1045300037D1022380F83D300268D36843F001038D
:10454000D3600368194A934220D0B3F1804F1DD045
:10455000A2F57C42934219D002F58062934215D0B5
:1045600002F58062934211D002F5784293420DD059
:1045700002F57052934209D0A2F59432934205D0CD
:104580001A6842F001021A60002070479A6802F02F
:104590000702062A07D01A6842F001021A600020BA
:1045A0007047012070470020704700BF00000140A5
:1045B000704770477047704770B504460368DE68FF
:1045C0001D6915F0020F10D016F0020F0DD06FF01C
:1045D00002021A610123037703689B6913F0030F3A
:1045E0005ED0FFF7E6FF0023237715F0040F12D00B
:1045F00016F0040F0FD023686FF004021A61022333
:10460000237723689B6913F4407F4FD02046FFF740
:10461000D0FF0023237715F0080F12D016F0080FF3
:104620000FD023686FF008021A61042323772368F0
:10463000DB6913F0030F40D02046FFF7BAFF0023D9
:10464000237715F0100F12D016F0100F0FD023683B
:104650006FF010021A61082323772368DB6913F4D3
:10466000407F31D02046FFF7A4FF0023237715F0C9
:10467000010F02D016F0010F2DD115F0800F02D0DE
:1046800016F0800F2FD115F0400F02D016F0400F1A
:1046900031D115F0200F02D016F0200F33D170BDAC
:1046A000FFF786FF2046FFF785FF9CE72046FFF7D0
:1046B0007FFF2046FFF77EFFABE72046FFF778FF3E
:1046C0002046FFF777FFBAE72046FFF771FF204645
:1046D000FFF770FFC9E723686FF001021A612046F7
:1046E00004F038FEC9E723686FF080021A612046A3
:1046F00000F0F1F8C7E723686FF040021A61204626
:10470000FFF759FFC5E723686FF020021A612046C2
:1047100000F0E0F8C3E700000368344A904212D08A
:10472000B0F1804F0FD0A2F57C4290420BD002F541
:104730008062904207D002F58062904203D002F579
:104740007842904203D123F070034A681343274A0A
:1047500090422AD0B0F1804F27D0A2F57C429042FF
:1047600023D002F5806290421FD002F58062904211
:104770001BD002F57842904217D002F57052904259
:1047800013D002F5806290420FD002F58062904211
:104790000BD0A2F59832904207D002F58062904289
:1047A00003D002F58062904203D123F44073CA68BB
:1047B000134323F080034A69134303608B68C36289
:1047C0000B688362094B984203D003F580639842DB
:1047D00001D10B69036301234361036913F0010FE6
:1047E00003D0036923F00103036170470000014017
:1047F00040B310B5044690F83D30F3B1022384F87D
:104800003D30214651F8040BFFF786FF012384F861
:10481000463084F83E3084F83F3084F8403084F8E5
:10482000413084F8423084F8433084F8443084F8CE
:10483000453084F83D30002010BD80F83C30FDF755
:104840008FF8DBE70120704790F83C20012A3CD02C
:1048500010B40346012280F83C20022280F83D205B
:1048600002685068946820F0700C086840EA0C00F8
:1048700050601A68164882421AD0B2F1804F17D0A1
:10488000A0F57C40824213D000F5806082420FD0B8
:1048900000F5806082420BD000F57840824207D05C
:1048A00000F57050824203D0A0F59430824204D1CA
:1048B00024F08004496821439160012283F83D205F
:1048C000002083F83C0010BC70470220704700BFF6
:1048D0000000014070477047026802F10C0353E882
:1048E000003F23F490730C3242E800310029F3D1E9
:1048F000026802F1140353E8003F23F0010314326D
:1049000042E800310029F3D1036B012B05D02023AD
:1049100080F84230002303637047026802F10C0301
:1049200053E8003F23F010030C3242E80031002925
:10493000F3D1ECE790F84130DBB2212B01D002201B
:1049400070478368B3F5805F17D0036A5A1C026210
:104950001A7803685A60C38C9BB2013B9BB2C38434
:104960004BB90268D36823F08003D3600268D36830
:1049700043F04003D360002070470369002BE4D16B
:10498000036A1B880268C3F308035360036A023397
:104990000362E0E710B504460268136923F440534C
:1049A000C1680B431361836802691A4343691A4360
:1049B000C3691A430168CB6823F4164323F00C0340
:1049C0001343CB600268536923F4407381690B433E
:1049D00053610368314A934206D002F580629342E4
:1049E00002D0FEF741FC01E0FEF74EFCE369B3F5AF
:1049F000004F29D00021031849411B1841F1000143
:104A0000C90041EA5371DB00181863684FEA83025A
:104A10004FEA937341F10001FCF73CF8204AA2FBF6
:104A200000314909642303FB11031B013233A2FB4C
:104A300003235B0903F0F00202EB011203F00F0302
:104A4000216813448B6010BD0023021843EB03015F
:104A5000121841F10001C90041EA5271D200101848
:104A600041F10001626892185B41FCF713F80C4AAF
:104A7000A2FB00314909642303FB1103DB0032333D
:104A8000A2FB03235B095A0002F4F87202EB011245
:104A900003F00703216813448B60D4E70010014042
:104AA0001F85EB512DE9F04383B005460E461746AE
:104AB0009946DDF828802B681C6836EA04040CBF90
:104AC00001240024BC4228D1B8F1FF3FF3D0FDF708
:104AD0007BF8A0EB0900404523D8B8F1000F22D0A5
:104AE0002B68DA6812F0040FE5D0802EE3D0402E58
:104AF000E1D01A6812F0080FDDD0002401941A6882
:104B000001925B680193019B2846FFF7E5FE0823AD
:104B10006B6485F84040012000E0002003B0BDE850
:104B2000F0830320FAE70320F8E760B310B50446EA
:104B300090F8413013B3242384F841302268D368BD
:104B400023F40053D3602046FFF724FF2268136943
:104B500023F4904313612268536923F02A035361BD
:104B60002268D36843F40053D3600020606420239C
:104B700084F8413084F84230606310BD80F84030E2
:104B8000FCF742FFD7E7012070472DE9F04182B0E2
:104B90001E4690F84130DBB2202B56D104460D461C
:104BA0009046002955D00AB901204FE00023436404
:104BB000212380F84130FDF707F80746A4F8248048
:104BC000A4F82680A368B3F5805F02D04FF00008F8
:104BD00014E023692BB34FF000080FE0202384F882
:104BE0004130032032E038F8023B2268C3F3080367
:104BF0005360E28C92B2013A92B2E284E38C9BB2AF
:104C000093B100963B46002280212046FFF74AFFE1
:104C10000028E3D1002DE6D015F8012B23685A6057
:104C2000E7E7A8460025E9E700963B460022402139
:104C30002046FFF737FF18B9202384F8413005E0FC
:104C4000202384F84130032000E0022002B0BDE8B8
:104C5000F0810120FAE72DE9F04182B01E4690F87C
:104C60004230DBB2202B59D104460D469046002934
:104C700058D00AB9012052E000234364222280F870
:104C800042200363FCF7A0FF0746A4F82C80A4F899
:104C90002E80A368B3F5805F02D04FF000081CE0BF
:104CA000236913B14FF0000817E0A846002514E06F
:104CB000202384F84230032031E023685B68C3F38B
:104CC000080328F8023B03E023685B682B7001357A
:104CD000E28D92B2013A92B2E285E38D9BB2C3B10A
:104CE00000963B46002220212046FFF7DBFE0028ED
:104CF000DED1002DE1D0A368B3F5805FE4D013B915
:104D00002369002BE0D023685B6803F07F032B70DE
:104D1000DDE7202384F84230002000E0022002B0CA
:104D2000BDE8F0810120FAE7704708B50168CA685C
:104D300022F04002CA60202280F84120FFF7F4FFF1
:104D4000002008BD7047704708B5806B0023C385FD
:104D5000C384FFF7F8FF08BD704790F84230DBB21C
:104D6000222B69D18368B3F5805F4FD0826AB3F597
:104D7000805F04D0002B56D10369002B53D1036808
:104D80005B681370836A01338362C38D9BB2013BFE
:104D90009BB2C385002B51D100B583B00268D368A4
:104DA00023F02003D3600268D36823F48073D360B8
:104DB0000268536923F001035361202380F84230D5
:104DC00000234363036B012B33D100230363026889
:104DD00002F10C0353E8003F23F010030C3242E8C9
:104DE00000310029F3D103681A6812F0100F06D0C1
:104DF000002201921A6801925B680193019B818DE8
:104E0000FFF7AAFF002003B05DF804FB0269002A47
:104E1000ACD1826A03685B68C3F308031380836ABA
:104E200002338362B1E703685B6803F07F031370AA
:104E3000A8E7FFF787FFE5E70220704700207047EB
:104E400010B582B0044602681368D068516913F047
:104E50000F0F09D113F0200F0CD010F0200F09D044
:104E60002046FFF77AFF16E011F0010115D110F48A
:104E7000907F12D1216B012979D013F0800F03D0DC
:104E800010F0800F40F0148113F0400F03D010F0A9
:104E9000400F40F0118102B010BD13F0010F06D099
:104EA00010F4807F03D0626C42F00102626413F060
:104EB000040F04D019B1626C42F00202626413F074
:104EC000020F04D019B1626C42F00402626413F064
:104ED000080F07D010F0200F00D119B1626C42F01A
:104EE00008026264626C002AD5D013F0200F02D051
:104EF00010F0200F29D123685B6903F04003626C36
:104F000012F0080F00D163B32046FFF7E5FC2368D9
:104F10005B6913F0400F20D0226802F1140353E8BC
:104F2000003F23F04003143242E800310029F3D15E
:104F3000E36B73B1624A1A65E06BFCF725FF00284A
:104F4000A9D0E06B036D9847A5E72046FFF705FF62
:104F5000D1E72046FFF7F7FE9DE72046FFF7F3FE77
:104F600099E72046FFF7EFFE0023636493E713F011
:104F7000100F82D010F0100F3FF47FAF0023019389
:104F80001368019353680193019B536913F0400F19
:104F900052D0E26B13685B689BB2002B3FF47BAF8F
:104FA000A18D99427FF677AFE385D369B3F5807F12
:104FB00037D0226802F10C0353E8003F23F48073DA
:104FC0000C3242E800310029F3D1226802F11403C7
:104FD00053E8003F23F00103143242E80031002976
:104FE000F3D1226802F1140353E8003F23F0400399
:104FF000143242E800310029F3D1202384F84230F2
:1050000000232363226802F10C0353E8003F23F0DE
:1050100010030C3242E800310029F3D1E06BFCF7B9
:1050200069FE02236363A18DE38D9BB2C91A89B225
:105030002046FFF791FE2EE7A18DE38D9BB2C91AA2
:1050400089B2E38D9BB2002B3FF425AF00293FF4DA
:1050500022AF226802F10C0353E8003F23F490735F
:105060000C3242E800300028F3D1226802F1140328
:1050700053E8003F23F00103143242E800300028D7
:10508000F3D1202384F8423000232363226802F105
:105090000C0353E8003F23F010030C3242E80030C9
:1050A0000028F3D1022363632046FFF755FEF2E6A2
:1050B0002046FFF73FFCEEE62046FFF736FEEAE625
:1050C000494D00080B4B1B680B4AA2FB03235B0AEC
:1050D00041F2883202FB03F31A46013B3AB1426BBC
:1050E00012F0800FF8D0C5238363002070474FF083
:1050F0000040704700000020D34D621084B00DF1D5
:10510000040C8CE80E000B461343039A1343049AD5
:105110001343059A1343069A1343426822F4FD424F
:1051200022F07F0213434360002004B07047D0F8A0
:10513000800070470B68C0F8803000207047032360
:10514000036000207047006800F0030070470B68A0
:1051500083604B688A681343CA6813430A69134320
:10516000C2686FF30B021343C360002070470069ED
:10517000C0B270471430405870470B6843624B68A8
:1051800083628B68CA6813430A6913434A691343ED
:10519000C26A22F0F7021343C3620020704710B5C1
:1051A00086B00446002301930293039304934FF4C3
:1051B0008063059301A9FFF7CAFF2046FFF782FF2E
:1051C00006B010BD38B504460D46504B1B6850491B
:1051D000A1FB03135B0A03FB02F21346013A002B07
:1051E0005DD0636B13F0450FF7D013F4006FF4D16B
:1051F000636B13F0040F06D1636B13F0010F05D03E
:105200000120A0634DE00420A0634AE0C523A3630E
:105210002046FFF7ACFFA84201D0012041E0002169
:105220002046FFF7A7FF03463A481840C8B3002BB3
:1052300038DB13F0804F38D113F0005F37D113F013
:10524000805F36D113F0006F36D113F0806F36D106
:1052500013F0807F36D113F4000F36D113F4800F92
:1052600036D113F4001F36D113F4801F36D113F456
:10527000802F36D113F4003F36D113F4803F36D15E
:1052800013F4004F36D113F4804F36D113F4005F7E
:1052900036D113F0080F36D04FF4000001E04FF084
:1052A000004038BD4FF00070FBE74020F9E7802058
:1052B000F7E74FF48070F4E74FF40070F1E74FF434
:1052C0008060EEE74FF40060EBE74FF48050E8E7D2
:1052D0004FF40050E5E74FF48040E2E74FF4004020
:1052E000DFE74FF40030DCE74FF48020D9E74FF4DC
:1052F0000020D6E74FF48010D3E74FF40010D0E73A
:105300004FF48000CDE74FF48030CAE70000002062
:10531000D34D621008E0FFFD30B587B0044601911F
:105320001025029540230393002304934FF48063D8
:10533000059301A9FFF70BFF41F288322946204669
:10534000FFF740FF07B030BD30B587B0044601918C
:105350001125029540230393002304934FF48063A7
:10536000059301A9FFF7F3FE41F288322946204652
:10537000FFF728FF07B030BD30B587B00446019174
:105380001225029540230393002304934FF4806376
:10539000059301A9FFF7DBFE41F28832294620463A
:1053A000FFF710FF07B030BD30B587B0044601915C
:1053B0001825029540230393002304934FF4806340
:1053C000059301A9FFF7C3FE41F288322946204622
:1053D000FFF7F8FE07B030BD30B587B00446019145
:1053E0001925029540230393002304934FF480630F
:1053F000059301A9FFF7ABFE41F28832294620460A
:10540000FFF7E0FE07B030BD30B587B0044600239B
:1054100001930C2502954022039204934FF480637C
:10542000059301A9FFF793FE034A29462046FFF79B
:10543000C9FE07B030BD00BF00E1F50530B587B04B
:105440000446019207250295402303930023049309
:105450004FF48063059301A9FFF779FE41F288328A
:1054600029462046FFF7AEFE07B030BD30B587B005
:1054700004460191372502954023039300230493AA
:105480004FF48063059301A9FFF761FE41F2883272
:1054900029462046FFF796FE07B030BD30B587B0ED
:1054A000044601910D2502954023039300230493A4
:1054B0004FF48063059301A9FFF749FE41F288325A
:1054C00029462046FFF77EFE07B030BD0146144B4B
:1054D0001B68144AA2FB03235B0A41F2883202FBD9
:1054E00003F31A46013BBAB14A6B12F0450FF8D0EC
:1054F00012F4006FF5D14B6B13F0040F06D1486B1B
:1055000010F0010005D1C5238B6370470420886328
:1055100070470120886370474FF00040704700BF1C
:1055200000000020D34D621010B586B00446002361
:10553000019302220292C022039204934FF48063EB
:10554000059301A9FFF703FE2046FFF7BFFF06B052
:1055500010BD10B586B00446019109230293C02303
:105560000393002304934FF48063059301A9FFF78D
:10557000EEFD2046FFF7AAFF06B010BD0146104B16
:105580001B68104AA2FB03235B0A41F2883202FB2C
:1055900003F31A46013B82B14A6B12F0450FF8D073
:1055A00012F4006FF5D1486B10F0040002D1C5234E
:1055B0008B6370470420886370474FF0004070474A
:1055C00000000020D34D621010B586B0044641F0B3
:1055D000004141F480110191292302934023039358
:1055E000002304934FF48063059301A9FFF7AFFDF7
:1055F0002046FFF7C3FF06B010BD0000F8B5054612
:105600000E461746234B1B68234AA2FB03235B0A63
:1056100041F2883202FB03F31A46013B8AB36C6BFA
:1056200014F0450FF8D014F4006FF5D16B6B13F044
:10563000040F06D16B6B13F0010F05D00120A86396
:1056400021E00420A8631EE02846FFF790FDB04249
:1056500001D0012017E0C523AB6300212846FFF7E6
:1056600089FD034610F4604008D013F4804F0BD13D
:1056700013F4004F0BD04FF4805004E01B0C3B8020
:1056800001E04FF00040F8BD4FF40050FBE74FF44D
:105690008030F8E700000020D34D621070B586B06E
:1056A00004460D46002301930326029640220392EE
:1056B00004934FF48063059301A9FFF748FD2A4640
:1056C00031462046FFF79AFF06B070BD0146164BE3
:1056D0001B68164AA2FB03235B0A41F2883202FBD5
:1056E00003F31A46013BE2B14A6B12F0450FF8D0C2
:1056F00012F4006FF5D14B6B13F0040F0BD14B6B11
:1057000013F001030AD1486B10F040000BD0402287
:105710008A631846704704208863704701208863B5
:1057200070474FF00040704700000020D34D6210DA
:1057300010B586B004464FF4D57301930823029345
:1057400040230393002304934FF48063059301A93E
:10575000FFF7FDFC2046FFF7B9FF06B010BD82B091
:1057600000230193019B01330193019BB3F1706FFF
:1057700015D80369002BF5DA00230193036943F080
:1057800001030361019B01330193019BB3F1706F2E
:1057900008D8036913F0010FF4D1002000E00320C2
:1057A00002B070470320FBE784B010B5044603A89D
:1057B00080E80E009DF81130012B21D1A36B23F45A
:1057C0008033A363E36823F4840323F04003E3609E
:1057D000E36823F44013E3609DF81830012B0AD0EE
:1057E0002046FFF7BCFF9DF80E30012B1CD0BDE812
:1057F000104004B07047E36843F48013E360EFE7C0
:10580000E36843F04003E3602046FFF7A8FF9DF8FC
:10581000153023B9A36B43F48033A363E3E7A36B91
:1058200023F48033A363DEE7A36843F00603A36099
:10583000A36843F02003A360D9E70000022A0AD03E
:105840000922C36823F47053C360C36843EA822308
:10585000C36000207047234B0B44234A93422FD947
:10586000224B0B44224A93422CD9A1F57403A3F591
:105870001053204A934227D9A1F18373A3F5E7433C
:105880001D4A934222D31D4B0B441D4A93421FD9FC
:105890001C4B0B441C4A93421CD31C4B0B441C4A0C
:1058A000934219D3A1F1B773A3F55853194A934200
:1058B00014D3194B0B44194A934211D20722C0E763
:1058C0000F22BEE70E22BCE70D22BAE70C22B8E792
:1058D0000B22B6E70A22B4E70922B2E70822B0E7B2
:1058E0000622AEE7405327FFFF340C00401E1BFF8B
:1058F0003F420F007F4F120020D6130060B6E5FE36
:105900005FE3160000D3CEFE40771B00C05BB3FE02
:10591000C091210020753800E05459FEE09C410000
:10592000836843F00103836000207047836823F09D
:10593000010383600020704782B000230193019B24
:1059400001330193019BB3F1706F15D80369002BEC
:10595000F5DA00230193890141F020010161019BE7
:1059600001330193019BB3F1706F08D8036913F001
:10597000200FF4D1002000E0032002B07047032084
:10598000FBE782B000230193019B01330193019B4C
:10599000B3F1706F13D80369002BF5DA002301937C
:1059A00010230361019B01330193019BB3F1706FDD
:1059B00008D8036913F0100FF4D1002000E0032091
:1059C00002B070470320FBE7D0F800381943C0F855
:1059D000001800207047000084B0F8B5044607A8FE
:1059E00080E80E00002306E003F1400204EB82028F
:1059F0000021516001330E2BF6D99DF8266006BBBD
:105A0000D4F8043843F00203C4F80438A36B43F419
:105A10000013A363A36B23F40023A363A36B23F4FA
:105A20008023A3630023C4F8003E9DF82130012B9E
:105A300015D19DF81F306BB900212046FFF7C4FF38
:105A400011E0A36B23F40013A363A36B43F40023BF
:105A5000A363E7E701212046FFF7B6FF03E0032138
:105A60002046FFF7B1FF10212046FFF765FF0546EE
:105A700000B101252046FFF784FF00B1012504F5A0
:105A8000006C0023CCF81030CCF81430CCF81C306B
:105A90000AE0CBB94FF00060C2F8000900220A61A9
:105AA0004FF67F328A6001339DF81C10994210D95D
:105AB00004EB431202F51061D2F800090028E8DB7C
:105AC0000020C2F80009E9E74FF09040C2F8000951
:105AD000E4E700230AE0BBB14FF09047C2F8007B37
:105AE000002202614FF67F3282600133994210D961
:105AF00004EB431202F53060D2F8007B002FEADBA2
:105B00000027C2F8007BEBE74FF00067C2F8007B8C
