:020000040800F2
:100000000000022099120008F1100008F310000807
:10001000F5100008F7100008F910000800000000B3
:10002000000000000000000000000000FB100008BD
:10003000FD10000800000000FF100008011100087A
:10004000E9120008E9120008E9120008E9120008A4
:10005000E9120008E9120008E9120008E912000894
:10006000E9120008E9120008E9120008E912000884
:10007000E9120008E9120008E9120008E912000874
:10008000E9120008E9120008E9120008E912000864
:10009000E9120008E9120008E9120008E912000854
:1000A000E9120008E9120008E9120008E912000844
:1000B000E9120008E9120008E9120008E912000834
:1000C000E9120008E9120008E9120008E912000824
:1000D000E9120008E912000809110008E9120008F5
:1000E000E9120008E9120008E9120008E912000804
:1000F000E9120008E9120008E9120008E9120008F4
:10010000E9120008E9120008E9120008E9120008E3
:10011000E9120008E9120008E9120008E9120008D3
:10012000E9120008E9120008E9120008E9120008C3
:10013000E9120008E9120008E9120008E9120008B3
:10014000E9120008E9120008E91200081911000874
:10015000E9120008E9120008E9120008E912000893
:10016000E9120008E9120008E9120008E912000883
:10017000E9120008E9120008E91200080000000076
:08018000E9120008E912000871
:1001C00053B94AB9002908BF00281CBF4FF0FF31BE
:1001D0004FF0FF3000F00CB8ADF1080C6DE904CE23
:1001E00005F0A6F8DDF804E0DDE9022304B070476D
:1001F000704700BF00000000000000000000000089
:1002000001F0FF01102A2BDB10F0070F08D010F8C7
:10021000013B013A8B422DD010F0070F42B3F6D1CB
:10022000F0B441EA012141EA014122F007047FF0E4
:1002300000070023F0E80256083C85EA010586EA3B
:10024000010685FA47F5A3FA87F586FA47F6A5FA77
:1002500087F68EB9EED1F0BC01F0FF0102F0070283
:1002600032B110F8013B013A83EA010313B1F8D12E
:100270000020704701387047002D06BF354603380F
:10028000073815F0010F07D1013015F4807F02BF48
:10029000013015F4C03F0130F0BC0138704700BF99
:1002A000000000000000000000000000000000004E
:1002B000000000000000000000000000000000003E
:1002C00030B490F800F020F007016FF0000C10F04F
:1002D000070491F820F040F048804FF000046FF0E0
:1002E0000700D1E9002391F840F000F1080082FAFC
:1002F0004CF2A4FA8CF283FA4CF3A2FA8CF34BBBC7
:10030000D1E9022382FA4CF200F10800A4FA8CF23F
:1003100083FA4CF3A2FA8CF3E3B9D1E9042382FA0D
:100320004CF200F10800A4FA8CF283FA4CF3A2FA22
:100330008CF37BB9D1E9062301F1200182FA4CF25A
:1003400000F10800A4FA8CF283FA4CF3A2FA8CF3C1
:10035000002BC6D0002A04BF04301A4612BAB2FAE3
:1003600082F200EBD20030BC7047D1E9002304F0E8
:100370000305C4F100004FEAC50514F0040F91F81D
:1003800040F00CFA05F562EA05021CBF63EA0503BA
:1003900062464FF00004AAE7844641EA000313F0E6
:1003A00003036DD1403A41D351F8043B40F8043B7C
:1003B00051F8043B40F8043B51F8043B40F8043B3F
:1003C00051F8043B40F8043B51F8043B40F8043B2F
:1003D00051F8043B40F8043B51F8043B40F8043B1F
:1003E00051F8043B40F8043B51F8043B40F8043B0F
:1003F00051F8043B40F8043B51F8043B40F8043BFF
:1004000051F8043B40F8043B51F8043B40F8043BEE
:1004100051F8043B40F8043B51F8043B40F8043BDE
:1004200051F8043B40F8043B403ABDD2303211D37E
:1004300051F8043B40F8043B51F8043B40F8043BBE
:1004400051F8043B40F8043B51F8043B40F8043BAE
:10045000103AEDD20C3205D351F8043B40F8043B7E
:10046000043AF9D2043208D0D2071CBF11F8013B7C
:1004700000F8013B01D30B8803806046704700BF42
:10048000082A13D38B078DD010F003038AD0C3F151
:100490000403D21ADB071CBF11F8013B00F8013B33
:1004A00080D331F8023B20F8023B7BE7043AD9D3F2
:1004B000013A11F8013B00F8013BF9D20B780370C7
:1004C0004B7843708B7883706046704781F00041B1
:1004D00002E000BF83F0004330B54FEA41044FEA29
:1004E000430594EA050F08BF90EA020F1FBF54EAC4
:1004F000000C55EA020C7FEA645C7FEA655C00F060
:10050000E2804FEA5454D4EB5555B8BF6D420CDD30
:100510002C4480EA020281EA030382EA000083EAB3
:10052000010180EA020281EA0303362D88BF30BD53
:1005300011F0004F4FEA01314FF4801C4CEA1131A9
:1005400002D0404261EB410113F0004F4FEA033308
:100550004CEA133302D0524263EB430394EA050F93
:1005600000F0A780A4F10104D5F1200E0DDB02FA02
:100570000EFC22FA05F2801841F1000103FA0EF296
:10058000801843FA05F359410EE0A5F120050EF15C
:10059000200E012A03FA0EFC28BF4CF0020C43FA8D
:1005A00005F3C01851EBE37101F0004507D54FF09A
:1005B000000EDCF1000C7EEB00006EEB0101B1F5EA
:1005C000801F1BD3B1F5001F0CD349085FEA300030
:1005D0004FEA3C0C04F101044FEA445212F5800F3B
:1005E00080F09A80BCF1004F08BF5FEA500C50F1D8
:1005F000000041EB045141EA050130BD5FEA4C0CBB
:10060000404141EB0101013C28BFB1F5801FE9D217
:1006100091F0000F04BF01460020B1FA81F308BF3A
:100620002033A3F10B03B3F120020CDA0C3208DD06
:1006300002F1140CC2F10C0201FA0CF021FA02F1E1
:100640000CE002F11402D8BFC2F1200C01FA02F151
:1006500020FA0CFCDCBF41EA0C019040E41AA2BF76
:1006600001EB0451294330BD6FEA04041F3C1CDA3E
:100670000C340EDC04F11404C4F1200220FA04F05E
:1006800001FA02F340EA030021FA04F345EA030108
:1006900030BDC4F10C04C4F1200220FA02F001FACA
:1006A00004F340EA0300294630BD21FA04F029464C
:1006B00030BD94F0000F83F4801306BF81F48011E5
:1006C0000134013D4EE77FEA645C18BF7FEA655C58
:1006D00029D094EA050F08BF90EA020F05D054EA2A
:1006E000000C04BF1946104630BD91EA030F1EBF2F
:1006F0000021002030BD5FEA545C05D14000494133
:1007000028BF41F0004130BD14F580043CBF01F525
:10071000801130BD01F0004545F0FE4141F470010B
:100720004FF0000030BD7FEA645C1ABF19461046E6
:100730007FEA655C1CBF0B46024650EA013406BFE7
:1007400052EA033591EA030F41F4002130BD00BFA6
:1007500090F0000F04BF0021704730B54FF4806463
:1007600004F132044FF000054FF0000150E700BFE4
:1007700090F0000F04BF0021704730B54FF4806443
:1007800004F1320410F0004548BF40424FF0000130
:100790003EE700BF42004FEAE2014FEA31014FEA73
:1007A00002701FBF12F07F4393F07F4F81F06051C2
:1007B000704732F07F4208BF704793F07F4F04BF0D
:1007C00041F40021704730B54FF4607401F00045EA
:1007D00021F000411CE700BF50EA010208BF70474A
:1007E00030B54FF000050AE050EA010208BF70473B
:1007F00030B511F0004502D5404261EB41014FF4A4
:10080000806404F132045FEA915C3FF4D8AE4FF0AB
:1008100003025FEADC0C18BF03325FEADC0C18BF8E
:10082000033202EBDC02C2F1200300FA03FC20FADF
:1008300002F001FA03FE40EA0E0021FA02F114442C
:10084000BDE600BF70B54FF0FF0C4CF4E06C1CEA45
:1008500011541DBF1CEA135594EA0C0F95EA0C0FB6
:1008600000F0DEF82C4481EA030621EA4C5123EA29
:100870004C5350EA013518BF52EA033541F4801158
:1008800043F4801338D0A0FB02CE4FF00005E1FB0B
:1008900002E506F00042E0FB03E54FF00006E1FB55
:1008A00003569CF0000F18BF4EF0010EA4F1FF0498
:1008B000B6F5007F64F5407404D25FEA4E0E6D41D8
:1008C00046EB060642EAC62141EA55514FEAC520E9
:1008D00040EA5E504FEACE2EB4F1FD0C88BFBCF565
:1008E000E06F1ED8BEF1004F08BF5FEA500E50F116
:1008F000000041EB045170BD06F0004646EA0101DC
:1009000040EA020081EA0301B4EB5C04C2BFD4EB0D
:100910000C0541EA045170BD41F480114FF0000E06
:10092000013C00F3AB8014F1360FDEBF002001F074
:10093000004170BDC4F10004203C35DA0C341BDCEE
:1009400004F11404C4F1200500FA05F320FA04F0C0
:1009500001FA05F240EA020001F0004221F00041F4
:1009600010EBD37021FA04F642EB06015EEA430E67
:1009700008BF20EAD37070BDC4F10C04C4F1200597
:1009800000FA04F320FA05F001FA04F240EA02004A
:1009900001F0004110EBD37041F100015EEA430E1B
:1009A00008BF20EAD37070BDC4F1200500FA05F23B
:1009B0004EEA020E20FA04F301FA05F243EA0203BA
:1009C00021FA04F001F0004121FA04F220EA0200C9
:1009D00000EBD3705EEA430E08BF20EAD37070BD0F
:1009E00094F0000F0FD101F00046400041EB0101EF
:1009F00011F4801F08BF013CF7D041EA060195F0D1
:100A0000000F18BF704703F00046520043EB03038A
:100A100013F4801F08BF013DF7D043EA0603704777
:100A200094EA0C0F0CEA135518BF95EA0C0F0CD082
:100A300050EA410618BF52EA4306D1D181EA0301C8
:100A400001F000414FF0000070BD50EA410606BFC2
:100A50001046194652EA430619D094EA0C0F02D107
:100A600050EA013613D195EA0C0F05D152EA03364C
:100A70001CBF104619460AD181EA030101F000416A
:100A800041F0FE4141F470014FF0000070BD41F0B3
:100A9000FE4141F4780170BD70B54FF0FF0C4CF48D
:100AA000E06C1CEA11541DBF1CEA135594EA0C0FAC
:100AB00095EA0C0F00F0A7F8A4EB050481EA030EF9
:100AC00052EA03354FEA013100F088804FEA0333E0
:100AD0004FF0805545EA131343EA12634FEA0222AE
:100AE00045EA111545EA10654FEA00260EF000416F
:100AF0009D4208BF964244F1FD0404F5407402D2C1
:100B00005B084FEA3202B61A65EB03055B084FEA51
:100B100032024FF480104FF4002CB6EB020E75EB4E
:100B2000030E22BFB61A754640EA0C005B084FEA76
:100B30003202B6EB020E75EB030E22BFB61A7546F3
:100B400040EA5C005B084FEA3202B6EB020E75EB3E
:100B5000030E22BFB61A754640EA9C005B084FEAB6
:100B60003202B6EB020E75EB030E22BFB61A7546C3
:100B700040EADC0055EA060E18D04FEA051545EAB2
:100B800016754FEA06164FEAC30343EA52734FEA5B
:100B9000C2025FEA1C1CC0D111F4801F0BD141EAD4
:100BA00000014FF000004FF0004CB6E711F4801F39
:100BB00004BF01430020B4F1FD0C88BFBCF5E06F19
:100BC0003FF6AFAEB5EB030C04BFB6EB020C5FEA29
:100BD000500C50F1000041EB045170BD0EF0004E7E
:100BE0004EEA113114EB5C04C2BFD4EB0C0541EAB0
:100BF000045170BD41F480114FF0000E013C90E6AD
:100C000045EA060E8DE60CEA135594EA0C0F08BF70
:100C100095EA0C0F3FF43BAF94EA0C0F0AD150EA6F
:100C200001347FF434AF95EA0C0F7FF425AF104602
:100C300019462CE795EA0C0F06D152EA03353FF42A
:100C4000FDAE1046194622E750EA410618BF52EAA7
:100C500043067FF4C5AE50EA41047FF40DAF52EA7B
:100C600043057FF4EBAE12E74FF0FF3C06E000BF18
:100C70004FF0010C02E000BF4FF0010C4DF804CD25
:100C80004FEA410C7FEA6C5C4FEA430C18BF7FEAE5
:100C90006C5C1BD001B050EA410C0CBF52EA430C13
:100CA00091EA030F02BF90EA020F0020704710F193
:100CB000000F91EA030F58BF994208BF90422CBF22
:100CC000D8176FEAE37040F0010070474FEA410C1B
:100CD0007FEA6C5C02D150EA013C07D14FEA430C39
:100CE0007FEA6C5CD6D152EA033CD3D05DF8040BAA
:100CF000704700BF8446104662468C4619466346DC
:100D000000E000BF01B5FFF7B7FF002848BF10F1B2
:100D1000000F01BD4DF808EDFFF7F4FF0CBF0120F7
:100D200000205DF808FB00BF4DF808EDFFF7EAFF73
:100D300034BF012000205DF808FB00BF4DF808ED2E
:100D4000FFF7E0FF94BF012000205DF808FB00BF23
:100D50004DF808EDFFF7CEFF94BF012000205DF8AD
:100D600008FB00BF4DF808EDFFF7C4FF34BF0120BA
:100D700000205DF808FB00BF4FEA410C7FEA6C5C85
:100D800002D150EA013C0AD14FEA430C7FEA6C5C85
:100D900002D152EA033C02D14FF0000070474FF0FD
:100DA000010070474FEA410212F5001215D211D529
:100DB0006FF47873B3EB625212D94FEAC12343F058
:100DC000004343EA505311F0004F23FA02F018BFDA
:100DD000404270474FF00000704750EA013005D1A3
:100DE00011F0004008BF6FF0004070474FF0000066
:100DF000704700BF0348044B834202D0034B03B14A
:100E0000184770478C0800208C0800200000000064
:100E10000548064B1B1AD90F01EBA301491002D05C
:100E2000034B03B1184770478C0800208C08002042
:100E30000000000010B5064C237843B9FFF7DAFF35
:100E4000044B13B10448AFF300800123237010BD9D
:100E50008C08002000000000C0B7000808B5054B52
:100E60001BB105490548AFF30080BDE80840FFF716
:100E7000CFBF00BF0000000090080020C0B70008EE
:100E800082B0002100910B4B1A6B42F080021A6372
:100E90001A6B02F080020092009A01911A6B42F0E4
:100EA00001021A631B6B03F001030193019B02B063
:100EB000704700BF0038024072B6FEE700B595B03B
:100EC0003022002108A804F0E7FD002303930493D7
:100ED0000593069307930193204A116C41F08051CA
:100EE0001164126C02F080520192019A02931C4B21
:100EF0001A6842F480421A601B6803F4804302932C
:100F0000029B012308934FF48033099302230E932D
:100F10004FF480020F9204221092A8221192129391
:100F20000723139308A801F057FA98B90F230393E6
:100F300002230493002305934FF4A05306934FF428
:100F400080530793052103A801F0B0FC20B915B028
:100F50005DF804FBFFF7B0FFFFF7AEFF003802407B
:100F60000070004070B588B000F0E6F9FFF7A6FF0A
:100F7000FFF786FF00F038F903F084FF41F2883074
:100F800000F006FA404D414E0A2308222946304619
:100F900001F0BBFE3E4C642308222146304601F09E
:100FA0001AFF08222946204604F048FD002860D197
:100FB0002B21384803F0B8FF0A2000F0E9F9364D3C
:100FC000324E0A2308222946304601F09EFE304C5C
:100FD000642308222146304601F0FDFE08222946FE
:100FE000204604F02BFD002848D128212B4803F08F
:100FF0009BFF4FF4FA6000F0CBF90024ADF80840F5
:1010000003948DF8104005940694ADF81C401F4ED3
:101010000A2308222249304601F077FE1C4D642342
:1010200007222946304601F0D6FEB5F80330ADF868
:1010300008301A0A0092DBB21A4A052103A804F00C
:101040006DFC1022214603A804F06CFB164B83FBB9
:101050000023C017C0EBA303144A0A2105A804F01B
:101060005DFC0A2105A803F05FFF642000F090F901
:10107000C3E72B210E4803F057FF9DE728210D48B9
:1010800003F052FFB5E700BFB8000020BC08002005
:10109000A80800207C000020B000002028000020CC
:1010A000A8000020D8B7000867666666E4B70008A5
:1010B000500000200000002082B0002100910B4B66
:1010C0005A6C42F480425A645A6C02F48042009294
:1010D000009A01911A6C42F080521A641B6C03F062
:1010E00080530193019B02B0704700BF003802405B
:1010F000FEE7FEE7FEE7FEE7FEE770477047704752
:1011000008B500F033F908BD08B5024801F058FFF2
:1011100008BD00BFBC08002008B5024800F051FE21
:1011200008BD00BF082000200120704708B504F06A
:1011300059FD162303604FF0FF3008BD08B54FF08E
:10114000FF31FFF7F3FFFEE770B50C4616460025AA
:1011500006E0AFF30080214601F8010B01350C4693
:10116000B542F6DB304670BD70B50C46164600251C
:1011700004E014F8010BAFF300800135B542F8DB51
:10118000304670BD4FF0FF3070474FF400534B6056
:1011900000207047012070470020704710B50346BB
:1011A0000C4A0D490D48006840B10C4800680344E2
:1011B000521A934206D8094A136010BD0748084CDA
:1011C0000460F2E704F00EFD0C2303604FF0FF30E3
:1011D000F3E700BF0000022000040000B808002070
:1011E000002800207047000008B50A480A4B036039
:1011F0004FF41653436000238360C36003610C22E5
:1012000042618361C36101F050FD00B908BDFFF781
:1012100053FEFBE7BC0800200044004010B588B036
:101220000023039304930593069307930268184BD6
:101230009A4201D008B010BD0024019403F5FA339E
:101240001A6C42F400321A641A6C02F400320192F1
:10125000019A02941A6B42F001021A631B6B03F0AD
:1012600001030293029B0C230393022304930323A1
:1012700006930723079303A9064800F077F922464F
:101280002146262000F0ECF8262000F0F9F8D1E7FE
:101290000044004000000240DFF834D0FFF7A2FF16
:1012A0000C480D490D4A002302E0D458C4500433C1
:1012B000C4188C42F9D30A4A0A4C002301E0136097
:1012C0000432A242FBD304F093FCFFF74BFE7047BD
:1012D00000000220000000208C08002044BC000810
:1012E0008C08002000280020FEE7000010B504460E
:1012F0000E4B1A784FF47A73B3FBF2F30C4A106872
:10130000B0FBF3F000F0C0F868B90F2C01D9012050
:101310000AE0002221464FF0FF3000F0A1F8054B13
:101320001C60002000E0012010BD00BFC4000020B0
:10133000C0000020C800002008B50B4B1A6842F41A
:1013400000721A601A6842F480621A601A6842F4E5
:1013500080721A60032000F071F80F20FFF7C6FFBB
:10136000FFF7AAFE002008BD003C0240034A1168B6
:10137000034B1B780B441360704700BF0409002027
:10138000C4000020014B1868704700BF040900200A
:1013900038B50446FFF7F6FF0546B4F1FF3F02D02B
:1013A000044B1B781C44FFF7EDFF401BA042FAD30F
:1013B00038BD00BFC4000020002807DB00F01F027A
:1013C000400901239340024A42F82030704700BF91
:1013D00000E100E0002808DB0901C9B200F160402B
:1013E00000F5614080F80013704700F00F0009011C
:1013F000C9B2014B1954704714ED00E000B500F07C
:101400000700C0F1070CBCF1040F28BF4FF0040C1B
:10141000031D062B0FD9C31E4FF0FF3E0EFA0CF032
:1014200021EA000199400EFA03FE22EA0E0241EA87
:1014300002005DF804FB0023EEE70000074AD368D2
:1014400023F4E0631B041B0C000200F4E060034380
:1014500043F0BF6343F40033D360704700ED00E016
:1014600010B50446054BD868C0F30220FFF7C6FF4D
:1014700001462046FFF7AEFF10BD00BF00ED00E0C3
:1014800008B5FFF799FF08BD0138B0F1807F0BD296
:101490004FF0E0235861054AF02182F82310002024
:1014A000986107221A6170470120704700ED00E043
:1014B00070B50446866DFFF765FF94F83530DBB2F2
:1014C000022B06D080236365002384F8343001208A
:1014D00070BD05462268136823F016031360226866
:1014E000536923F080035361236CE3B122681368CE
:1014F00023F0080313602268136823F001031360CC
:1015000023681B6813F0010F11D0FFF73BFF431B4B
:10151000052BF5D920236365032084F835000023CB
:1015200084F83430D4E7A36C002BDFD1E3E7E26D1D
:101530003F239340B360012384F83530002084F8C2
:101540003400C5E790F83530DBB2022B03D080239E
:10155000436501207047052380F835300268136821
:1015600023F00103136000207047000000230F2BBD
:1015700000F2EC8030B583B068E085684FEA430E36
:10158000032404FA0EF425EA0405CC6804FA0EF4E8
:101590002C438460446824EA02044A68C2F30012BF
:1015A0009A40224342605FE0DC08083450F824206F
:1015B00003F00705AD004FF00F0E0EFA05FE22EA0C
:1015C0000E0E0A69AA4042EA0E0240F824205FE0AB
:1015D000072200E0002202FA0EF22A4302345C4D98
:1015E00045F824205B4A94686FEA0C0224EA0C0553
:1015F000D1F804E01EF4801F01D04CEA0405554CDC
:10160000A560E46802EA0405D1F804E01EF4001FB6
:1016100001D04CEA04054F4CE560646802EA040519
:10162000D1F804E01EF4003F01D04CEA0405494C17
:101630006560246822404D6815F4803F01D04CEA73
:101640000402444C226001330F2B7DD801229A40C2
:101650000C6804EA020C32EA0404F4D14C6804F089
:101660000304013C012C88D94A6802F00302032AD2
:1016700009D0C4685D000322AA4024EA02048A68F3
:10168000AA402243C2604A6802F00302022A8BD0B9
:1016900004684FEA430E032202FA0EF224EA02041F
:1016A0004A6802F0030202FA0EF2224302604A681C
:1016B00012F4403FC7D000220192274A546C44F4F0
:1016C00080445464526C02F480420192019A9C0856
:1016D000A51C1F4A52F8255003F0030E4FEA8E0E48
:1016E0000F2202FA0EF225EA02051C4A90423FF44C
:1016F00071AF02F5806290421AD002F5806290428A
:1017000018D002F58062904216D002F580629042B5
:1017100014D002F58062904212D002F580629042AD
:1017200010D002F5806290423FF452AF082252E797
:10173000012250E702224EE703224CE704224AE747
:10174000052248E7062246E703B030BD704700BFD8
:1017500000380140003C01400038024000000240D7
:101760002DE9F04383B0D0F8008001EBC10300EB1A
:1017700083039A6A5B6A9A4254D807460C469B1ABE
:1017800001EBC10200EB8202D2699A4200D31A46F1
:1017900002F103094FEA990915E006F103094FEA3E
:1017A0009909BB7904EBC40507EB8505296A009309
:1017B000B3B2E2B2404602F077F82B6A33442B62B0
:1017C000AB6A3344AB6208EB441303F510639B69C7
:1017D0009BB24B4512D304EBC40307EB83039A6A15
:1017E0005B6A9A420AD24BB19B1A04EBC40207EB24
:1017F0008202D6699E42D0D31E46CEE704EBC403D4
:1018000007EB83077A6ABB6A9A420FD804F00F0489
:101810000122A240D8F8343823EA0203C8F8343849
:10182000002000E0012003B0BDE8F0830020FAE7CB
:1018300030B583B000287AD00446056890F8953416
:10184000C3B1032384F89534B5F1A04F17D02068B5
:1018500001F0DEFD237C8DF80030231D0ECB2068C7
:1018600001F015FD70B1022384F895340125284656
:1018700003B030BD80F8943403F006FCE1E70023A8
:10188000A371E4E70021206802F025FA024608B9B6
:10189000034617E0022384F895340125E7E703EBBC
:1018A000C30104EB8101012048750B75CB85002035
:1018B0000876C861086203EBC30104EB810148624A
:1018C0000133DBB220799842E9D816E002EBC2037B
:1018D00004EB8303002183F8551283F8542283F824
:1018E0005812C3F85C12C3F8601202EBC20304EB97
:1018F0008303C3F864120132D2B29042E6D8237C4B
:101900008DF80030231D0ECB206801F0D7FD054671
:1019100020B1022384F895340125A8E700236374DD
:10192000012384F89534206802F094F99FE701259B
:101930009DE7036890F89424012A1AD010B5044654
:10194000012280F89424DA6812F0400F02D0427B22
:10195000012A09D0206801F055FD206802F06CF9D9
:10196000002084F8940410BD9A6B42F480329A638C
:10197000F0E702207047000070B504460D4600688D
:10198000066C00EB411303F530639A68A1790129D5
:1019900011D038498E4256D03DB905EBC50304EB52
:1019A0008303D3F86432002B5ED0E9B2204603F003
:1019B000B5FB002070BD12F0080F09D02E498E42F1
:1019C000F7D912F4004FF4D04FF400429A60F0E7D8
:1019D00012F0200F02D020229A60EAE712F0280FBE
:1019E000E7D125498E4206D912F4004F03D04FF4B7
:1019F00000429A60DDE705EBC50204EB8202D2F8F3
:101A000074121B69C3F31203CB1AC2F868327DB992
:101A100005EBC50204EB8202D2F864226AB105EB41
:101A2000C50204EB8202D2F860121944C2F86012B7
:101A3000E9B2204603F072FBBBE704F29C420121AD
:101A400002F088F9F4E712F4004F03D04FF400429B
:101A50009A60AEE712F0200F01D020229A60E9B21E
:101A6000204603F05BFBA4E704F29C42002102F055
:101A700071F99AE70A31544F0A30544F38B5044689
:101A800003681D6C03EB4113D3F8081B0E4A954203
:101A900007D903F5306311F4004F02D04FF4004230
:101AA0009A60204603F032FB074B9D4202D9A3798E
:101AB000012B01D0002038BD04F29C420121206896
:101AC00002F048F9F6E700BF0A30544F90F894341A
:101AD000012B0CD010B50446012380F894344174D6
:101AE000006802F099F8002084F8940410BD0220E8
:101AF000704738B505468C4611F0800F2BD101F0A8
:101B00000F0E0EEBCE04A40004F514740444211D42
:101B10000EEBCE0E00EB8E0E00208EF855020CF070
:101B20000F0C81F800C0C2F30A028A600B714A7878
:101B30000AB1A1F81AC0022B1CD095F89434012BDD
:101B40001BD0012385F89434286801F092FD002011
:101B500085F8940438BD01F00F0000EBC001890046
:101B600010312944043100EBC00005EB8000012452
:101B70004475D4E700234B71DFE70220EAE710B594
:101B800004460A4611F0800F20D101F00F0000EB4F
:101B9000C0039B0003F514732344191D00EBC00020
:101BA00004EB8000002380F8553202F00F020A7027
:101BB00094F89434012B18D0012384F894342068CD
:101BC00001F0A4FD002084F8940410BD01F00F0082
:101BD00000EBC0039B0010332344191D00EBC00031
:101BE00004EB800001234375DFE70220EDE710B529
:101BF000144601F00F0C0CEBCC01890001F51471B7
:101C0000014404310CEBCC0E00EB8E0ECEF86022BA
:101C1000CEF864320023CEF868328EF855328EF852
:101C200054C28279012A04D0006801F055FE0020D8
:101C300010BDCEF87042F7E701F00F0101EBC101D2
:101C400000EB8100D0F86802704710B5144601F02F
:101C50000F0C0CEBCC0189001031014404310CEB6A
:101C6000CC0E00EB8E0ECEF82020CEF824300023D0
:101C7000CEF8283001238EF815308EF814C0827902
:101C80009A4204D0006801F027FE002010BDCEF873
:101C90003040F7E738B501F00F050279AA4238D392
:101CA00004460B4611F0800F1FD101EBC1018900E2
:101CB00001F514710144043103EBC30300EB83030A
:101CC000002283F8552201238B700D7094F8943410
:101CD000012B20D0012384F89434206801F041FFC7
:101CE00085B1002084F8940438BD05EBC501890056
:101CF00010310144043105EBC50300EB83030122DD
:101D00005A75E0E704F29C42A179206802F022F8BB
:101D1000E7E70120E8E70220E6E701F00F03027998
:101D20009A4230D310B5044611F0800F1ED103EB58
:101D3000C301890001F514710144043103EBC302AE
:101D400000EB8202002082F8550200228A700B709C
:101D500094F89434012B18D0012384F8943420682B
:101D600001F02CFF002084F8940410BD03EBC301A4
:101D7000890010310144043103EBC30200EB8202FD
:101D800001205075E1E7012070470220EDE708B51A
:101D900011F0800F0CD101F00F0101EBC10189009E
:101DA00001F5147101440431006801F01FFD08BD04
:101DB00001F00F0101EBC101890010310144043130
:101DC000F2E72DE9F04F83B004460568284601F09C
:101DD0007EFF10B103B0BDE8F08F0646206801F029
:101DE00047FF0028F6D005F50067BB68C3F30D2355
:101DF000C4F8D434206801F03BFF10F0020F04D087
:101E00002268536903F002035361206801F030FF38
:101E100010F0100F15D02268936923F0100393611E
:101E2000D5F8208008F00F0908F4F013B3F5802FDF
:101E30004CD0B3F5402F6FD02268936943F0100364
:101E40009361206801F014FF10F4002F76D1206810
:101E500001F00EFF10F4802F40F0E080206801F0C8
:101E600007FF0028C0F26181206801F001FF10F433
:101E7000006F09D0BB6813F0010F40F06E8122683B
:101E8000536903F400635361206801F0F1FE10F41C
:101E9000805F40F06681206801F0EAFE10F4005F88
:101EA00040F0B381206801F0E3FE10F0080F40F02D
:101EB000C481206801F0DCFE10F0800F00F0D781B3
:101EC000AB6923F08003AB610126C0E147F6F073F4
:101ED00018EA030FB0D04FEA181A4FEAC90301936A
:101EE00009EBC90B04EB8B0BC8F30A12DBF8601289
:101EF000284601F013FEDBF86032CAF30A0A5344A5
:101F0000CBF86032DBF86832019A4A4404EB820273
:101F10005344C2F868328FE7082204F29C412846F5
:101F200001F0FCFD09EBC90304EB8303D3F868223D
:101F3000C8F30A184244C3F868227DE7206801F01C
:101F40009BFE8046B14635E005EB49130122C3F8FC
:101F5000082B49462046FFF70FFD3CE005EB4913EF
:101F60000822C3F8082B49462046FFF787FD35E0D5
:101F700009EBC90304EB830393F85732012B41D0DB
:101F800005EB49130222C3F8082B1AF0200F04D0E6
:101F900005EB49132022C3F8082B1AF4005F05D083
:101FA00005EB49134FF40052C3F8082B09F101095E
:101FB0004FEA5808B8F1000F3FF449AF18F0010F8D
:101FC000F4D05FFA89FB5946206801F065FE82462D
:101FD00010F0010FB8D11AF0080FBFD11AF0100F8E
:101FE00004D005EB49131022C3F8082B1AF0020F96
:101FF000CBD06B6913F0800FBAD07B6843F4806359
:102000007B60B5E709EBC90304EB8303002283F887
:1020100057225946204603F0D1F8B1E7206801F075
:1020200033FE8046B14625E05946204603F082F84B
:102030001AF0080F04D005EB49130822C3F8082949
:102040001AF0100F04D005EB49131022C3F8082929
:102050001AF0400F04D005EB49134022C3F80829B9
:102060001AF0020F40D11AF0800F59D109F101097D
:102070004FEA5808B8F1000F3FF4F0AE18F0010F26
:10208000F4D05FFA89FB5946206801F00EFE8246C3
:1020900010F0010FCCD009F00F02012101FA02F279
:1020A0007B6B23EA02037B6305EB4913C3F8081932
:1020B000A3798B42B8D109EBC90304EB83031A6AF5
:1020C000D9690A441A62B9F1000FADD109EBC9030D
:1020D00004EB83035B6A002BA6D104F29C4201212E
:1020E000206801F037FE9FE74946284601F096F93F
:1020F00009EBC90304EB8303DB7D012B05D005EB62
:1021000049130222C3F80829ADE709EBC90304EB20
:1021100083030022DA755946204603F055F8EEE7AE
:1021200049462046FFF71CFBA0E77B6823F001032C
:102130007B6094F8CC34012B08D0204603F038F8AB
:102140002268536903F0004353618DE6002184F84F
:10215000CC14204600F03EF9F2E7204603F010F8D8
:102160008DE67B6823F001037B601021206801F07D
:1021700055F91AE005EB46134FF67F31C3F80819FD
:10218000D3F8002922F40012C3F80029C3F8081B71
:10219000D3F8002B22F40012C3F8002BD3F8002B45
:1021A00042F00062C3F8002B01362379B342E1D834
:1021B000FB6943F00113FB61E37BDBB1D7F88430AB
:1021C00043F00B03C7F884307B6C43F00B037B6454
:1021D000D5F8003823F4FE63C5F8003804F29C42B9
:1021E000A179206801F0B6FD2268536903F4805399
:1021F000536150E67B6943F4005343F02B037B614A
:102200003B6943F00B033B61E2E7206801F094FD7A
:10221000206801F01DFAE071266800F0F7FB014626
:10222000E279304601F07CF8204602F094FF226803
:10223000536903F40053536134E6204602F085FFEE
:102240002268536903F00803536132E601362379AB
:10225000B3420CD906EBC60304EB830393F8573261
:10226000012BF3D1F1B22046FFF791FDEEE7206894
:1022700001F0FEFC10F4801F25D1206801F0F8FC6D
:1022800010F4001F59D0012326E001362379B34210
:102290001BD905EB4613D3F8002906EBC60304EB64
:1022A00083031B7E012BF0D1002AEEDA06EBC60376
:1022B00004EB83030122DA7566F07F01C9B2204680
:1022C000FFF765FDE1E70126E0E72268536903F4C3
:1022D00080135361D1E7013322799A4228D905EB63
:1022E0004312D2F8001B03EBC30204EB820292F804
:1022F0005822012AEFD10029EDDA01F48031D4F817
:10230000D42402F001029142E5D103EBC30204EBB5
:102310008202012182F85712AA6942F08002AA6162
:102320006A6912F0800FD6D17B6843F400737B603A
:102330002268536903F400135361206801F098FC8C
:1023400010F0804F10D1206801F092FC10F0040FC3
:102350003FF440AD23685D6815F0040F0DD122688D
:1023600053682B43536035E5204602F033FF226863
:10237000536903F080435361E5E7204602F030FFE4
:10238000EDE710B40468606A29B940EA0240A0622F
:10239000002010BC70478C46A36A00EB134000235A
:1023A00008E003F1400104EB8101496800EB1140B2
:1023B0000133DBB20CF1FF318B42F2D340EA024031
:1023C0000CF13F0104EB81046060E1E703685962AE
:1023D0000020704770470000002800F0E08170B5D1
:1023E00082B00446036813F0010F3BD09F4B9B68FB
:1023F00003F00C03042B2CD09C4B9B6803F00C03C4
:10240000082B21D06368B3F5803F4FD0B3F5A02FE0
:1024100052D0964B1A6822F480321A601A6822F45D
:1024200080221A606368002B50D0FEF7ABFF054690
:102430008E4B1B6813F4003F14D1FEF7A3FF401B23
:102440006428F5D90320B1E1884B5B6813F4800F51
:10245000D8D0864B1B6813F4003F03D06368002B71
:1024600000F09F81236813F0020F54D07F4B9B68CC
:1024700013F00C0F3ED07D4B9B6803F00C03082B30
:1024800033D0E368002B68D0794B01221A60FEF745
:1024900079FF0546754B1B6813F0020F54D1FEF708
:1024A00071FF401B0228F5D903207FE16F4A1368B2
:1024B00043F480331360B5E76C4B1A6842F4802212
:1024C0001A601A6842F480321A60ABE7FEF75AFFCE
:1024D0000546664B1B6813F4003FC3D0FEF752FF5E
:1024E000401B6428F5D9032060E1604B5B6813F45E
:1024F000800FC6D15D4B1B6813F0020F03D0E36859
:10250000012B40F05081594A136823F0F8032169E8
:1025100043EAC1031360236813F0080F42D06369D4
:102520006BB3534B0122C3F8802EFEF72BFF0546F9
:102530004E4B5B6F13F0020F34D1FEF723FF401BAD
:102540000228F5D9032031E1484A136823F0F80343
:10255000216943EAC1031360DDE7454B00221A609D
:10256000FEF710FF0546414B1B6813F0020FD2D057
:10257000FEF708FF401B0228F5D9032016E13C4B6B
:102580000022C3F8802EFEF7FDFE0546374B5B6F39
:1025900013F0020F06D0FEF7F5FE401B0228F5D916
:1025A000032003E1236813F0040F77D02F4B1B6C3B
:1025B00013F0805F33D1002301932C4B1A6C42F04F
:1025C00080521A641B6C03F080530193019B012518
:1025D000284B1B6813F4807F23D0A368012B34D0D1
:1025E000052B38D0214B1A6F22F001021A671A6F9F
:1025F00022F004021A67A368002B3DD0FEF7C2FE4A
:1026000006461A4B1B6F13F0020F46D1FEF7BAFEB7
:10261000801B41F288339842F3D90320C6E000259D
:10262000D6E7144A136843F480731360FEF7AAFEDA
:102630000646104B1B6813F4807FCED1FEF7A2FE36
:10264000801B0228F5D90320B0E0084A136F43F03D
:1026500001031367CFE7054B1A6F42F004021A67B4
:102660001A6F42F001021A67C5E700BF0038024046
:102670000000474200700040FEF784FE0646524BC1
:102680001B6F13F0020F08D0FEF77CFE801B41F297
:1026900088339842F3D9032088E0EDB9A369002B71
:1026A00000F08380484A926802F00C02082A51D058
:1026B000022B17D0454B00221A66FEF763FE044634
:1026C000414B1B6813F0007F42D0FEF75BFE001BFE
:1026D0000228F5D9032069E03B4A136C23F08053AC
:1026E0001364DBE7394B00221A66FEF74BFE054602
:1026F000354B1B6813F0007F06D0FEF743FE401BEE
:102700000228F5D9032051E0E369226A1343626A83
:1027100043EA8213A26A5208013A43EA0243E26A98
:1027200043EA0263284A5360284B01221A66FEF7E7
:1027300029FE0446244B1B6813F0007F06D1FEF7E8
:1027400021FE001B0228F5D903202FE000202DE0F8
:1027500000202BE0012B2BD01B4B5B6803F4800186
:10276000E269914226D103F03F02216A8A4223D1D5
:10277000616A47F6C0721A40B2EB811F1ED103F4A2
:102780004031A26A5208013AB1EB024F18D103F06E
:102790007063E26AB3EB026F14D1002006E00120FF
:1027A0007047012002E0012000E0002002B070BD6F
:1027B0000120FBE70120F9E70120F7E70120F5E719
:1027C0000120F3E70120F1E7003802400000474212
:1027D00008B5334B9B6803F00C03042B5BD0082B2C
:1027E0005BD12F4B5A6802F03F025B6813F4800FF5
:1027F0002CD02B4B5868C0F388104FEA401CBCEB20
:10280000000C6EEB0E0E4FEA8E1343EA9C634FEA08
:102810008C11B1EB0C0163EB0E03DB0043EA517347
:10282000C90011EB000C43F10003590200234FEAE9
:102830004C2041EADC51FDF7C3FC194B5B68C3F344
:10284000014301335B00B0FBF3F008BD144B586843
:10285000C0F388104FEA401CBCEB000C6EEB0E0E70
:102860004FEA8E1343EA9C634FEA8C11B1EB0C01E3
:1028700063EB0E03DB0043EA5173C90011EB000C5C
:1028800043F10003990200234FEA8C2041EA9C5156
:10289000FDF796FCD1E70348D7E70348D5E700BF2B
:1028A0000038024000127A000024F400002800F0F2
:1028B0009B8070B50D4604464F4B1B6803F0070321
:1028C0008B4208D2CBB24C4A1370136803F0070353
:1028D0008B4240F08B80236813F0020F17D013F067
:1028E000040F04D0454A936843F4E053936023688F
:1028F00013F0080F04D0414A936843F46043936097
:102900003E4A936823F0F003A1680B439360236869
:1029100013F0010F32D06368012B21D09A1E012AD7
:1029200025D9364A126812F0020F61D033498A68FD
:1029300022F0030213438B60FEF724FD06462F4B63
:102940009B6803F00C036268B3EB820F16D0FEF7AE
:1029500019FD801B41F288339842F0D9032042E0F0
:10296000264A126812F4003FE0D101203BE0234ADE
:10297000126812F0007FD9D1012034E01E4B1B6891
:1029800003F00703AB4207D9EAB21B4B1A701B686E
:1029900003F00703AB422DD1236813F0040F06D0D8
:1029A000164A936823F4E053E1680B43936023686D
:1029B00013F0080F07D0114A936823F4604321698C
:1029C00043EAC1039360FFF703FF0C4B9B68C3F31B
:1029D00003130B4AD35CD8400A4B18600A4B1868A3
:1029E000FEF784FC002070BD012070470120FAE74B
:1029F0000120F8E70120F6E7003C024000380240E1
:102A0000E0B90008C0000020C8000020014B186891
:102A1000704700BFC000002008B5FFF7F7FF044B68
:102A20009B68C3F38223034AD35CD84008BD00BF30
:102A300000380240D8B9000808B5FFF7E7FF044B9B
:102A40009B68C3F34233034AD35CD84008BD00BF40
:102A500000380240D8B90008026802F10C0353E8BC
:102A6000003F23F490730C3242E800310029F3D187
:102A7000026802F1140353E8003F23F0010314320B
:102A800042E800310029F3D1036B012B05D020234C
:102A900080F84230002303637047026802F10C03A0
:102AA00053E8003F23F010030C3242E800310029C4
:102AB000F3D1ECE790F84130DBB2212B01D00220BA
:102AC00070478368B3F5805F17D0036A5A1C0262AF
:102AD0001A7803685A60C38C9BB2013B9BB2C384D3
:102AE0004BB90268D36823F08003D3600268D368CF
:102AF00043F04003D360002070470369002BE4D10A
:102B0000036A1B880268C3F308035360036A023335
:102B10000362E0E710B504460268136923F44053EA
:102B2000C1680B431361836802691A4343691A43FE
:102B3000C3691A430168CB6823F4164323F00C03DE
:102B40001343CB600268536923F4407381690B43DC
:102B500053610368314A934206D002F58062934282
:102B600002D0FFF759FF01E0FFF766FFE369B3F515
:102B7000004F29D00021031849411B1841F10001E1
:102B8000C90041EA5371DB00181863684FEA8302F9
:102B90004FEA937341F10001FDF712FB204AA2FBBB
:102BA00000314909642303FB11031B013233A2FBEB
:102BB00003235B0903F0F00202EB011203F00F03A1
:102BC000216813448B6010BD0023021843EB0301FE
:102BD000121841F10001C90041EA5271D2001018E7
:102BE00041F10001626892185B41FDF7E9FA0C4A75
:102BF000A2FB00314909642303FB1103DB003233DC
:102C0000A2FB03235B095A0002F4F87202EB0112E3
:102C100003F00703216813448B60D4E700100140E0
:102C20001F85EB512DE9F04383B005460E4617464C
:102C30009946DDF828802B681C6836EA04040CBF2E
:102C400001240024BC4228D1B8F1FF3FF3D0FEF7A5
:102C500099FBA0EB0900404523D8B8F1000F22D022
:102C60002B68DA6812F0040FE5D0802EE3D0402EF6
:102C7000E1D01A6812F0080FDDD0002401941A6820
:102C800001925B680193019B2846FFF7E5FE08234C
:102C90006B6485F84040012000E0002003B0BDE8EF
:102CA000F0830320FAE70320F8E760B310B5044689
:102CB00090F8413013B3242384F841302268D3685C
:102CC00023F40053D3602046FFF724FF22681369E2
:102CD00023F4904313612268536923F02A0353615C
:102CE0002268D36843F40053D3600020606420233B
:102CF00084F8413084F84230606310BD80F8403081
:102D0000FEF78CFAD7E7012070472DE9F04182B039
:102D10001E4690F84130DBB2202B56D104460D46BA
:102D20009046002955D00AB901204FE000234364A2
:102D3000212380F84130FEF725FB0746A4F82480C4
:102D4000A4F82680A368B3F5805F02D04FF0000896
:102D500014E023692BB34FF000080FE0202384F820
:102D60004130032032E038F8023B2268C3F3080305
:102D70005360E28C92B2013A92B2E284E38C9BB24D
:102D800093B100963B46002280212046FFF74AFF80
:102D90000028E3D1002DE6D015F8012B23685A60F6
:102DA000E7E7A8460025E9E700963B4600224021D8
:102DB0002046FFF737FF18B9202384F8413005E09B
:102DC000202384F84130032000E0022002B0BDE857
:102DD000F0810120FAE72DE9F04182B01E4690F81B
:102DE0004230DBB2202B59D104460D4690460029D3
:102DF00058D00AB9012052E000234364222280F80F
:102E000042200363FEF7BEFA0746A4F82C80A4F81C
:102E10002E80A368B3F5805F02D04FF000081CE05D
:102E2000236913B14FF0000817E0A846002514E00D
:102E3000202384F84230032031E023685B68C3F329
:102E4000080328F8023B03E023685B682B70013518
:102E5000E28D92B2013A92B2E285E38D9BB2C3B1A8
:102E600000963B46002220212046FFF7DBFE00288B
:102E7000DED1002DE1D0A368B3F5805FE4D013B9B3
:102E80002369002BE0D023685B6803F07F032B707D
:102E9000DDE7202384F84230002000E0022002B069
:102EA000BDE8F0810120FAE7704708B50168CA68FB
:102EB00022F04002CA60202280F84120FFF7F4FF90
:102EC000002008BD7047704708B5806B0023C3859C
:102ED000C384FFF7F8FF08BD704790F84230DBB2BB
:102EE000222B69D18368B3F5805F4FD0826AB3F536
:102EF000805F04D0002B56D10369002B53D10368A7
:102F00005B681370836A01338362C38D9BB2013B9C
:102F10009BB2C385002B51D100B583B00268D36842
:102F200023F02003D3600268D36823F48073D36056
:102F30000268536923F001035361202380F8423073
:102F400000234363036B012B33D100230363026827
:102F500002F10C0353E8003F23F010030C3242E867
:102F600000310029F3D103681A6812F0100F06D05F
:102F7000002201921A6801925B680193019B818D86
:102F8000FFF7AAFF002003B05DF804FB0269002AE6
:102F9000ACD1826A03685B68C3F308031380836A59
:102FA00002338362B1E703685B6803F07F03137049
:102FB000A8E7FFF787FFE5E702207047002070478A
:102FC00010B582B0044602681368D068516913F0E6
:102FD0000F0F09D113F0200F0CD010F0200F09D0E3
:102FE0002046FFF77AFF16E011F0010115D110F429
:102FF000907F12D1216B012979D013F0800F03D07B
:1030000010F0800F40F0148113F0400F03D010F047
:10301000400F40F0118102B010BD13F0010F06D037
:1030200010F4807F03D0626C42F00102626413F0FE
:10303000040F04D019B1626C42F00202626413F012
:10304000020F04D019B1626C42F00402626413F002
:10305000080F07D010F0200F00D119B1626C42F0B8
:1030600008026264626C002AD5D013F0200F02D0EF
:1030700010F0200F29D123685B6903F04003626CD4
:1030800012F0080F00D163B32046FFF7E5FC236878
:103090005B6913F0400F20D0226802F1140353E85B
:1030A000003F23F04003143242E800310029F3D1FD
:1030B000E36B73B1624A1A65E06BFEF743FA0028CE
:1030C000A9D0E06B036D9847A5E72046FFF705FF01
:1030D000D1E72046FFF7F7FE9DE72046FFF7F3FE16
:1030E00099E72046FFF7EFFE0023636493E713F0B0
:1030F000100F82D010F0100F3FF47FAF0023019328
:103100001368019353680193019B536913F0400FB7
:1031100052D0E26B13685B689BB2002B3FF47BAF2D
:10312000A18D99427FF677AFE385D369B3F5807FB0
:1031300037D0226802F10C0353E8003F23F4807378
:103140000C3242E800310029F3D1226802F1140365
:1031500053E8003F23F00103143242E80031002914
:10316000F3D1226802F1140353E8003F23F0400337
:10317000143242E800310029F3D1202384F8423090
:1031800000232363226802F10C0353E8003F23F07D
:1031900010030C3242E800310029F3D1E06BFEF756
:1031A00087F902236363A18DE38D9BB2C91A89B2AB
:1031B0002046FFF791FE2EE7A18DE38D9BB2C91A41
:1031C00089B2E38D9BB2002B3FF425AF00293FF479
:1031D00022AF226802F10C0353E8003F23F49073FE
:1031E0000C3242E800300028F3D1226802F11403C7
:1031F00053E8003F23F00103143242E80030002876
:10320000F3D1202384F8423000232363226802F1A3
:103210000C0353E8003F23F010030C3242E8003067
:103220000028F3D1022363632046FFF755FEF2E640
:103230002046FFF73FFCEEE62046FFF736FEEAE6C3
:10324000C92E000882B000230193019B0133019332
:10325000019BB3F1706F15D80369002BF5DA0023D9
:103260000193036943F001030361019B013301935F
:10327000019BB3F1706F08D8036913F0010FF4D10B
:10328000002000E0032002B070470320FBE784B079
:1032900010B5044603A880E80E009DF81130012BFC
:1032A00021D1A36B23F48033A363E36823F4840365
:1032B00023F04003E360E36823F44013E3609DF8E8
:1032C0001830012B0AD02046FFF7BCFF9DF80E30C6
:1032D000012B1CD0BDE8104004B07047E36843F4F4
:1032E0008013E360EFE7E36843F04003E3602046C8
:1032F000FFF7A8FF9DF8153023B9A36B43F4803383
:10330000A363E3E7A36B23F48033A363DEE7A3683F
:1033100043F00603A360A36843F02003A360D9E74A
:10332000022A0AD00922C36823F47053C360C36819
:1033300043EA8223C36000207047234B0B44234A97
:1033400093422FD9224B0B44224A93422CD9A1F508
:103350007403A3F51053204A934227D9A1F1837334
:10336000A3F5E7431D4A934222D31D4B0B441D4A4C
:1033700093421FD91C4B0B441C4A93421CD31C4B39
:103380000B441C4A934219D3A1F1B773A3F55853C8
:10339000194A934214D3194B0B44194A934211D240
:1033A0000722C0E70F22BEE70E22BCE70D22BAE7D4
:1033B0000C22B8E70B22B6E70A22B4E70922B2E7EB
:1033C0000822B0E70622AEE7405327FFFF340C0087
:1033D000401E1BFF3F420F007F4F120020D61300FC
:1033E00060B6E5FE5FE3160000D3CEFE40771B001B
:1033F000C05BB3FEC091210020753800E05459FE37
:10340000E09C4100836843F0010383600020704723
:10341000836823F0010383600020704782B000239B
:103420000193019B01330193019BB3F1706F15D898
:103430000369002BF5DA00230193890141F0200193
:103440000161019B01330193019BB3F1706F08D8B7
:10345000036913F0200FF4D1002000E0032002B034
:1034600070470320FBE782B000230193019B0133E7
:103470000193019BB3F1706F13D80369002BF5DA48
:103480000023019310230361019B01330193019BEE
:10349000B3F1706F08D8036913F0100FF4D1002056
:1034A00000E0032002B070470320FBE7D0F80038AB
:1034B0001943C0F8001800207047000084B0F8B528
:1034C000044607A880E80E00002306E003F140024E
:1034D00004EB82020021516001330E2BF6D99DF8D6
:1034E000266006BBD4F8043843F00203C4F804385D
:1034F000A36B43F40013A363A36B23F40023A36320
:10350000A36B23F48023A3630023C4F8003E9DF83B
:103510002130012B15D19DF81F306BB900212046B9
:10352000FFF7C4FF11E0A36B23F40013A363A36BA5
:1035300043F40023A363E7E701212046FFF7B6FF2A
:1035400003E003212046FFF7B1FF10212046FFF7DB
:1035500065FF054600B101252046FFF784FF00B155
:10356000012504F5006C0023CCF81030CCF81430A1
:10357000CCF81C300AE0CBB94FF00060C2F800096B
:1035800000220A614FF67F328A6001339DF81C10D9
:10359000994210D904EB431202F51061D2F80009E8
:1035A0000028E8DB0020C2F80009E9E74FF090406E
:1035B000C2F80009E4E700230AE0BBB14FF09047EE
:1035C000C2F8007B002202614FF67F328260013335
:1035D000994210D904EB431202F53060D2F8007B17
:1035E000002FEADB0027C2F8007BEBE74FF0006713
:1035F000C2F8007BE6E7DCF8103023F48073CCF8E7
:1036000010300023A3616FF0804363619DF81E308A
:103610001BB9A36943F01003A361A2690B4B1343C9
:10362000A3619DF822301BB1A36943F00803A36195
:10363000012E04D02846BDE8F84004B07047A369C5
:1036400043F0804343F00403A361F3E700383C8078
:10365000D0F8083803F00603022B04D0062B04D060
:103660002BB90020704702207047022070470F20BE
:10367000704710B591F800C04B78012B23D000F5AE
:10368000006ED0F81C380CF00F040122A24043EA6F
:103690000243C0F81C3800EB4C10D0F8003B13F488
:1036A000004F0ED1D0F8003B8A68C2F30A020979B4
:1036B00042EA8142134343F0805343F40043C0F88D
:1036C000003B002010BDD0F81C280CF00F0E03FAB0
:1036D0000EF39BB21343C0F81C3800EB4C10D0F82B
:1036E000003913F4004FECD1D0F800398A68C2F3E6
:1036F0000A02097942EA814242EA8C52134343F0BA
:10370000805343F40043C0F80039DAE730B40B7853
:103710004A78012A26D000EB4313D3F8002B002A65
:1037200052DBD0F83C480A7802F00F024FF0010C4F
:103730000CFA02F224EA0242C0F83C28D0F81C2815
:10374000097801F00F010CFA01FC22EA0C42C0F8E2
:103750001C28D3F8001B234A0A40C3F8002B002082
:1037600030BC704700EB4313D3F80029002A1EDB5E
:10377000D0F83C580A7802F00F02012404FA02F251
:1037800092B225EA0202C0F83C28D0F81C28097839
:1037900001F00F018C40A4B222EA0402C0F81C28F8
:1037A000D3F80019104A0A40C3F80029D7E7D3F824
:1037B000002942F00062C3F80029D3F8002942F042
:1037C0008042C3F80029D3E7D3F8002B42F000620F
:1037D000C3F8002BD3F8002B42F08042C3F8002B33
:1037E0009FE700BF0078F3EF007833EC10B483B0AC
:1037F000024600230193487801280AD00B7802EB97
:103800004313D3F8000B00282CDB002003B010BCBE
:1038100070470B7802EB4313D3F80049002C01DB0F
:103820000020F3E7D3F8004944F00064C3F80049EE
:103830000B7802EB4313D3F8004944F08044C3F8FB
:103840000049019B01330193019C42F210739C4299
:10385000DCD80B7802EB4313D3F80039002BF0DBF4
:103860000020D3E7D3F8000B40F00060C3F8000B52
:103870000B7802EB4313D3F8000B40F08040C3F801
:10388000000B019B01330193019842F2107398429F
:1038900008D80B7802EB4313D3F8003B002BF0DB86
:1038A0000020B3E70120B1E710B59DF8084084B9C6
:1038B00003334FEA930E4FF0000C08E000EB0233A5
:1038C00003F5805351F8044B1C600CF1010CF445D6
:1038D000F4D3002010BD0000F0B583B00C784B7815
:1038E000012B2DD000EB441C0CF530631D696FF3E8
:1038F00012051D611D696FF3DC451D61002C40F050
:10390000CE800C690CB18C680C618C680C621D69EE
:10391000C4F312042C431C611C6944F400241C6190
:10392000012A00F0DF800B79012B00F0E180DCF848
:10393000003B43F00443CCF8003B002003B0F0BD53
:103940000B6973BB00EB4413D3F810596FF3DC45DC
:10395000C3F81059D3F8105945F40025C3F810598D
:10396000D3F810596FF31205C3F81059012A54D037
:1039700000EB4414D4F8003943F00443C4F8003990
:103980000B79012B72D00B69002BD6D0D0F83438CC
:10399000097801F00F0101228A401343C0F834383E
:1039A000CBE700EB441303F510631D696FF31205B9
:1039B0001D611D696FF3DC451D6184B90E698D6859
:1039C000AE4200D90D611D6945F400251D611D69D8
:1039D0000E69C6F3120C45EA0C051D61C6E70D69B8
:1039E0008E683544013DB5FBF6F51E691FFA85FC6E
:1039F000494F07EAC54535431D610D79012DE6D1D3
:103A00001D6925F0C0451D611D694FEA4C7C0CF015
:103A1000C04C45EA0C051D61D9E7CB691BB100EB31
:103A20004412C2F814390B79012B08D000EB44146E
:103A3000D4F8003943F00443C4F800397DE7D0F8E6
:103A4000083813F4807F08D100EB4412D2F8003913
:103A500043F00053C2F80039E8E700EB4412D2F813
:103A6000003943F08053C2F80039DFE7D0F8083856
:103A700013F4807F0CD1D4F8003943F00053C4F81C
:103A8000003900920B8A0A78C968FFF70DFF54E7E6
:103A9000D4F8003943F08053C4F80039F1E70C69D9
:103AA00054B91C698D68C5F312052C431C611C694F
:103AB00044F400241C6133E78D682C44013CB4FBC2
:103AC000F5F4A4B204FB05F50D621D69124E06EA79
:103AD000C4442C431C611C690D6AC5F312052C43B8
:103AE0001C611DE7CA68002A3FF41DAF5A611AE73E
:103AF000D0F8083813F4807F06D1DCF8003B43F09F
:103B00000053CCF8003B12E7DCF8003B43F0805355
:103B1000CCF8003B0BE700BF0000F81F10B584464F
:103B200008464FEA920E02F00302002305E00CF56E
:103B30008051096840F8041B01337345F7D37AB10B
:103B40000CF5805CDCF800400021CBB2DB0024FAED
:103B500003F300F8013B0131013A92B2002AF4D19B
:103B600010BD0B784A78012A14D000EB4310D0F82E
:103B7000002B002A06DB2BB1D0F8003B23F080435A
:103B8000C0F8003BD0F8003B43F40013C0F8003B02
:103B90000020704700EB4310D0F80029002A06DB14
:103BA0002BB1D0F8003923F08043C0F80039D0F8A9
:103BB000003943F40013C0F80039E9E70B784A787C
:103BC000012A0ED000EB4310D0F8003B23F4001381
:103BD000C0F8003B0B79023BDBB2012B15D900206A
:103BE000704700EB4310D0F8003923F40013C0F8FD
:103BF00000390B79023BDBB2012BF0D8D0F8003949
:103C000043F08053C0F80039E9E7D0F8003B43F0B7
:103C10008053C0F8003BE2E7D0F8003823F4FE639D
:103C2000C0F80038D0F80038090101F4FE610B43F8
:103C3000C0F8003800207047D0F8003E23F003039E
:103C4000C0F8003ED0F8043823F00203C0F804386E
:103C500000207047D0F8003E23F00303C0F8003E78
:103C6000D0F8043843F00203C0F80438002070474D
:103C70004269806910407047D0F8183800F500603C
:103C8000C0691840000C7047D0F8183800F5006083
:103C9000C069184080B2704700EB4111D1F8082B81
:103CA00000F50060406910407047D0F81028D0F847
:103CB000343801F00F0C23FA0CF3DB01DBB21343B1
:103CC00000EB411000F510608068184070474069B3
:103CD00000F00100704738B50546C36823F0C043C3
:103CE000C360012913D019BBC36843F08043C3608C
:103CF00000240A20FDF74CFB0A342846FFF7E7FFB3
:103D000008B1C72CF5D9C82C14D0002038BDC36821
:103D100043F00053C36000240A20FDF739FB0A3446
:103D20002846FFF7D4FF0128EDD0C72CF4D9EAE7E5
:103D30000120EBE70120E9E7D0F800396FF30A032F
:103D4000C0F80039D0F8043843F48073C0F8043860
:103D50000020704710B4046C144B9C4203D9D0F877
:103D6000003B002B16DB0024C0F8104BD0F8104BA2
:103D700044F40024C0F8104BD0F8104B44F0180461
:103D8000C0F8104BD0F8104B44F0C044C0F8104BB2
:103D9000012902D0002010BC7047C0F8142BD0F8C5
:103DA000003B43F08023C0F8003BF3E70A30544F58
:103DB00010B5D0F8D43203F1B00250F822408CB1E3
:103DC00000EB820043687BB194F80002FF280DD01D
:103DD0009B6894F8012221469847FF2384F800321B
:103DE000002010BD0320FCE70020FAE70020F8E7E0
:103DF0000A2303800048704748010020F8B50646B2
:103E00000F4F8221384600F044FC05460121384618
:103E100000F03FFC04468121384600F03AFC0DB129
:103E20001022AA711CB1402222710022627118B1C5
:103E30004022027100224271432333800048F8BDC2
:103E4000CC000020F8B506460F4F8221384600F01E
:103E500020FC05460121384600F01BFC0446812168
:103E6000384600F016FC0DB11022AA711CB1402298
:103E700022710022627118B1402202710022427147
:103E8000432333800048F8BDCC000020F8B5064637
:103E90000F4F8221384600F0FCFB054601213846D1
:103EA00000F0F7FB04468121384600F0F2FB0DB12B
:103EB0001022AA711CB1002222710222627118B173
:103EC0000022027102224271432333800048F8BD70
:103ED000CC00002038B5D0F8D432B03350F823509D
:103EE00095B1044601F0CCF9C5F80C02D4F8D432EF
:103EF000B03304EB83046368DB6805F50371D5F820
:103F000004029847002038BD0320FCE738B5D0F8FC
:103F1000C852D0F8D432B03350F8234084B301F003
:103F20000F0303EB830200EB820292694AB103EBB9
:103F3000C30C05EB8C05ED69B2FBF5FC05FB1C22FF
:103F400092B10023C4F81432D0F8D432B03300EB6D
:103F5000830043681B69ABB10A4604F50471D4F8C9
:103F600008029847002038BD03EB830300EB83036E
:103F700000249C612346224601F0CAF92046F2E75C
:103F80000320F0E70020EEE7F0B583B0D0F8D4329C
:103F900003F1B00250F8227000228DF80720ADF82E
:103FA0000420002F7BD004460D46097811F06006EE
:103FB00034D0202E6CD1EA882AB311F0800F07D1BB
:103FC0006B7887F80032EA883F2A13D8D2B212E021
:103FD000B03300EB83035B689B6839466878984789
:103FE000EA88072A28BF07223946204600F008FF42
:103FF000002651E0402287F801223946204600F091
:1040000014FF002648E0B03300EB83035B689B6835
:10401000002229466878984700263DE06F780B2FEC
:1040200031D8DFE807F0063930303030303030300A
:10403000162690F89C32DBB2032B04D0294600F000
:1040400065FB032628E0022201A900F0D9FE3E46C6
:1040500022E090F89C32DBB2032B04D0294600F01A
:1040600055FB032618E001220DF1070100F0C8FE00
:1040700012E090F89C32DBB2032B0DD0294600F001
:1040800045FB032608E0294600F040FB032603E039
:10409000294600F03BFB0326304603B0F0BD032663
:1040A000FAE738B50446812101F012F90025258789
:1040B0000121204601F00CF9A4F878518221204614
:1040C00001F006F9A4F84C50A4F84E50D4F8D432BC
:1040D00003F1B00254F822209AB1B03304EB830309
:1040E0005B685B689847D4F8D432B03354F8230047
:1040F00001F0D0F8D4F8D432B03344F82350C4F8E7
:10410000BC52002038BD70B504464FF4077001F072
:10411000BDF8002849D005464FF40772002101F090
:10412000BBFCD4F8D432B03344F82350C4F8BC52AA
:10413000237C002B41D14FF40073022281212046C1
:1041400001F0BBF8012626874FF4007302223146A6
:10415000204601F0B2F8A4F878611023A4F84E309C
:10416000082303228221204601F0A7F80123A4F8A6
:104170004C300026C5F80462D4F8D432B03304EBD6
:1041800083035B681B689847C5F81462C5F818621A
:10419000D5F8042262B3257C1DBB4FF400730121C6
:1041A000204601F0BDF8284670BDD4F8D432B033B3
:1041B000002244F823200225F5E740230222812132
:1041C000204601F07AF80126268740230222314654
:1041D000204601F072F8A4F878611023A4F84E305C
:1041E000BEE740230121204601F09AF80025DAE7D6
:1041F0000225D8E739B1D0F8D432B03300EB8300D0
:1042000041600020704703207047D0F8D432B033AB
:1042100050F823302BB1C3F80812C3F81022002045
:10422000704703207047D0F8D432B03350F82330B1
:104230001BB1C3F80412002070470320704708B573
:10424000D0F8D432B03350F823208AB1D2F81432E7
:104250000BB1012008BD0123C2F81432D2F810328C
:10426000C362D2F80822812101F052F80020F1E760
:104270000320EFE710B5D0F8D432B03350F8232044
:1042800092B1047C44B94FF40073D2F804220121A6
:1042900001F046F8204610BD4023D2F80422012147
:1042A00001F03EF80024F5E70324F3E798B108B5E0
:1042B00003460020C3F8B802C3F8C402C3F8D00212
:1042C00009B1C3F8B412012183F89C121A70184680
:1042D00000F08CFF08BD0320704710B582B00023AA
:1042E000ADF80630B9B10446C0F8B812D0F8D422FF
:1042F000CB6A43B1AE3250F82230DB6A0DF10600D2
:104300009847C4F8D002D4F8D8320133C4F8D83270
:10431000002002B010BD0320FBE708B500F0C5FF88
:1043200008BD08B5D0F8B83213B11B68984708BD6E
:104330000020FCE708B5D0F8B8325B68984700B9B0
:1043400008BD0320FCE738B5044600F2AA2528463C
:1043500000F0C8F90123C4F89432B4F8B032C4F8BC
:10436000983294F8AA1201F01F03012B07D0022BF8
:104370000AD073B92946204600F08AFB38BD294689
:10438000204600F0C0FBF9E72946204600F0FDFB7F
:10439000F4E701F08001204600F0A2FFEEE7F8B557
:1043A0000446012380F89C320023C0F89432436015
:1043B000C0F8A43280F8A032D0F8B832DBB15B6824
:1043C000DBB1002198470746C8B9402300221146B7
:1043D000204600F072FF0126A4F864614025C4F86D
:1043E00060512B4600228021204600F066FFA68403
:1043F00025623846F8BD0027E7E70027E5E70327F1
:10440000E3E701740020704790F89C32DBB2042B84
:1044100004D090F89C32DBB280F89D32042380F8FF
:104420009C320020704790F89C32DBB2042B01D004
:104430000020704790F89D32DBB280F89C32F7E79D
:1044400008B590F89C32DBB2032B01D0002008BDE8
:10445000D0F8B832002BF9D0DB69002BF6D09847A2
:10446000F4E708B5D0F8D432AE3350F823205AB16F
:1044700090F89C32DBB2032B01D0002008BD136AF8
:1044800023B198470020F9E70320F7E70020F5E77C
:1044900008B5D0F8D432AE3350F823205AB190F892
:1044A0009C32DBB2032B01D0002008BD536A23B13C
:1044B00098470020F9E70320F7E70020F5E7002000
:1044C000704708B5012380F89C32D0F8B83223B188
:1044D0005B680179984710B908BD0020FCE703200C
:1044E000FAE7002070470020704738B504460D46B3
:1044F000002942D11346D0F89422032A01D008465D
:1045000038BDD0F85C11D0F86021914209D890F8FC
:10451000AA3203F01F03012B0ED0022B1BD028461A
:104520000FE0891AC0F85C118A4228BF0A46194672
:1045300000F08AFC2846E3E790F8AE12FFF7D1FFBF
:1045400020B994F89C32DBB2032B09D0204600F04E
:1045500083FC2846D4E790F8AE12FFF7C4FFEFE7DC
:1045600000F1AE0354F823301A69002AEED0C4F8E3
:10457000D4021B6920469847E8E701F07F01FFF766
:10458000B2FF90B994F89C32DBB2032BB8D100F1A2
:10459000AE0354F823309A69002AB1D0C4F8D4028B
:1045A0009B69294620469847AAE70020A8E738B526
:1045B00004460D4600294BD11346D0F89422022A16
:1045C00007D094F8A00218B1002384F8A03228463E
:1045D00038BDC269016A8A420ED88A4218D094F85E
:1045E0009C32DBB2032B27D08021204600F078FEDE
:1045F000204600F03CFCE4E7521AC261194600F084
:104600000CFC00231A461946204600F089FED8E724
:1046100083699942E3D8D0F898229342DFD20022EE
:10462000114600F0FAFB0021C4F898120B460A4626
:10463000204600F075FEC4E7D4F8B832DA68002AE4
:10464000D2D00022C4F8D422DB6820469847CBE7BA
:1046500041F08001FFF747FF90B994F89C32DBB23C
:10466000032BB5D100F1AE0354F823305A69002A68
:10467000AED0C4F8D4025B69294620469847A7E724
:104680000020A5E70B88027813440B8003781844B8
:104690007047428803789A4218D930B583B00446EF
:1046A0000D46ADF806306388BDF806209A420AD25E
:1046B0000DF10601FFF7E6FF4378052BF3D1837870
:1046C000AB42F0D100E0002003B030BD00207047C5
:1046D0000346002002E00130C0B201331A78002AFC
:1046E000F9D170470B7803704B7843708B78CA7898
:1046F00043EA022343800B794A7943EA0223838009
:104700008B79CA7943EA0223C380704710B5044607
:10471000802100F0E5FD0021204600F0E1FD10BD04
:1047200030B583B004460D460023ADF806304A8804
:10473000130A013B062B00F2AB80DFE803F0041FF5
:1047400033A9A98D9A00D0F8B4321B680DF1060187
:10475000007C9847EA88002A00F0A380BDF8063064
:10476000002B00F099809A4228BF1A46ADF8062027
:104770000146204600F044FB03B030BD037C43B942
:10478000D0F8B8329B6A0DF10600984702234370B7
:10479000E0E7D0F8B832DB6A0DF106009847022353
:1047A0004370D7E7D2B2052A52D8DFE802F00310EF
:1047B0001D2A3744D0F8B4325B6823B10DF10601ED
:1047C000007C9847C6E72946FFF7A0FFD4E7D0F85A
:1047D000B4329B6823B10DF10601007C9847B9E71C
:1047E0002946FFF793FFC7E7D0F8B432DB6823B15F
:1047F0000DF10601007C9847ACE72946FFF786FFDC
:10480000BAE7D0F8B4321B6923B10DF10601007C80
:1048100098479FE72946FFF779FFADE7D0F8B43214
:104820005B6923B10DF10601007C984792E72946A8
:10483000FFF76CFFA0E7D0F8B4329B6923B10DF10C
:104840000601007C984785E72946FFF75FFF93E75D
:104850002946FFF75BFF8FE7037C33B9D0F8B83206
:104860005B6B0DF10600984774E72946FFF74EFF92
:1048700082E7037C43B9D0F8B8321B6B0DF1060018
:1048800098470723437065E72946FFF73FFF73E723
:104890002946FFF73BFF6FE729462046FFF736FF23
:1048A0006AE7204600F0D8FA66E738B504468B88F8
:1048B000FBB9CB88EBB94B887F2B1AD803F07F0567
:1048C00090F89C32DBB2032B0CD080F89E52294624
:1048D00000F016FD204600F0BFFA35B1022384F83F
:1048E0009C3209E0FFF712FF06E0012384F89C32B6
:1048F00002E02046FFF70AFF38BD000070B504460D
:104900000E468D782F4B1D70012D10D890F89C32DB
:10491000DBB2022B0FD0032B26D0FFF7F7FE294B7B
:1049200019782046FFF706FD0325284670BDFFF7DE
:10493000EDFE0325F9E7A5B145602946FFF7F1FC37
:10494000054638B131462046FFF7E0FE022384F8E1
:104950009C32EAE7204600F07FFA032384F89C3279
:10496000E3E700F079FAE0E7CDB141688D4225D068
:10497000C9B2FFF7DFFC134B197861602046FFF7DF
:10498000D0FC0546B0B131462046FFF7BFFE217985
:104990002046FFF7CFFC022384F89C32C5E70223B0
:1049A00080F89C3245602946FFF7C4FC204600F0A1
:1049B00053FABAE7204600F04FFAB6E700F04CFA97
:1049C0000025B2E70809002008B5CB88012B0BD1E0
:1049D00090F89C32DBB2022B09D9032B11D10122B2
:1049E000011D00F00DFA01E0FFF790FE08BD5BB27B
:1049F0003BB10146002341F8083F012200F000FAD4
:104A0000F4E7FFF783FEF1E708B590F89C32013B2D
:104A1000022B12D8CB88022B0CD10123C360D0F813
:104A2000A4320BB10323C360022200F10C0100F099
:104A3000E7F908BDFFF76AFEFBE7FFF767FEF8E757
:104A400008B54B88012B04D0022B07D0FFF75EFE80
:104A500008BDC0F8A43200F0FFF9F9E78B881B0A03
:104A600080F8A03200F0F8F9F2E708B590F89C322F
:104A7000013B022B09D84B88012B00D008BD002335
:104A8000C0F8A43200F0E8F9F8E7FFF73FFEF5E7D9
:104A900038B50C7804F06004202C06D0402C04D0EB
:104AA0006CB1FFF733FE002407E0D0F8D432AE3308
:104AB00050F823309B6898470446204638BD4D780F
:104AC000092D1DD8DFE805F012191C161C08051C5D
:104AD0000F0BFFF725FEF0E7FFF7E7FEEDE7FFF727
:104AE0000DFF0446E9E7FFF76FFFE6E7FFF78CFFEE
:104AF0002C46E2E7FFF7A4FFDFE7FFF7B6FFDCE7AE
:104B0000FFF704FED9E770B505460C460B7803F0B5
:104B10006003202B07D0402B05D023B1FFF7F6FD13
:104B20000026304670BD95F89C32013B022B26D8FA
:104B30002179012905D921462846FFF7E7FD0026FE
:104B4000EFE72846FFF7CDFC68B900F1AE0255F853
:104B50002220916889B1C5F8D4029368214628467D
:104B60009847064600E00326E388002BD9D1002EA3
:104B7000D7D1284600F070F9D3E70326F4E72146A1
:104B80002846FFF7C3FD0026CBE72DE9F041064696
:104B90000D468B88DFB20C7804F06004202C08D01E
:104BA000402C06D0DCB1FFF7B1FD00242046BDE863
:104BB000F08139463046FFF796FC0446002840F065
:104BC000F880C6F8D40200F1AE0356F823309B6893
:104BD000002BEBD02946304698470446E6E791F88B
:104BE0000180B8F1010F31D0B8F1030F05D0B8F151
:104BF000000F67D0FFF78AFDD8E790F89C32DBB250
:104C0000022B04D0032B12D0FFF780FDCEE70FB1AB
:104C1000802F04D129463046FFF778FDC6E7394694
:104C200000F05EFB8021304600F05AFBBEE74B8867
:104C300023B91FB1802F01D0CB881BB1304600F0C3
:104C40000BF9B3E7394600F04BFBF7E790F89C32DD
:104C5000DBB2022B04D0032B12D0FFF757FDA5E7E0
:104C60000FB1802F04D129463046FFF74FFD9DE755
:104C7000394600F035FB8021304600F031FB95E7E6
:104C80004B88002B92D117F07F0F17D1304600F0E0
:104C9000E3F839463046FFF726FC002886D1C6F8EF
:104CA000D40200F1AE0256F822209268002A00F0E9
:104CB0008280294630469047044677E7394600F01F
:104CC00017FBE3E790F89C22D2B2022A05D0032A10
:104CD00027D0FFF71BFD444668E70FB1802F13D1A3
:104CE00013F0800F14D107F07F0707EB8707B90097
:104CF00001F5A8713144043100230B6002223046D3
:104D000000F07EF8444651E7FFF700FD44464DE7CA
:104D100007F07F0707EB8707B900103131440431F2
:104D2000EAE75BB2002B1FDB07F00F0202EB820207
:104D300000EB8202B2F864211AB3002B25DB07F0E6
:104D40007F0303EB83039C0004F5A874344404340C
:104D50000FB1802F22D1002323600222214630464A
:104D600000F04EF8444621E707F00F0202EB820202
:104D700000EB8202928C002ADFD1FFF7C7FC444689
:104D800014E7FFF7C3FC444610E707F07F0303EB8B
:104D900083039C00103434440434D9E73946304648
:104DA00000F058FA10B101232360D6E700232360F6
:104DB000D3E70024FAE60446F8E600B370B50D46E2
:104DC00016460446FFF784FC01304300B3F5007F2C
:104DD00006D89BB233802B7003236B7002230AE04A
:104DE0004FF40073F6E7EA5401345A1CD2B20021A2
:104DF000A9540233DBB22278002AF4D170BD704787
:104E000008B513460222C0F894228361C3610A46A2
:104E1000002100F07DFA002008BD08B513460A46BF
:104E2000002100F075FA002008BD08B513460322E2
:104E3000C0F89422C0F85831C0F85C310A4600210D
:104E400000F06EFA002008BD08B513460A4600219E
:104E500000F066FA002008BD08B50422C0F89422CC
:104E600000231A46194600F053FA002008BD08B581
:104E70000522C0F8942200231A46194600F050FA81
:104E8000002008BD08B500220F491048FFF70EFAB0
:104E900070B90F490D48FFF720FA60B90D490B486A
:104EA000FFF7A8F950B90948FFF737FA48B908BD24
:104EB000FCF702F8EDE7FBF7FFFFEFE7FBF7FCFF7E
:104EC000F1E7FBF7F9FFF2E79C0100200C09002055
:104ED000100100205401002000207047002070477E
:104EE0000020704710B50146044C2046FFF79BF99F
:104EF0002046FFF7BFF9002010BD00BF0C090020BD
:104F000010B5064C002206492046FFF77EF90549F8
:104F10002046FFF788F9002010BD00BF0C090020D3
:104F2000E80B0020E8130020094BD3F8BC32D3F87B
:104F300014320BB10120704710B5054C0A460146EA
:104F40002046FFF762F92046FFF779F910BD00BF50
:104F50000C09002012230B800048704788010020B4
:104F600004230B80004870478401002000239342F3
:104F70001ED200B510E00CF1370C01F813C000018F
:104F80004FEA430C0CF1010C4FF0000E01F80CE05D
:104F90000133DBB2934209D24FEA107CB0F1204FCB
:104FA000E9D20CF1300C01F813C0E8E75DF804FB1E
:104FB0007047000038B50B4BD3F8100AD3F8144AE9
:104FC000D3F8183AC01800D138BD074D0822294639
:104FD000FFF7CCFF042205F110012046FFF7C6FFC2
:104FE000F2E700BF0070FF1F6A01002008B51A2316
:104FF0000B80FFF7DFFF014808BD00BF68010020FC
:1050000008B50A4628B905490548FFF7D6FE034802
:1050100008BD02490248FFF7D0FEF8E7E81B002070
:10502000E8B7000810B50A46034C21460348FFF7CD
:10503000C4FE204610BD00BFE81B002000B80008D9
:1050400008B50A4628B905490548FFF7B6FE0348E2
:1050500008BD02490248FFF7B0FEF8E7E81B002050
:1050600014B8000808B50A4628B905490548FFF7ED
:10507000A4FE034808BD02490248FFF79EFEF8E778
:10508000E81B002020B8000830B589B00023039346
:1050900004930593069307930368B3F1A04F01D0DF
:1050A00009B030BD00250195164C236B43F0010378
:1050B0002363236B03F001030193019B4FF4C0535F
:1050C000039302230493032306930A23079303A95C
:1050D0000D48FCF74BFA636B43F080036363029562
:1050E000636C43F480436364636C03F48043029312
:1050F000029B2A4629464320FCF7B2F94320FCF7DD
:10510000BFF9CDE7003802400000024008B500F2C8
:105110009C41D0F8E004FFF716F908BD08B501EB93
:10512000C10300EB8303D3F86022D0F8E004FFF75B
:10513000DCF908BD08B501EBC10300EB83031A6A73
:10514000D0F8E004FFF733FA08BD08B5D0F8E00462
:10515000FFF776F908BD10B50446C17911B10229EF
:1051600009D10121D4F8E004FFF74BF9D4F8E004A9
:10517000FFF715F910BDFBF79FFE0121F2E70000D4
:1051800010B50446D0F8E004FFF73EF92268D2F8E3
:10519000003E43F00103C2F8003EE37A23B1034A24
:1051A000136943F00603136110BD00BF00ED00E07A
:1051B00008B5D0F8E004FFF736F908BD08B5D0F817
:1051C000E004FFF765F908BD08B5D0F8E004FFF783
:1051D00048F908BD08B5D0F8E004FFF770F908BD3C
:1051E00008B5D0F8E004FFF76CF908BD02780AB101
:1051F0000020704710B503461548C0F8E034C3F8E6
:10520000C8024FF0A0430360042303710222C2715D
:105210000023837142728372C37203738373C373F7
:10522000FCF706FB80B90A4C80212046FDF7CEF83A
:10523000402200212046FDF7A4F8802201212046CB
:10524000FDF79FF8002010BDFBF736FEEBE700BF2F
:1052500008200020D0F8C83211F0800F08D101F0EA
:105260007F0101EBC10103EB810393F85602704704
:1052700001F07F0101EBC10103EB8103987D7047D1
:1052800008B5D0F8C802FCF7D7FC08BD0048704745
:10529000E81D00207047032805D8DFE800F005046A
:1052A0000205012070470320704708B5D0F8C802F6
:1052B000FCF73FFBFFF7EFFF08BD08B594461A4621
:1052C0006346D0F8C802FCF714FCFFF7E4FF08BD02
:1052D00008B5D0F8C802FCF752FCFFF7DCFF08BDA8
:1052E00008B5D0F8C802FCF7D5FCFFF7D4FF08BD1D
:1052F00008B5D0F8C802FCF710FDFFF7CCFF08BDD9
:1053000008B5D0F8C802FCF7E1FBFFF7C4FF08BD01
:1053100008B5D0F8C802FCF798FCFFF7BCFF08BD41
:1053200008B5D0F8C802FCF762FCFFF7B4FF08BD6F
:105330002DE9F047089D0E4604460F46002B4AD142
:1053400094468C45B2FA82F260D942B1C2F1200390
:10535000974020FA03F30CFA02FC1F4394404FEAF3
:105360001C4E1FFA8CF6B7FBFEF1230C0EFB1177D7
:1053700043EA074301FB06F098420AD91CEB0303FA
:1053800001F1FF3780F01581984240F21281023915
:1053900063441B1AA4B2B3FBFEF00EFB103344EAC5
:1053A000034400FB06F6A6420AD91CEB040400F1F4
:1053B000FF3380F00081A64240F2FD806444023851
:1053C00040EA0140A41B00211DB1D4400023C5E9DF
:1053D0000043BDE8F0878B4205D90DB1C5E9000156
:1053E00000210846F5E7B3FA83F1002946D1B3421C
:1053F00002D3824200F2F580841A66EB0302012098
:105400001746002DE5D0C5E90047E2E7002A40F045
:105410009380A1EB0C034FEA1C471FFA8CFE01217D
:10542000B3FBF7F607FB1630230C43EA00430EFBF1
:1054300006F0984208D91CEB030306F1FF3802D2AC
:10544000984200F2D08046461B1AA4B2B3FBF7F094
:1054500007FB103344EA03440EFB00FEA64508D9BF
:105460001CEB040400F1FF3302D2A64500F2B68023
:105470001846A4EB0E0440EA0640A5E7C1F1200758
:105480008B4022FA07FC4CEA030C06FA01FE20FAD4
:1054900007F426FA07F344EA0E0400FA01F84FEA8B
:1054A0001C404FEA1449B3FBF0FE1FFA8CF600FBD8
:1054B0001E3349EA03430EFB06F9994502FA01F24D
:1054C0000BD91CEB03030EF1FF3A80F08580994560
:1054D00040F28280AEF1020E6344A3EB0909A4B24C
:1054E000B9FBF0F300FB139944EA094403FB06F609
:1054F000A64208D91CEB040403F1FF3068D2A6428F
:1055000066D9023B644443EA0E40A41BA0FB02E6BA
:10551000B4427346B14652D34FD05DB1B8EB0302EB
:1055200064EB090404FA07F722FA01F31F43CC40A5
:10553000C5E9007400214CE7C2F1200120FA01F313
:105540000CFA02FC26FA01F1964033434FEA1C475D
:105550001FFA8CFEB1FBF7F007FB1016190C41EA9D
:10556000064100FB0EF68E4204FA02F408D91CEB49
:10557000010100F1FF382DD28E422BD9023861444F
:10558000891B9BB2B1FBF7F607FB161143EA0143F7
:1055900006FB0EF1994208D91CEB030306F1FF3814
:1055A00014D2994212D9023E63445B1A46EA004182
:1055B00036E73946EDE6184602E7F045ADD2BEEBD8
:1055C000020366EB0C060138B146A6E74646ECE757
:1055D000034698E74046D3E7D6467EE76444023860
:1055E00047E708460DE7023E63442DE7242B2DE9EB
:1055F000F84F43D8012B41D0804649481F468E467C
:1056000075461EF801BB10F80B4014F00804F7D1E2
:10561000BBF12D0F6FD0BBF12B0F08BF9EF800B070
:105620006FF0004908BF05F1020E73BBBBF1300FEC
:105630004BD00A273B460025B9FBF7F6284607FB67
:10564000169A05E03AD007FB00C001251EF801BB01
:10565000ABF1300CBCF1090F06D9ABF1410CBCF138
:10566000190F19D8ABF1370C63451EDDB5F1FF3FBB
:10567000ECD08642E6D24FF0FF35E7E700F0B2FA11
:10568000162303600020BDE8F88F102BD3D1BBF1A7
:10569000300F23D01F46CEE7ABF1610CBCF1190FE0
:1056A00003D8ABF1570C6345E0DC6B1C2BD054B92D
:1056B000002AE8D085BB1160BDE8F88FE245C2DA68
:1056C0004FF0FF35C2E74042F2E79EF8003003F0AA
:1056D000DF03582B08D008273B46ACE79EF80000B4
:1056E00000F0DF005828D5D110279EF801B03B46C6
:1056F0000EF1020E9FE79EF800B04FF0004905F151
:10570000020E012491E72223C8F8003032B10EF1D5
:10571000FF3148461160CFE78146F8E74846B2E7D7
:10572000F1B9000810B4044C84461346206810BC3C
:105730000A466146FFF75ABFC4010020024A0349E6
:10574000034800F0C9B800BFB8010020618000081C
:10575000C80100200C4B4168994210B5044601D0A5
:1057600002F07EFCA168094B994202D0204602F06B
:1057700077FCE168064B994204D02046BDE8104012
:1057800002F06EBC10BD00BFEC24002054250020A8
:10579000BC2500202DE9F843314A324C3249DFF86C
:1057A000CC90DFF8CC80334F1160002504232946CC
:1057B000082204F15C00C4E903352F4EA560C4E95A
:1057C0000055C4E90555656600F066F904F1580016
:1057D000C4E90749C4E90987E66200F031FA2946BD
:1057E000264B6367082204F1C400C4E91A55C4E9D2
:1057F0001E552567C4F8CC50C4F8805000F04CF911
:1058000004F1680304F1C000C4F88430C4E92298AC
:10581000C4E9247600F014FA194BC4F8DC302946A8
:1058200004F596700822C4E93455C4E93855C4F823
:10583000D850C4F83451C4F8E85000F02DF904F100
:10584000D003C4E93D87C4F8F09004F59470C4F81F
:10585000FC60C4F8EC30BDE8F84300F0F1B900BFDB
:1058600024260020EC2400203D570008AD590008F4
:10587000D1590008115A0008355A000809000100E2
:105880001200020010B504460A4800F0DDF9636B0F
:1058900023B9094B094A1B68626323B1BDE8104074
:1058A000044800F0D3B9FFF775FFBDE81040014888
:1058B00000F0CCB9342600202426002055570008DB
:1058C000014800F0C1B900BF34260020014800F0B3
:1058D000BDB900BF342600202DE9F84307468846AD
:1058E00016464FF00009D6E90154013D10D4A389B2
:1058F000012B08D9B4F90E3001332146384602D0C5
:10590000C04749EA0009013D6B1C04F16804EED16F
:105910003668002EE7D14846BDE8F8830CB410B5D0
:10592000214B00291C689CB038DB4FF000034FF47A
:1059300002721B93ADF81420029006901FAB18D092
:1059400001394FF6FF7204910791ADF8162002A9B4
:105950001E9A0193204600F0A1FD421C01DA8B2320
:105960002360029B00221A701CB0BDE8104002B0F8
:1059700070474FF6FF7204910791ADF8162002A907
:105980001E9A0193204600F089FD431C01DA8B2307
:1059900023601CB0BDE8104002B070478B23236029
:1059A0004FF0FF30F5E700BFC401002010B50C46F2
:1059B000B1F90E1000F0EAF8002803DB236D034470
:1059C000236510BDA38923F48053A38110BD00BFBC
:1059D0002DE9F0410C46B1F90C101F46CB050546E8
:1059E00016460BD421F48051A1813B46B4F90E1028
:1059F00032462846BDE8F04100F0DEB8B4F90E109A
:105A00000223002200F0ACF8B4F90C10EAE700BF62
:105A100010B50C46B1F90E1000F0A2F8B4F90C3034
:105A2000421C0EBF23F4805343F480532065A381AE
:105A300010BD00BFB1F90E1000F080B8032A30B4D9
:105A400015D941EA0004A40784460B4604D0541E2D
:105A50000FE0043A032A08D91946604653F8044B6C
:105A60005CF8045BA542F4D0F1E760461946541E89
:105A70007AB1431E0139021901E09A4209D013F8A4
:105A8000010F11F801CF6045F7D0A0EB0C0030BC3E
:105A90007047002030BC7047830730B547D0541E94
:105AA000002A3ED0CAB2034601E0013C39D303F8D4
:105AB000012B9D07F9D1032C2CD9CDB205EB05257F
:105AC0000F2C05EB054535D9A4F1100222F00F0C7F
:105AD00003F1100EE6444FEA121C1A46C2E90055C3
:105AE000C2E9025510327245F8D10CF1010214F0EE
:105AF0000C0F03EB021204F00F0C13D0ACF10403F3
:105B000023F003030433134442F8045B9342FBD1B4
