:020000040800F2
:1000000000000220F1120008391100083B1100081D
:100010003D1100083F1100084111000800000000D8
:100020000000000000000000000000004311000874
:1000300045110008000000004711000849110008A0
:100040004113000841130008411300084113000840
:100050004113000841130008411300084113000830
:100060004113000841130008411300084113000820
:100070004113000841130008411300084113000810
:100080004113000841130008411300084113000800
:1000900041130008411300084113000841130008F0
:1000A00041130008411300084113000841130008E0
:1000B00041130008411300084113000841130008D0
:1000C00041130008411300084113000841130008C0
:1000D00041130008411300085111000841130008A2
:1000E00041130008411300084113000841130008A0
:1000F0004113000841130008411300084113000890
:100100004113000861110008411300084113000861
:10011000411300084113000841130008411300086F
:10012000411300084113000841130008411300085F
:10013000411300084113000841130008411300084F
:100140004113000841130008411300087111000811
:10015000411300084113000841130008411300082F
:10016000411300084113000841130008411300081F
:10017000411300084113000841130008000000006B
:080180004113000841130008BF
:1001C00053B94AB9002908BF00281CBF4FF0FF31BE
:1001D0004FF0FF3000F00CB8ADF1080C6DE904CE23
:1001E00008F0A0FBDDF804E0DDE9022304B070476D
:1001F000704700BF00000000000000000000000089
:1002000030B490F800F020F007016FF0000C10F00F
:10021000070491F820F040F048804FF000046FF0A0
:100220000700D1E9002391F840F000F1080082FABC
:100230004CF2A4FA8CF283FA4CF3A2FA8CF34BBB87
:10024000D1E9022382FA4CF200F10800A4FA8CF200
:1002500083FA4CF3A2FA8CF3E3B9D1E9042382FACE
:100260004CF200F10800A4FA8CF283FA4CF3A2FAE3
:100270008CF37BB9D1E9062301F1200182FA4CF21B
:1002800000F10800A4FA8CF283FA4CF3A2FA8CF382
:10029000002BC6D0002A04BF04301A4612BAB2FAA4
:1002A00082F200EBD20030BC7047D1E9002304F0A9
:1002B0000305C4F100004FEAC50514F0040F91F8DE
:1002C00040F00CFA05F562EA05021CBF63EA05037B
:1002D00062464FF00004AAE70000000000000000A2
:1002E00001F0FF01102A2BDB10F0070F08D010F8E7
:1002F000013B013A8B422DD010F0070F42B3F6D1EB
:10030000F0B441EA012141EA014122F007047FF003
:1003100000070023F0E80256083C85EA010586EA5A
:10032000010685FA47F5A3FA87F586FA47F6A5FA96
:1003300087F68EB9EED1F0BC01F0FF0102F00702A2
:1003400032B110F8013B013A83EA010313B1F8D14D
:100350000020704701387047002D06BF354603382E
:10036000073815F0010F07D1013015F4807F02BF67
:10037000013015F4C03F0130F0BC0138704700BFB8
:10038000844641EA000313F003036DD1403A41D3A0
:1003900051F8043B40F8043B51F8043B40F8043B5F
:1003A00051F8043B40F8043B51F8043B40F8043B4F
:1003B00051F8043B40F8043B51F8043B40F8043B3F
:1003C00051F8043B40F8043B51F8043B40F8043B2F
:1003D00051F8043B40F8043B51F8043B40F8043B1F
:1003E00051F8043B40F8043B51F8043B40F8043B0F
:1003F00051F8043B40F8043B51F8043B40F8043BFF
:1004000051F8043B40F8043B51F8043B40F8043BEE
:10041000403ABDD2303211D351F8043B40F8043B8E
:1004200051F8043B40F8043B51F8043B40F8043BCE
:1004300051F8043B40F8043B103AEDD20C3205D39E
:1004400051F8043B40F8043B043AF9D2043208D096
:10045000D2071CBF11F8013B00F8013B01D30B8808
:1004600003806046704700BF082A13D38B078DD0E6
:1004700010F003038AD0C3F10403D21ADB071CBFB8
:1004800011F8013B00F8013B80D331F8023B20F822
:10049000023B7BE7043AD9D3013A11F8013B00F85B
:1004A000013BF9D20B7803704B7843708B788370E3
:1004B0006046704781F0004102E000BF83F00043D6
:1004C00030B54FEA41044FEA430594EA050F08BFEF
:1004D00090EA020F1FBF54EA000C55EA020C7FEAB3
:1004E000645C7FEA655C00F0E2804FEA5454D4EB30
:1004F0005555B8BF6D420CDD2C4480EA020281EAFA
:10050000030382EA000083EA010180EA020281EA31
:100510000303362D88BF30BD11F0004F4FEA013183
:100520004FF4801C4CEA113102D0404261EB410192
:1005300013F0004F4FEA03334CEA133302D0524218
:1005400063EB430394EA050F00F0A780A4F10104D4
:10055000D5F1200E0DDB02FA0EFC22FA05F280180E
:1005600041F1000103FA0EF2801843FA05F35941F4
:100570000EE0A5F120050EF1200E012A03FA0EFC73
:1005800028BF4CF0020C43FA05F3C01851EBE3719D
:1005900001F0004507D54FF0000EDCF1000C7EEBBA
:1005A00000006EEB0101B1F5801F1BD3B1F5001FF8
:1005B0000CD349085FEA30004FEA3C0C04F1010417
:1005C0004FEA445212F5800F80F09A80BCF1004F40
:1005D00008BF5FEA500C50F1000041EB045141EAC2
:1005E000050130BD5FEA4C0C404141EB0101013C8B
:1005F00028BFB1F5801FE9D291F0000F04BF01467A
:100600000020B1FA81F308BF2033A3F10B03B3F14B
:1006100020020CDA0C3208DD02F1140CC2F10C02DB
:1006200001FA0CF021FA02F10CE002F11402D8BF39
:10063000C2F1200C01FA02F120FA0CFCDCBF41EA05
:100640000C019040E41AA2BF01EB0451294330BDD4
:100650006FEA04041F3C1CDA0C340EDC04F11404B1
:10066000C4F1200220FA04F001FA02F340EA030088
:1006700021FA04F345EA030130BDC4F10C04C4F1CE
:10068000200220FA02F001FA04F340EA03002946AE
:1006900030BD21FA04F0294630BD94F0000F83F4F8
:1006A000801306BF81F480110134013D4EE77FEADB
:1006B000645C18BF7FEA655C29D094EA050F08BF27
:1006C00090EA020F05D054EA000C04BF1946104608
:1006D00030BD91EA030F1EBF0021002030BD5FEA4C
:1006E000545C05D14000494128BF41F0004130BD74
:1006F00014F580043CBF01F5801130BD01F00045C8
:1007000045F0FE4141F470014FF0000030BD7FEA3A
:10071000645C1ABF194610467FEA655C1CBF0B4635
:10072000024650EA013406BF52EA033591EA030F4C
:1007300041F4002130BD00BF90F0000F04BF002144
:10074000704730B54FF4806404F132044FF0000577
:100750004FF0000150E700BF90F0000F04BF0021F0
:10076000704730B54FF4806404F1320410F0004556
:1007700048BF40424FF000013EE700BF42004FEA51
:10078000E2014FEA31014FEA02701FBF12F07F43CE
:1007900093F07F4F81F06051704732F07F4208BF85
:1007A000704793F07F4F04BF41F40021704730B58C
:1007B0004FF4607401F0004521F000411CE700BFD8
:1007C00050EA010208BF704730B54FF000050AE05B
:1007D00050EA010208BF704730B511F0004502D55C
:1007E000404261EB41014FF4806404F132045FEA5E
:1007F000915C3FF4D8AE4FF003025FEADC0C18BF07
:1008000003325FEADC0C18BF033202EBDC02C2F1F8
:10081000200300FA03FC20FA02F001FA03FE40EA8A
:100820000E0021FA02F11444BDE600BF70B54FF08E
:10083000FF0C4CF4E06C1CEA11541DBF1CEA13556C
:1008400094EA0C0F95EA0C0F00F0DEF82C4481EAD4
:10085000030621EA4C5123EA4C5350EA013518BFF4
:1008600052EA033541F4801143F4801338D0A0FBE1
:1008700002CE4FF00005E1FB02E506F00042E0FB8E
:1008800003E54FF00006E1FB03569CF0000F18BF94
:100890004EF0010EA4F1FF04B6F5007F64F540743C
:1008A00004D25FEA4E0E6D4146EB060642EAC621CF
:1008B00041EA55514FEAC52040EA5E504FEACE2E3C
:1008C000B4F1FD0C88BFBCF5E06F1ED8BEF1004F3F
:1008D00008BF5FEA500E50F1000041EB045170BDBB
:1008E00006F0004646EA010140EA020081EA0301FF
:1008F000B4EB5C04C2BFD4EB0C0541EA045170BDFB
:1009000041F480114FF0000E013C00F3AB8014F174
:10091000360FDEBF002001F0004170BDC4F10004BD
:10092000203C35DA0C341BDC04F11404C4F120053E
:1009300000FA05F320FA04F001FA05F240EA020099
:1009400001F0004221F0004110EBD37021FA04F6CF
:1009500042EB06015EEA430E08BF20EAD37070BD89
:10096000C4F10C04C4F1200500FA04F320FA05F0E8
:1009700001FA04F240EA020001F0004110EBD370EA
:1009800041F100015EEA430E08BF20EAD37070BD5A
:10099000C4F1200500FA05F24EEA020E20FA04F333
:1009A00001FA05F243EA020321FA04F001F00041E2
:1009B00021FA04F220EA020000EBD3705EEA430E53
:1009C00008BF20EAD37070BD94F0000F0FD101F082
:1009D0000046400041EB010111F4801F08BF013CBB
:1009E000F7D041EA060195F0000F18BF704703F0F9
:1009F0000046520043EB030313F4801F08BF013D80
:100A0000F7D043EA0603704794EA0C0F0CEA13553B
:100A100018BF95EA0C0F0CD050EA410618BF52EAF5
:100A20004306D1D181EA030101F000414FF00000FB
:100A300070BD50EA410606BF1046194652EA430609
:100A400019D094EA0C0F02D150EA013613D195EA7D
:100A50000C0F05D152EA03361CBF104619460AD1C5
:100A600081EA030101F0004141F0FE4141F47001CF
:100A70004FF0000070BD41F0FE4141F4780170BDBF
:100A800070B54FF0FF0C4CF4E06C1CEA11541DBF24
:100A90001CEA135594EA0C0F95EA0C0F00F0A7F826
:100AA000A4EB050481EA030E52EA03354FEA013153
:100AB00000F088804FEA03334FF0805545EA131366
:100AC00043EA12634FEA022245EA111545EA10652E
:100AD0004FEA00260EF000419D4208BF964244F1C5
:100AE000FD0404F5407402D25B084FEA3202B61AE4
:100AF00065EB03055B084FEA32024FF480104FF4B8
:100B0000002CB6EB020E75EB030E22BFB61A75462B
:100B100040EA0C005B084FEA3202B6EB020E75EBBE
:100B2000030E22BFB61A754640EA5C005B084FEA26
:100B30003202B6EB020E75EB030E22BFB61A7546F3
:100B400040EA9C005B084FEA3202B6EB020E75EBFE
:100B5000030E22BFB61A754640EADC0055EA060EBF
:100B600018D04FEA051545EA16754FEA06164FEA02
:100B7000C30343EA52734FEAC2025FEA1C1CC0D1AE
:100B800011F4801F0BD141EA00014FF000004FF03B
:100B9000004CB6E711F4801F04BF01430020B4F1FC
:100BA000FD0C88BFBCF5E06F3FF6AFAEB5EB030CB4
:100BB00004BFB6EB020C5FEA500C50F1000041EBB1
:100BC000045170BD0EF0004E4EEA113114EB5C047E
:100BD000C2BFD4EB0C0541EA045170BD41F4801151
:100BE0004FF0000E013C90E645EA060E8DE60CEA59
:100BF000135594EA0C0F08BF95EA0C0F3FF43BAF76
:100C000094EA0C0F0AD150EA01347FF434AF95EA2C
:100C10000C0F7FF425AF104619462CE795EA0C0F10
:100C200006D152EA03353FF4FDAE1046194622E7DD
:100C300050EA410618BF52EA43067FF4C5AE50EAB7
:100C400041047FF40DAF52EA43057FF4EBAE12E7A7
:100C50004FF0FF3C06E000BF4FF0010C02E000BF88
:100C60004FF0010C4DF804CD4FEA410C7FEA6C5C6B
:100C70004FEA430C18BF7FEA6C5C1BD001B050EA0E
:100C8000410C0CBF52EA430C91EA030F02BF90EAF9
:100C9000020F0020704710F1000F91EA030F58BFB8
:100CA000994208BF90422CBFD8176FEAE37040F01A
:100CB000010070474FEA410C7FEA6C5C02D150EAB8
:100CC000013C07D14FEA430C7FEA6C5CD6D152EA73
:100CD000033CD3D05DF8040B704700BF8446104638
:100CE00062468C461946634600E000BF01B5FFF737
:100CF000B7FF002848BF10F1000F01BD4DF808ED07
:100D0000FFF7F4FF0CBF012000205DF808FB00BFD7
:100D10004DF808EDFFF7EAFF34BF012000205DF831
:100D200008FB00BF4DF808EDFFF7E0FF94BF01207E
:100D300000205DF808FB00BF4DF808EDFFF7CEFF7F
:100D400094BF012000205DF808FB00BF4DF808EDBE
:100D5000FFF7C4FF34BF012000205DF808FB00BF8F
:100D60004FEA410C7FEA6C5C02D150EA013C0AD1A7
:100D70004FEA430C7FEA6C5C02D152EA033C02D199
:100D80004FF0000070474FF0010070474FEA4102FA
:100D900012F5001215D211D56FF47873B3EB6252CD
:100DA00012D94FEAC12343F0004343EA505311F0F4
:100DB000004F23FA02F018BF404270474FF0000086
:100DC000704750EA013005D111F0004008BF6FF0C4
:100DD000004070474FF00000704700BF0348044BCD
:100DE000834202D0034B03B118477047D00700205D
:100DF000D0070020000000000548064B1B1AD90F41
:100E000001EBA301491002D0034B03B1184770470F
:100E1000D0070020D00700200000000010B5064CCD
:100E2000237843B9FFF7DAFF044B13B10448AFF35B
:100E300000800123237010BDD007002000000000B7
:100E400038EC000808B5054B1BB105490548AFF360
:100E50000080BDE80840FFF7CFBF00BF00000000E2
:100E6000D407002038EC000884B000220092154B13
:100E7000196B41F080011963196B01F08001009139
:100E800000990192196B41F001011963196B01F08E
:100E90000101019101990292196B41F0040119635A
:100EA000196B01F004010291029903921A6B42F04E
:100EB00008021A631B6B03F008030393039B04B03F
:100EC000704700BF0038024072B6FEE700B595B02B
:100ED0003022002108A808F0D9FA002303930493D4
:100EE0000593069307930193204A116C41F08051BA
:100EF0001164126C02F080520192019A02931C4B11
:100F00001A6842F480421A601B6803F4804302931B
:100F1000029B012308934FF48033099302230E931D
:100F20004FF480020F9204221092A8221192129381
:100F30000723139308A801F07BFA98B90F230393B2
:100F400002230493002305934FF4A05306934FF418
:100F500080530793052103A801F0D4FC20B915B0F4
:100F60005DF804FBFFF7B0FFFFF7AEFF003802406B
:100F70000070004010B588B000F00AFAFFF7A6FF35
:100F8000FFF772FF00F05CF907F076FA00F050F816
:100F900004F090F84FF4FA6000F026FA07F04CF9EC
:100FA00007F062F91E4A05AB07CA83E80700184636
:100FB00007F080F91B4A02AB07CA83E80700002448
:100FC00007E002A8FFF71CF9014602A807F08EF916
:100FD0000134092CF5DD07F0EBF907F0CFF805E057
:100FE00007F01AF94FF4967000F0FEF90023ADF8FF
:100FF000043001A807F0F2F8022101A807F08EFAE8
:10100000094A136801331360084981FB0321DA1789
:10101000C2EBA10202EB8202B3EB420FE0D0E1E7A8
:1010200050EC00085CEC0008EC0700206766666680
:10103000054B064A1A6000225A609A60DA601A610B
:101040005A6104229A617047F0070020002C014089
:10105000F0B589B000230393049305930693079397
:101060000268244B9A4201D009B0F0BD00240094DC
:1010700003F586335A6C42F400625A645A6C02F4E7
:1010800000620092009A01941A6B42F004021A6303
:101090001A6B02F004020192019A02941A6B42F058
:1010A00008021A631B6B03F008030293029B4FF4C0
:1010B0008853039302270497032606960C25079569
:1010C0000DEB05010C4800F07DFA0423039304970F
:1010D0000594069607950DEB0501084800F072FA95
:1010E00022460121312000F0E7F9312000F0F4F927
:1010F000BAE700BF002C014000080240000C02408B
:1011000082B0002100910B4B5A6C42F480425A6429
:101110005A6C02F480420092009A01911A6C42F0DB
:1011200080521A641B6C03F080530193019B02B040
:10113000704700BF00380240FEE7FEE7FEE7FEE72B
:10114000FEE770477047704708B500F03BF908BDEF
:1011500008B5024802F068FD08BD00BF780800200D
:1011600008B5024802F0BCF908BD00BFF007002036
:1011700008B5024800F051FE08BD00BF1020002055
:101180000120704708B508F039FA162303604FF0C4
:10119000FF3008BD08B54FF0FF31FFF7F3FFFEE762
:1011A00070B50C461646002506E0AFF300802146D8
:1011B00001F8010B01350C46B542F6DB304670BD37
:1011C00070B50C461646002504E014F8010BAFF389
:1011D00000800135B542F8DB304670BD4FF0FF307E
:1011E00070474FF400534B60002070470120704758
:1011F0000020704710B503460C4A0D490D480068A1
:1012000040B10C4800680344521A934206D8094A78
:10121000136010BD0748084C0460F2E708F0EEF9CF
:101220000C2303604FF0FF30F3E700BF0000022003
:101230000004000074080020082800207047000007
:1012400008B50A480A4B03604FF416534360002365
:101250008360C36003610C2242618361C36102F059
:1012600058FB00B908BDFFF72FFEFBE77808002008
:101270000044004010B588B0002303930493059305
:10128000069307930268184B9A4201D008B010BD2C
:101290000024019403F5FA331A6C42F400321A6404
:1012A0001A6C02F400320192019A02941A6B42F015
:1012B00001021A631B6B03F001030293029B0C23D0
:1012C000039302230493032306930723079303A99D
:1012D000064800F077F922462146262000F0ECF877
:1012E000262000F0F9F8D1E7004400400000024059
:1012F000DFF834D0FFF7A2FF0C480D490D4A002358
:1013000002E0D458C4500433C4188C42F9D30A4ABA
:101310000A4C002301E013600432A242FBD308F020
:1013200073F9FFF727FE704700000220000000203D
:10133000D0070020E09C0308D007002008280020E8
:10134000FEE7000010B504460E4B1A784FF47A738E
:10135000B3FBF2F30C4A1068B0FBF3F000F0C0F8F6
:1013600068B90F2C01D901200AE0002221464FF074
:10137000FF3000F0A1F8054B1C60002000E00120C8
:1013800010BD00BF04000020000000200800002065
:1013900008B50B4B1A6842F400721A601A6842F4DE
:1013A00080621A601A6842F480721A60032000F0AA
:1013B00071F80F20FFF7C6FFFFF7A2FE002008BD5F
:1013C000003C0240034A1168034B1B780B44136036
:1013D000704700BFC008002004000020014B1868BF
:1013E000704700BFC008002038B50446FFF7F6FF7D
:1013F0000546B4F1FF3F02D0044B1B781C44FFF7B5
:10140000EDFF401BA042FAD338BD00BF040000200E
:10141000002807DB00F01F02400901239340024A25
:1014200042F82030704700BF00E100E0002808DBF0
:101430000901C9B200F1604000F5614080F8001375
:10144000704700F00F000901C9B2014B19547047F1
:1014500014ED00E000B500F00700C0F1070CBCF18E
:10146000040F28BF4FF0040C031D062B0FD9C31E19
:101470004FF0FF3E0EFA0CF021EA000199400EFAFF
:1014800003FE22EA0E0241EA02005DF804FB00239B
:10149000EEE70000074AD36823F4E0631B041B0C4B
:1014A000000200F4E060034343F0BF6343F4003301
:1014B000D360704700ED00E010B50446054BD868D6
:1014C000C0F30220FFF7C6FF01462046FFF7AEFF3C
:1014D00010BD00BF00ED00E008B5FFF799FF08BDA3
:1014E0000138B0F1807F0BD24FF0E0235861054AFC
:1014F000F02182F823100020986107221A617047BA
:101500000120704700ED00E070B50446866DFFF7DE
:1015100065FF94F83530DBB2022B06D0802363657B
:10152000002384F83430012070BD0546226813681A
:1015300023F0160313602268536923F0800353617C
:10154000236CE3B12268136823F008031360226858
:10155000136823F00103136023681B6813F0010F65
:1015600011D0FFF73BFF431B052BF5D92023636503
:10157000032084F83500002384F83430D4E7A36CCA
:10158000002BDFD1E3E7E26D3F239340B3600123FB
:1015900084F83530002084F83400C5E790F8353001
:1015A000DBB2022B03D08023436501207047052363
:1015B00080F835300268136823F0010313600020BF
:1015C0007047000000230F2B00F2EC8030B583B091
:1015D00068E085684FEA430E032404FA0EF425EA16
:1015E0000405CC6804FA0EF42C438460446824EAB1
:1015F00002044A68C2F300129A40224342605FE04C
:10160000DC08083450F8242003F00705AD004FF043
:101610000F0E0EFA05FE22EA0E0E0A69AA4042EAF1
:101620000E0240F824205FE0072200E0002202FAC8
:101630000EF22A4302345C4D45F824205B4A94683C
:101640006FEA0C0224EA0C05D1F804E01EF4801FB6
:1016500001D04CEA0405554CA560E46802EA040593
:10166000D1F804E01EF4001F01D04CEA04054F4CF1
:10167000E560646802EA0405D1F804E01EF4003F66
:1016800001D04CEA0405494C6560246822404D684D
:1016900015F4803F01D04CEA0402444C226001332F
:1016A0000F2B7DD801229A400C6804EA020C32EA22
:1016B0000404F4D14C6804F00304013C012C88D9E3
:1016C0004A6802F00302032A09D0C4685D000322BD
:1016D000AA4024EA02048A68AA402243C2604A68F7
:1016E00002F00302022A8BD004684FEA430E032261
:1016F00002FA0EF224EA02044A6802F0030202FA35
:101700000EF2224302604A6812F4403FC7D0002222
:101710000192274A546C44F480445464526C02F49D
:1017200080420192019A9C08A51C1F4A52F825503C
:1017300003F0030E4FEA8E0E0F2202FA0EF225EA94
:1017400002051C4A90423FF471AF02F5806290425C
:101750001AD002F58062904218D002F58062904261
:1017600016D002F58062904214D002F58062904259
:1017700012D002F58062904210D002F58062904251
:101780003FF452AF082252E7012250E702224EE70F
:1017900003224CE704224AE7052248E7062246E7EF
:1017A00003B030BD704700BF00380140003C01402D
:1017B00000380240000002402DE9F04383B0D0F829
:1017C000008001EBC10300EB83039A6A5B6A9A42D3
:1017D00054D807460C469B1A01EBC10200EB82026B
:1017E000D2699A4200D31A4602F103094FEA9909D5
:1017F00015E006F103094FEA9909BB7904EBC4052A
:1018000007EB8505296A0093B3B2E2B2404603F0C4
:10181000CDF92B6A33442B62AB6A3344AB6208EBDD
:10182000441303F510639B699BB24B4512D304EB41
:10183000C40307EB83039A6A5B6A9A420AD24BB1EC
:101840009B1A04EBC40207EB8202D6699E42D0D3F6
:101850001E46CEE704EBC40307EB83077A6ABB6A34
:101860009A420FD804F00F040122A240D8F834386D
:1018700023EA0203C8F83438002000E0012003B056
:10188000BDE8F0830020FAE730B583B000287AD0B5
:101890000446056890F89534C3B1032384F8953461
:1018A000B5F1A04F17D0206802F034FF237C8DF8EB
:1018B0000030231D0ECB206802F06AFE70B10223B7
:1018C00084F895340125284603B030BD80F894345F
:1018D00006F0D4FEE1E70023A371E4E700212068CD
:1018E00003F07BFB024608B9034617E0022384F8A5
:1018F00095340125E7E703EBC30104EB81010120E7
:1019000048750B75CB8500200876C861086203EB2B
:10191000C30104EB810148620133DBB220799842B4
:10192000E9D816E002EBC20304EB8303002183F83D
:10193000551283F8542283F85812C3F85C12C3F886
:10194000601202EBC20304EB8303C3F8641201329A
:10195000D2B29042E6D8237C8DF80030231D0ECB06
:10196000206802F02DFF054620B1022384F895344B
:101970000125A8E700236374012384F895342068C7
:1019800003F0EAFA9FE701259DE7036890F89424A5
:10199000012A1AD010B50446012280F89424DA688E
:1019A00012F0400F02D0427B012A09D0206802F0D9
:1019B000ABFE206803F0C2FA002084F8940410BD46
:1019C0009A6B42F480329A63F0E70220704700007D
:1019D00070B504460D460068066C00EB411303F534
:1019E00030639A68A179012911D038498E4256D0C6
:1019F0003DB905EBC50304EB8303D3F86432002B38
:101A00005ED0E9B2204606F083FE002070BD12F0E1
:101A1000080F09D02E498E42F7D912F4004FF4D0A6
:101A20004FF400429A60F0E712F0200F02D020221B
:101A30009A60EAE712F0280FE7D125498E4206D9CD
:101A400012F4004F03D04FF400429A60DDE705EB3B
:101A5000C50204EB8202D2F874121B69C3F31203AD
:101A6000CB1AC2F868327DB905EBC50204EB8202DD
:101A7000D2F864226AB105EBC50204EB8202D2F807
:101A800060121944C2F86012E9B2204606F040FE26
:101A9000BBE704F29C42012103F0DEFAF4E712F402
:101AA000004F03D04FF400429A60AEE712F0200FCF
:101AB00001D020229A60E9B2204606F029FEA4E770
:101AC00004F29C42002103F0C7FA9AE70A31544F0E
:101AD0000A30544F38B5044603681D6C03EB4113BC
:101AE000D3F8081B0E4A954207D903F5306311F469
:101AF000004F02D04FF400429A60204606F000FEEC
:101B0000074B9D4202D9A379012B01D0002038BD9B
:101B100004F29C420121206803F09EFAF6E700BF20
:101B20000A30544F90F89434012B0CD010B5044671
:101B3000012380F894344174006803F0EFF9002029
:101B400084F8940410BD0220704738B505468C46D1
:101B500011F0800F2BD101F00F0E0EEBCE04A4007C
:101B600004F514740444211D0EEBCE0E00EB8E0E12
:101B700000208EF855020CF00F0C81F800C0C2F363
:101B80000A028A600B714A780AB1A1F81AC0022BC6
:101B90001CD095F89434012B1BD0012385F8943484
:101BA000286802F0E8FE002085F8940438BD01F0B2
:101BB0000F0000EBC001890010312944043100EB13
:101BC000C00005EB800001244475D4E700234B716D
:101BD000DFE70220EAE710B504460A4611F0800F5D
:101BE00020D101F00F0000EBC0039B0003F514733C
:101BF0002344191D00EBC00004EB8000002380F893
:101C0000553202F00F020A7094F89434012B18D068
:101C1000012384F89434206802F0FAFE002084F84E
:101C2000940410BD01F00F0000EBC0039B001033C3
:101C30002344191D00EBC00004EB80000123437511
:101C4000DFE70220EDE710B5144601F00F0C0CEBB6
:101C5000CC01890001F51471014404310CEBCC0E68
:101C600000EB8E0ECEF86022CEF864320023CEF860
:101C700068328EF855328EF854C28279012A04D027
:101C8000006802F0ABFF002010BDCEF87042F7E70D
:101C900001F00F0101EBC10100EB8100D0F86802F7
:101CA000704710B5144601F00F0C0CEBCC01890005
:101CB0001031014404310CEBCC0E00EB8E0ECEF84B
:101CC0002020CEF824300023CEF8283001238EF8CF
:101CD00015308EF814C082799A4204D0006802F060
:101CE0007DFF002010BDCEF83040F7E738B501F099
:101CF0000F050279AA4238D304460B4611F0800F33
:101D00001FD101EBC101890001F5147101440431B7
:101D100003EBC30300EB8303002283F85522012366
:101D20008B700D7094F89434012B20D0012384F82B
:101D30009434206803F097F885B1002084F8940467
:101D400038BD05EBC501890010310144043105EBB4
:101D5000C50300EB830301225A75E0E704F29C42BD
:101D6000A179206803F078F9E7E70120E8E702208D
:101D7000E6E701F00F0302799A4230D310B504462A
:101D800011F0800F1ED103EBC301890001F514711E
:101D90000144043103EBC30200EB8202002082F80D
:101DA000550200228A700B7094F89434012B18D0DD
:101DB000012384F89434206803F082F8002084F82A
:101DC000940410BD03EBC3018900103101440431B8
:101DD00003EBC30200EB820201205075E1E7012012
:101DE00070470220EDE708B511F0800F0CD101F02B
:101DF0000F0101EBC101890001F5147101440431A7
:101E0000006802F075FE08BD01F00F0101EBC10191
:101E10008900103101440431F2E72DE9F04F83B01D
:101E200004460568284603F0D4F810B103B0BDE8B5
:101E3000F08F0646206803F09DF80028F6D005F5DF
:101E40000067BB68C3F30D23C4F8D434206803F0E3
:101E500091F810F0020F04D02268536903F00203D6
:101E60005361206803F086F810F0100F15D0226837
:101E7000936923F010039361D5F8208008F00F09CF
:101E800008F4F013B3F5802F4CD0B3F5402F6FD08A
:101E90002268936943F010039361206803F06AF8A5
:101EA00010F4002F76D1206803F064F810F4802F2E
:101EB00040F0E080206803F05DF80028C0F2618106
:101EC000206803F057F810F4006F09D0BB6813F0D6
:101ED000010F40F06E812268536903F4006353617F
:101EE000206803F047F810F4805F40F066812068B6
:101EF00003F040F810F4005F40F0B381206803F075
:101F000039F810F0080F40F0C481206803F032F86F
:101F100010F0800F00F0D781AB6923F08003AB6134
:101F20000126C0E147F6F07318EA030FB0D04FEA7C
:101F3000181A4FEAC903019309EBC90B04EB8B0B89
:101F4000C8F30A12DBF86012284602F069FFDBF8DA
:101F50006032CAF30A0A5344CBF86032DBF86832C5
:101F6000019A4A4404EB82025344C2F868328FE774
:101F7000082204F29C41284602F052FF09EBC903F3
:101F800004EB8303D3F86822C8F30A184244C3F869
:101F900068227DE7206802F0F1FF8046B14635E017
:101FA00005EB49130122C3F8082B49462046FFF7E9
:101FB0000FFD3CE005EB49130822C3F8082B494606
:101FC0002046FFF787FD35E009EBC90304EB8303E7
:101FD00093F85732012B41D005EB49130222C3F885
:101FE000082B1AF0200F04D005EB49132022C3F868
:101FF000082B1AF4005F05D005EB49134FF400528B
:10200000C3F8082B09F101094FEA5808B8F1000F8D
:102010003FF449AF18F0010FF4D05FFA89FB59463D
:10202000206802F0BBFF824610F0010FB8D11AF011
:10203000080FBFD11AF0100F04D005EB491310227E
:10204000C3F8082B1AF0020FCBD06B6913F0800F86
:10205000BAD07B6843F480637B60B5E709EBC903C2
:1020600004EB8303002283F857225946204606F0EA
:102070009FFBB1E7206802F089FF8046B14625E06A
:102080005946204606F050FB1AF0080F04D005EB25
:1020900049130822C3F808291AF0100F04D005EBE1
:1020A00049131022C3F808291AF0400F04D005EB99
:1020B00049134022C3F808291AF0020F40D11AF040
:1020C000800F59D109F101094FEA5808B8F1000F02
:1020D0003FF4F0AE18F0010FF4D05FFA89FB5946D7
:1020E000206802F064FF824610F0010FCCD009F0A6
:1020F0000F02012101FA02F27B6B23EA02037B63E8
:1021000005EB4913C3F80819A3798B42B8D109EB41
:10211000C90304EB83031A6AD9690A441A62B9F144
:10212000000FADD109EBC90304EB83035B6A002BFD
:10213000A6D104F29C420121206802F08DFF9FE7A6
:102140004946284602F0ECFA09EBC90304EB830385
:10215000DB7D012B05D005EB49130222C3F80829CA
:10216000ADE709EBC90304EB83030022DA75594696
:10217000204606F023FBEEE749462046FFF71CFB0E
:10218000A0E77B6823F001037B6094F8CC34012B3B
:1021900008D0204606F006FB2268536903F000438E
:1021A00053618DE6002184F8CC14204600F03EF9FE
:1021B000F2E7204606F0DEFA8DE67B6823F00103A5
:1021C0007B601021206802F0ABFA1AE005EB4613A1
:1021D0004FF67F31C3F80819D3F8002922F4001212
:1021E000C3F80029C3F8081BD3F8002B22F400120F
:1021F000C3F8002BD3F8002B42F00062C3F8002B89
:1022000001362379B342E1D8FB6943F00113FB6146
:10221000E37BDBB1D7F8843043F00B03C7F884309D
:102220007B6C43F00B037B64D5F8003823F4FE632A
:10223000C5F8003804F29C42A179206802F00CFF36
:102240002268536903F48053536150E67B6943F479
:10225000005343F02B037B613B6943F00B033B616D
:10226000E2E7206802F0EAFE206802F073FBE0710A
:10227000266800F0F7FB0146E279304602F0D2F919
:10228000204606F062FA2268536903F40053536152
:1022900034E6204606F053FA2268536903F0080337
:1022A000536132E601362379B3420CD906EBC603FB
:1022B00004EB830393F85732012BF3D1F1B220469C
:1022C000FFF791FDEEE7206802F054FE10F4801F46
:1022D00025D1206802F04EFE10F4001F59D00123D2
:1022E00026E001362379B3421BD905EB4613D3F818
:1022F000002906EBC60304EB83031B7E012BF0D100
:10230000002AEEDA06EBC60304EB83030122DA753A
:1023100066F07F01C9B22046FFF765FDE1E70126BF
:10232000E0E72268536903F480135361D1E7013376
:1023300022799A4228D905EB4312D2F8001B03EB0D
:10234000C30204EB820292F85822012AEFD100293D
:10235000EDDA01F48031D4F8D42402F00102914284
:10236000E5D103EBC30204EB8202012182F857128C
:10237000AA6942F08002AA616A6912F0800FD6D180
:102380007B6843F400737B602268536903F4001395
:102390005361206802F0EEFD10F0804F10D12068EC
:1023A00002F0E8FD10F0040F3FF440AD23685D68D3
:1023B00015F0040F0DD1226853682B43536035E5A7
:1023C000204606F001FA2268536903F08043536106
:1023D000E5E7204606F0FEF9EDE710B40468606A10
:1023E00029B940EA0240A062002010BC70478C4628
:1023F000A36A00EB1340002308E003F1400104EB63
:102400008101496800EB11400133DBB20CF1FF316F
:102410008B42F2D340EA02400CF13F0104EB81040D
:102420006060E1E703685962002070477047000070
:10243000002800F0E08170B582B00446036813F014
:10244000010F3BD09F4B9B6803F00C03042B2CD057
:102450009C4B9B6803F00C03082B21D06368B3F5F9
:10246000803F4FD0B3F5A02F52D0964B1A6822F47C
:1024700080321A601A6822F480221A606368002B86
:1024800050D0FEF7ABFF05468E4B1B6813F4003FA0
:1024900014D1FEF7A3FF401B6428F5D90320B1E156
:1024A000884B5B6813F4800FD8D0864B1B6813F4FD
:1024B000003F03D06368002B00F09F81236813F076
:1024C000020F54D07F4B9B6813F00C0F3ED07D4B16
:1024D0009B6803F00C03082B33D0E368002B68D013
:1024E000794B01221A60FEF779FF0546754B1B6890
:1024F00013F0020F54D1FEF771FF401B0228F5D9EB
:1025000003207FE16F4A136843F480331360B5E71B
:102510006C4B1A6842F480221A601A6842F48032C6
:102520001A60ABE7FEF75AFF0546664B1B6813F4CB
:10253000003FC3D0FEF752FF401B6428F5D90320AB
:1025400060E1604B5B6813F4800FC6D15D4B1B6884
:1025500013F0020F03D0E368012B40F05081594A79
:10256000136823F0F803216943EAC1031360236869
:1025700013F0080F42D063696BB3534B0122C3F8C9
:10258000802EFEF72BFF05464E4B5B6F13F0020FBC
:1025900034D1FEF723FF401B0228F5D9032031E197
:1025A000484A136823F0F803216943EAC103136022
:1025B000DDE7454B00221A60FEF710FF0546414B50
:1025C0001B6813F0020FD2D0FEF708FF401B022851
:1025D000F5D9032016E13C4B0022C3F8802EFEF70C
:1025E000FDFE0546374B5B6F13F0020F06D0FEF77A
:1025F000F5FE401B0228F5D9032003E1236813F000
:10260000040F77D02F4B1B6C13F0805F33D1002366
:1026100001932C4B1A6C42F080521A641B6C03F02D
:1026200080530193019B0125284B1B6813F4807F85
:1026300023D0A368012B34D0052B38D0214B1A6F3F
:1026400022F001021A671A6F22F004021A67A368C7
:10265000002B3DD0FEF7C2FE06461A4B1B6F13F04F
:10266000020F46D1FEF7BAFE801B41F28833984232
:10267000F3D90320C6E00025D6E7144A136843F4D3
:1026800080731360FEF7AAFE0646104B1B6813F416
:10269000807FCED1FEF7A2FE801B0228F5D9032051
:1026A000B0E0084A136F43F001031367CFE7054B0F
:1026B0001A6F42F004021A671A6F42F001021A6799
:1026C000C5E700BF003802400000474200700040EC
:1026D000FEF784FE0646524B1B6F13F0020F08D024
:1026E000FEF77CFE801B41F288339842F3D9032029
:1026F00088E0EDB9A369002B00F08380484A926816
:1027000002F00C02082A51D0022B17D0454B0022B0
:102710001A66FEF763FE0446414B1B6813F0007F08
:1027200042D0FEF75BFE001B0228F5D9032069E0CA
:102730003B4A136C23F080531364DBE7394B0022D0
:102740001A66FEF74BFE0546354B1B6813F0007FFB
:1027500006D0FEF743FE401B0228F5D9032051E0C6
:10276000E369226A1343626A43EA8213A26A520847
:10277000013A43EA0243E26A43EA0263284A5360A9
:10278000284B01221A66FEF729FE0446244B1B68DB
:1027900013F0007F06D1FEF721FE001B0228F5D9B9
:1027A00003202FE000202DE000202BE0012B2BD078
:1027B0001B4B5B6803F48001E269914226D103F070
:1027C0003F02216A8A4223D1616A47F6C0721A40E9
:1027D000B2EB811F1ED103F44031A26A5208013AC4
:1027E000B1EB024F18D103F07063E26AB3EB026FF2
:1027F00014D1002006E001207047012002E00120F2
:1028000000E0002002B070BD0120FBE70120F9E7E5
:102810000120F7E70120F5E70120F3E70120F1E7C8
:10282000003802400000474208B5334B9B6803F074
:102830000C03042B5BD0082B5BD12F4B5A6802F0A2
:102840003F025B6813F4800F2CD02B4B5868C0F309
:1028500088104FEA401CBCEB000C6EEB0E0E4FEAEA
:102860008E1343EA9C634FEA8C11B1EB0C0163EBCE
:102870000E03DB0043EA5173C90011EB000C43F176
:102880000003590200234FEA4C2041EADC51FDF7D6
:1028900097FC194B5B68C3F3014301335B00B0FB4A
:1028A000F3F008BD144B5868C0F388104FEA401C81
:1028B000BCEB000C6EEB0E0E4FEA8E1343EA9C63EA
:1028C0004FEA8C11B1EB0C0163EB0E03DB0043EA22
:1028D0005173C90011EB000C43F10003990200236E
:1028E0004FEA8C2041EA9C51FDF76AFCD1E703488E
:1028F000D7E70348D5E700BF0038024000127A004E
:102900000024F400002800F09B8070B50D460446BA
:102910004F4B1B6803F007038B4208D2CBB24C4AE3
:102920001370136803F007038B4240F08B80236819
:1029300013F0020F17D013F0040F04D0454A936828
:1029400043F4E0539360236813F0080F04D0414A26
:10295000936843F4604393603E4A936823F0F00326
:10296000A1680B439360236813F0010F32D06368B2
:10297000012B21D09A1E012A25D9364A126812F05D
:10298000020F61D033498A6822F0030213438B603F
:10299000FEF724FD06462F4B9B6803F00C0362688C
:1029A000B3EB820F16D0FEF719FD801B41F288337E
:1029B0009842F0D9032042E0264A126812F4003F00
:1029C000E0D101203BE0234A126812F0007FD9D108
:1029D000012034E01E4B1B6803F00703AB4207D90C
:1029E000EAB21B4B1A701B6803F00703AB422DD1F0
:1029F000236813F0040F06D0164A936823F4E053BB
:102A0000E1680B439360236813F0080F07D0114A65
:102A1000936823F46043216943EAC1039360FFF79D
:102A200003FF0C4B9B68C3F303130B4AD35CD840E2
:102A30000A4B18600A4B1868FEF784FC002070BD32
:102A4000012070470120FAE70120F8E70120F6E7AE
:102A5000003C0240003802407CEE000800000020EC
:102A600008000020014B1868704700BF00000020DC
:102A700008B5FFF7F7FF044B9B68C3F38223034AB3
:102A8000D35CD84008BD00BF0038024074EE000897
:102A900008B5FFF7E7FF044B9B68C3F34233034AD3
:102AA000D35CD84008BD00BF0038024074EE000877
:102AB00070B582B0044600230193006801F063FA08
:102AC000054610B1284602B070BD206801F024FD13
:102AD00038B90123A364A36C012B0BD02E462846E2
:102AE00014E00023A364206801F04DFA0028F2D01E
:102AF0000546E7E70021206801F0ACFB0028EDD097
:102B00004FF08055DEE7019B01330193019A4FF6A8
:102B1000FE739A4213D896B90021206801F09AFBFF
:102B2000E0B91249206801F043FC0646C0B9002113
:102B3000206801F013FAC30FE5D01E46E3E7019ABF
:102B40004FF6FE739A420ED810F0804302D0012354
:102B50006364B7E7002262641D46B3E70546B1E748
:102B60004FF08055AEE74FF08075ABE7000010C125
:102B7000F8B5846AC66AA6B9F8BD386801F0CBF921
:102B80002070C0F307236370C0F30743A370000EE7
:102B9000E0700434043E0135072DEED9BC62FE62BC
:102BA000EAE707460025F7E7F0B583B0046A466A0E
:102BB000DEB903B0F0BD23780193627843EA0223C3
:102BC0000193A27843EA02430193E27843EA026365
:102BD00001930434043E01A9386801F09FF90135DE
:102BE000072DE8D93C627E62E3E707460025F7E758
:102BF00070B581B104460E46016D0904006801F00C
:102C000041FB054608B1284670BD0021206801F04F
:102C1000A5F93060F7E74FF00065F4E72DE9F04FD4
:102C200087B005460C4616469B46DDF840A0FEF7E9
:102C3000D5FB002C36D0814695F83470FFB2012FB9
:102C400040F009810023AB6306EB0B03EA6D93426E
:102C50002ED8032385F834302B680022DA626B6C9F
:102C6000012B00D076024FF0FF3300934FEA4B2345
:102C700001939023029302230393002304930123DF
:102C800005936946286801F06CF9BBF1010F14D96E
:102C900002232B633146286801F062FAA0B9DDF8FF
:102CA000048038E0AB6B43F00063AB630127D7E0EF
:102CB000AB6B43F00073AB63D2E001232B6331466F
:102CC000286801F035FAE9E72B68674A9A63AB6B2D
:102CD0000343AB63012385F8343000232B63BFE04B
:102CE000286801F018F92070C0F307236370C0F35F
:102CF0000743A370000EE0700434A8F10408013605
:102D0000072EEDD9FEF76AFBA0EB0900504510D263
:102D1000BAF1000F0DD02868466B40F22A331E40EE
:102D200015D1436B13F4004FECD0B8F1000FE9D08C
:102D3000E6E72B684C4A9A63AB6B43F00043AB6306
:102D4000012385F8343000232B63032788E0436B8D
:102D500013F4807F05D0BBF1010F02D96B6C032BFC
:102D60003CD12B685A6B12F0080F48D15A6B12F401
:102D7000007F44D15A6B12F0020F4CD15A6B12F003
:102D8000200F54D12868436B13F4001F5BD0B8F1B7
:102D9000000F58D001F0BFF82070C0F30723637014
:102DA000C0F30743A370000EE0700434A8F10408D8
:102DB000FEF714FBA0EB0900504502D2BAF1000F58
:102DC000E0D12B68284A9A63AB6B43F00043AB63B6
:102DD000012385F8343000232B6341E001F008FA29
:102DE00003460028BDD02A681F499163AA6B13438C
:102DF000AB63012385F8343000232B6330E01A4A9B
:102E00009A63AB6B43F00803AB63012385F834305E
:102E100000232B6324E0144A9A63AB6B43F0020354
:102E2000AB63012385F8343000232B6318E00E4A8E
:102E30009A63AB6B43F02003AB63012385F8343016
:102E400000232B630CE040F23A538363012385F89F
:102E50003430002704E0AB6B43F00053AB63012731
:102E6000384607B0BDE8F08FFF0540002DE9F04F70
:102E70008BB005460C4616469B46DDF850A0FEF783
:102E8000ADFA002C37D0804695F83470FFB2012F90
:102E900040F0E6800023AB6306EB0B03EA6D934240
:102EA0002FD8032385F834302B680022DA626B6C4C
:102EB000012B00D076024FF0FF3304934FEA4B23EF
:102EC0000593902306930023079308930123099306
:102ED00004A9286801F045F8BBF1010F16D9202399
:102EE0002B633146286801F06BF90190019BABB967
:102EF000DDF8149040E0AB6B43F00063AB63012757
:102F0000B3E0AB6B43F00073AB63AEE010232B6315
:102F10003146286801F03CF90190E7E72B68554AF3
:102F20009A63AB6B019A1343AB63012385F834308A
:102F300000232B6399E023780393627843EA02230A
:102F40000393A27843EA02430393E27843EA0263DD
:102F500003930434A9F1040903A9286800F0DEFFF3
:102F60000136072EE7D9FEF739FAA0EB08005045E5
:102F700010D2BAF1000F0DD02868466B40F21A3318
:102F80001E4015D1436B13F4804FECD0B9F1000F04
:102F9000E9D0E6E72B68374A9A63AB6B019A134393
:102FA000AB63012385F8343000232B6303275CE0F7
:102FB000436B13F4807F05D0BBF1010F02D96B6C1A
:102FC000032B1CD12B685A6B12F0080F28D15A6BB7
:102FD00012F4007F24D15A6B12F0020F2CD15A6BDD
:102FE00012F0100F34D0234A9A63AB6B43F01003F6
:102FF000AB63012385F8343000232B6335E001F007
:10300000F7F803460028DDD02A681A499163AA6BB5
:103010001343AB63012385F8343000232B6324E092
:10302000144A9A63AB6B43F00803AB63012385F842
:10303000343000232B6318E00E4A9A63AB6B43F0E5
:103040000203AB63012385F8343000232B630CE0CB
:1030500040F23A529A63012385F83430002704E0A5
:10306000AB6B43F00053AB63012738460BB0BDE8B0
:10307000F08F00BFFF054000704700000346426E1E
:10308000920F0A70426EC2F383624A7090F8672012
:1030900002F003028A7090F86620CA7090F86520EA
:1030A0000A7190F864204A71826E120DCA80B0F8DD
:1030B0006A2002F00F020A72826EC2F3C0324A72B4
:1030C000826EC2F380328A72826EC2F34032CA725A
:1030D000826EC2F300320A7300224A73426C002AE5
:1030E00040F08680806E40F6FC7202EA8002D86E64
:1030F00042EA90720A61DA6EC2F3C2620A7593F80C
:103100006F2002F007024A75DA6EC2F342528A75E6
:10311000DA6EC2F38242CA75DA6EC2F3C2320A763E
:103120000A6901325A65087E00F0070002308240C9
:103130005A6591F808C00CF00F0C012000FA0CF051
:103140009865400A00FB02F2DA654FF400721A66D5
:10315000DA6EC2F380324A76DA6EC2F3C6128A762B
:10316000DA6E02F07F02CA761A6FD20F0A771A6FF0
:10317000C2F341724A771A6FC2F382628A771A6F7A
:10318000C2F38352CA771A6FC2F3405281F82020EB
:10319000002081F82100B3F8722002F0010281F8CA
:1031A00022201A6FC2F3C03281F823201A6FC2F3B3
:1031B000803281F824201A6FC2F3403281F8252032
:1031C0001A6FC2F3003281F826201A6FC2F38122EF
:1031D00081F827201A6FC2F3012281F828201B6F83
:1031E000C3F3460381F82930012381F82A30704760
:1031F000012A11D1826E120402F47C12B0F86E0022
:1032000002430A610A69013292025A65DA654FF493
:1032100000729A651A669BE7026805499163826BA2
:1032200042F080528263012083F83400704700BF6F
:10323000FF05400070B590B004460123ADF8123090
:10324000006800F074FE00286CD0636C032B45D13D
:10325000636C032B5DD1636C032B1DD0BDF8121082
:1032600021650904206801F068F8054600285BD153
:103270000021206800F072FE60660421206800F0E2
:103280006DFEA0660821206800F068FEE0660C2153
:10329000206800F063FE20670421206800F05EFED5
:1032A000000DE06405A92046FFF7E8FE00283ED1A6
:1032B000226D12040023206800F0B4FF054698BB7D
:1032C000234653F8106B93E807008DE80700043499
:1032D00094E80E00304600F005FE25E0206801F07D
:1032E00017F8054600BB0021206800F037FE606734
:1032F0000421206800F032FEA0670821206800F059
:103300002DFEE0670C21206800F028FEC4F8800044
:103310009EE70DF11201206801F0B4F8054600287F
:1033200099D001E04FF08065284610B070BD4FF095
:103330008055F9E770B58AB00446002304930593DD
:10334000069307930893762309930AAB13E90700C2
:103350008DE8070004AB0ECB206800F0C3FD18B168
:10336000012528460AB070BD05461A4E0023C6F84E
:10337000A030206800F0D7FD0123C6F8A03002205D
:10338000FEF732F82046FFF793FB30B1012584F8B1
:103390003450A36B0343A363E3E72046FFF74AFFE0
:1033A00030B1012584F83450A36B0343A363D8E7FD
:1033B0004FF40071206800F0A3FE0028D1D02368EC
:1033C00005499963A36B0343A363012584F8345033
:1033D000C7E700BF00802542FF054000A8B110B537
:1033E000044690F8343063B1032384F83430204627
:1033F000FFF7A0FF58B9A0632063012384F834309D
:1034000010BD0377FDF724FEEEE701207047012091
:10341000F6E7436C0B60836C4B60C36C8B60036D91
:10342000CB60436D0B61836D4B61C36D8B61036E2C
:10343000CB610020704710B582B004460023019391
:1034400001A9FFF7D5FB10B1A36B0343A363019858
:10345000C0F3432002B010BD10B5846B236840F266
:103460003A529A632046FFF7E6FF012384F834308E
:10347000002323630538012805D9A36B53B92046DF
:1034800001F05BFE10BD206800F0B2FEA36B0343A9
:10349000A363F2E72046FFF7EFFDF3E710B5846B77
:1034A000236840F23A529A632046FFF7C4FF012393
:1034B00084F83430002323630538012805D9A36B31
:1034C00053B9204601F039FE10BD206800F090FE8F
:1034D000A36B0343A363F2E72046FFF7CDFDF3E7B9
:1034E00038B50446056B03685A6B12F4004F02D0DE
:1034F00015F0080F28D15A6B12F4807F5AD04FF480
:1035000080729A632268D36B23F4434323F03A0317
:10351000D3632268D36A23F00103D36215F0080F46
:1035200026D015F0220F12D1236840F23A529A6346
:10353000012384F834300023236315F0030F13D0E4
:10354000204601F004FE01E0FFF712FB38BD2068C1
:1035500000F04EFE03460028E6D0A26B1343A3639F
:103560002046FFF789FDDFE7204601F0EBFDEDE7A0
:1035700015F0800FEAD015F0200F0ED115F0030FD3
:10358000E4D12268D36A23F00803D362012384F8CC
:103590003430204601F0D6FDD8E7206800F028FE40
:1035A00003460028EAD0A26B1343A3632046FFF72B
:1035B00063FDE3E75A6B12F4804F02D015F0080F59
:1035C00055D1596B40F23A221142BFD05A6B12F0DA
:1035D000020F03D0A26B42F00202A2635A6B12F0F8
:1035E000080F03D0A26B42F00802A2635A6B12F0DC
:1035F000200F03D0A26B42F02002A2635A6B12F09C
:10360000100F03D0A26B42F01002A2635A6B12F4A7
:10361000007F03D0A26B42F00802A26340F23A722C
:103620009A632268D36B23F44E7323F00203D363AF
:10363000206800F0DDFDA36B0343A36315F0080FC2
:1036400019D115F0800F81D015F0300F1CD115F075
:10365000030F26D0236C184A1A65206CFDF79EFFD5
:1036600000283FF473AF206CFFF718FF6EE7204689
:10367000FFF79AFA6AE7012384F8343000232363C2
:103680002046FFF7F9FC61E7E36B0C4A1A65E06B33
:10369000FDF784FF00283FF459AFE06BFFF7DCFE35
:1036A00054E70023A363012284F8342023632046D7
:1036B00001F043FD4AE700BF9D340008593400087B
:1036C000026802F10C0353E8003F23F490730C32BC
:1036D00042E800310029F3D1026802F1140353E8F3
:1036E000003F23F00103143242E800310029F3D1F6
:1036F000036B012B05D0202380F8423000230363A5
:103700007047026802F10C0353E8003F23F01003F6
:103710000C3242E800310029F3D1ECE790F8413057
:10372000DBB2212B01D0022070478368B3F5805FA4
:1037300017D0036A5A1C02621A7803685A60C38C55
:103740009BB2013B9BB2C3844BB90268D36823F0A0
:103750008003D3600268D36843F04003D360002045
:1037600070470369002BE4D1036A1B880268C3F326
:1037700008035360036A02330362E0E710B50446AE
:103780000268136923F44053C1680B4313618368D3
:1037900002691A4343691A43C3691A430168CB6833
:1037A00023F4164323F00C031343CB6002685369E0
:1037B00023F4407381690B4353610368314A934298
:1037C00006D002F58062934202D0FFF751F901E082
:1037D000FFF75EF9E369B3F5004F29D00021031824
:1037E00049411B1841F10001C90041EA5371DB0056
:1037F000181863684FEA83024FEA937341F100019E
:10380000FCF7DEFC204AA2FB00314909642303FBDC
:1038100011031B013233A2FB03235B0903F0F00207
:1038200002EB011203F00F03216813448B6010BDFB
:103830000023021843EB0301121841F10001C900F3
:1038400041EA5271D200101841F1000162689218E9
:103850005B41FCF7B5FC0C4AA2FB0031490964232B
:1038600003FB1103DB003233A2FB03235B095A0085
:1038700002F4F87202EB011203F00703216813440B
:103880008B60D4E7001001401F85EB512DE9F04318
:1038900083B005460E4617469946DDF828802B680A
:1038A0001C6836EA04040CBF01240024BC4228D161
:1038B000B8F1FF3FF3D0FDF791FDA0EB09004045C3
:1038C00023D8B8F1000F22D02B68DA6812F0040F69
:1038D000E5D0802EE3D0402EE1D01A6812F0080F18
:1038E000DDD0002401941A6801925B680193019B6A
:1038F0002846FFF7E5FE08236B6485F84040012069
:1039000000E0002003B0BDE8F0830320FAE70320C5
:10391000F8E760B310B5044690F8413013B32423A0
:1039200084F841302268D36823F40053D3602046E2
:10393000FFF724FF2268136923F490431361226880
:10394000536923F02A0353612268D36843F4005378
:10395000D36000206064202384F8413084F8423032
:10396000606310BD80F84030FDF784FCD7E701208C
:1039700070472DE9F04182B01E4690F84130DBB22D
:10398000202B56D104460D469046002955D00AB941
:1039900001204FE000234364212380F84130FDF7EC
:1039A0001DFD0746A4F82480A4F82680A368B3F57B
:1039B000805F02D04FF0000814E023692BB34FF072
:1039C00000080FE0202384F84130032032E038F86B
:1039D000023B2268C3F308035360E28C92B2013ABF
:1039E00092B2E284E38C9BB293B100963B460022F4
:1039F00080212046FFF74AFF0028E3D1002DE6D0C2
:103A000015F8012B23685A60E7E7A8460025E9E787
:103A100000963B46002240212046FFF737FF18B9A9
:103A2000202384F8413005E0202384F8413003202E
:103A300000E0022002B0BDE8F0810120FAE72DE9A4
:103A4000F04182B01E4690F84230DBB2202B59D1B3
:103A500004460D469046002958D00AB9012052E08C
:103A600000234364222280F842200363FDF7B6FC62
:103A70000746A4F82C80A4F82E80A368B3F5805FD5
:103A800002D04FF000081CE0236913B14FF000088A
:103A900017E0A846002514E0202384F842300320D4
:103AA00031E023685B68C3F3080328F8023B03E0B6
:103AB00023685B682B700135E28D92B2013A92B2B5
:103AC000E285E38D9BB2C3B100963B4600222021E4
:103AD0002046FFF7DBFE0028DED1002DE1D0A368F1
:103AE000B3F5805FE4D013B92369002BE0D02368DD
:103AF0005B6803F07F032B70DDE7202384F84230FE
:103B0000002000E0022002B0BDE8F0810120FAE7C9
:103B1000704708B50168CA6822F04002CA602022D6
:103B200080F84120FFF7F4FF002008BD7047704780
:103B300008B5806B0023C385C384FFF7F8FF08BD79
:103B4000704790F84230DBB2222B69D18368B3F51D
:103B5000805F4FD0826AB3F5805F04D0002B56D1CE
:103B60000369002B53D103685B681370836A0133C8
:103B70008362C38D9BB2013B9BB2C385002B51D1A5
:103B800000B583B00268D36823F02003D3600268D5
:103B9000D36823F48073D3600268536923F0010370
:103BA0005361202380F8423000234363036B012BD1
:103BB00033D100230363026802F10C0353E8003F92
:103BC00023F010030C3242E800310029F3D10368DE
:103BD0001A6812F0100F06D0002201921A680192A2
:103BE0005B680193019B818DFFF7AAFF002003B062
:103BF0005DF804FB0269002AACD1826A03685B6845
:103C0000C3F308031380836A02338362B1E7036856
:103C10005B6803F07F031370A8E7FFF787FFE5E712
:103C2000022070470020704710B582B00446026839
:103C30001368D068516913F00F0F09D113F0200FEA
:103C40000CD010F0200F09D02046FFF77AFF16E0C5
:103C500011F0010115D110F4907F12D1216B0129CF
:103C600079D013F0800F03D010F0800F40F0148152
:103C700013F0400F03D010F0400F40F0118102B05C
:103C800010BD13F0010F06D010F4807F03D0626CDA
:103C900042F00102626413F0040F04D019B1626CA7
:103CA00042F00202626413F0020F04D019B1626C98
:103CB00042F00402626413F0080F07D010F0200FE6
:103CC00000D119B1626C42F008026264626C002A91
:103CD000D5D013F0200F02D010F0200F29D1236887
:103CE0005B6903F04003626C12F0080F00D163B30C
:103CF0002046FFF7E5FC23685B6913F0400F20D0F6
:103D0000226802F1140353E8003F23F04003143209
:103D100042E800310029F3D1E36B73B1624A1A65BE
:103D2000E06BFDF73BFC0028A9D0E06B036D9847E2
:103D3000A5E72046FFF705FFD1E72046FFF7F7FE8E
:103D40009DE72046FFF7F3FE99E72046FFF7EFFED9
:103D50000023636493E713F0100F82D010F0100F6C
:103D60003FF47FAF002301931368019353680193DD
:103D7000019B536913F0400F52D0E26B13685B68EC
:103D80009BB2002B3FF47BAFA18D99427FF677AFBA
:103D9000E385D369B3F5807F37D0226802F10C0345
:103DA00053E8003F23F480730C3242E800310029CD
:103DB000F3D1226802F1140353E8003F23F001031A
:103DC000143242E800310029F3D1226802F11403D1
:103DD00053E8003F23F04003143242E80031002949
:103DE000F3D1202384F8423000232363226802F1B8
:103DF0000C0353E8003F23F010030C3242E800317B
:103E00000029F3D1E06BFDF77FFB02236363A18DF3
:103E1000E38D9BB2C91A89B22046FFF791FE2EE7C7
:103E2000A18DE38D9BB2C91A89B2E38D9BB2002BA1
:103E30003FF425AF00293FF422AF226802F10C03C2
:103E400053E8003F23F490730C3242E8003000281E
:103E5000F3D1226802F1140353E8003F23F0010379
:103E6000143242E800300028F3D1202384F8423095
:103E700000232363226802F10C0353E8003F23F080
:103E800010030C3242E800300028F3D102236363B0
:103E90002046FFF755FEF2E62046FFF73FFCEEE630
:103EA0002046FFF736FEEAE6313B00080B4B1B6865
:103EB0000B4AA2FB03235B0A41F2883202FB03F3A5
:103EC0001A46013B3AB1426B12F0800FF8D0C5237D
:103ED0008363002070474FF00040704700000020CF
:103EE000D34D621084B00DF1040C8CE80E000B462B
:103EF0001343039A1343049A1343059A1343069AF0
:103F00001343426822F4FD4222F07F0213434360D0
:103F1000002004B07047D0F8800070470B68C0F8EC
:103F20008030002070470323036000207047006842
:103F300000F0030070470B6883604B688A68134386
:103F4000CA6813430A691343C2686FF30B02134331
:103F5000C360002070470069C0B2704714304058F9
:103F600070470B6843624B6883628B68CA6813436F
:103F70000A6913434A691343C26A22F0F7021343E2
:103F8000C3620020704710B586B004460023019339
:103F90000293039304934FF48063059301A9FFF701
:103FA000CAFF2046FFF782FF06B010BD38B50446B1
:103FB0000D46504B1B685049A1FB03135B0A03FBE2
:103FC00002F21346013A002B5DD0636B13F0450FEC
:103FD000F7D013F4006FF4D1636B13F0040F06D124
:103FE000636B13F0010F05D00120A0634DE00420A6
:103FF000A0634AE0C523A3632046FFF7ACFFA842B5
:1040000001D0012041E000212046FFF7A7FF034631
:104010003A481840C8B3002B38DB13F0804F38D132
:1040200013F0005F37D113F0805F36D113F0006FCB
:1040300036D113F0806F36D113F0807F36D113F470
:10404000000F36D113F4800F36D113F4001F36D190
:1040500013F4801F36D113F4802F36D113F4003FB0
:1040600036D113F4803F36D113F4004F36D113F418
:10407000804F36D113F4005F36D113F0080F36D0DD
:104080004FF4000001E04FF0004038BD4FF00070E9
:10409000FBE74020F9E78020F7E74FF48070F4E772
:1040A0004FF40070F1E74FF48060EEE74FF40060EA
:1040B000EBE74FF48050E8E74FF40050E5E74FF4AA
:1040C0008040E2E74FF40040DFE74FF40030DCE7E8
:1040D0004FF48020D9E74FF40020D6E74FF480104A
:1040E000D3E74FF40010D0E74FF48000CDE74FF452
:1040F0008030CAE700000020D34D621008E0FFFDC9
:1041000030B587B0044601911025029540230393F2
:10411000002304934FF48063059301A9FFF70BFF7D
:1041200041F2883229462046FFF740FF07B030BDF4
:1041300030B587B0044601911125029540230393C1
:10414000002304934FF48063059301A9FFF7F3FE66
:1041500041F2883229462046FFF728FF07B030BDDC
:1041600030B587B004460191122502954023039390
:10417000002304934FF48063059301A9FFF7DBFE4E
:1041800041F2883229462046FFF710FF07B030BDC4
:1041900030B587B00446019118250295402303935A
:1041A000002304934FF48063059301A9FFF7C3FE36
:1041B00041F2883229462046FFF7F8FE07B030BDAD
:1041C00030B587B004460191192502954023039329
:1041D000002304934FF48063059301A9FFF7ABFE1E
:1041E00041F2883229462046FFF7E0FE07B030BD95
:1041F00030B587B00446002301930C250295402278
:10420000039204934FF48063059301A9FFF793FE93
:10421000034A29462046FFF7C9FE07B030BD00BF5C
:1042200000E1F50530B587B00446019207250295F7
:1042300040230393002304934FF48063059301A963
:10424000FFF779FE41F2883229462046FFF7AEFE9D
:1042500007B030BD30B587B00446019137250295CF
:1042600040230393002304934FF48063059301A933
:10427000FFF761FE41F2883229462046FFF796FE9D
:1042800007B030BD30B587B0044601910D250295C9
:1042900040230393002304934FF48063059301A903
:1042A000FFF749FE41F2883229462046FFF77EFE9D
:1042B00007B030BD0146144B1B68144AA2FB032310
:1042C0005B0A41F2883202FB03F31A46013BBAB1A2
:1042D0004A6B12F0450FF8D012F4006FF5D14B6B1A
:1042E00013F0040F06D1486B10F0010005D1C5236F
:1042F0008B63704704208863704701208863704790
:104300004FF00040704700BF00000020D34D621006
:1043100010B586B004460023019302220292C02207
:10432000039204934FF48063059301A9FFF703FE02
:104330002046FFF7BFFF06B010BD10B586B004469B
:10434000019109230293C0230393002304934FF4A4
:104350008063059301A9FFF7EEFD2046FFF7AAFF52
:1043600006B010BD0146104B1B68104AA2FB032388
:104370005B0A41F2883202FB03F31A46013B82B129
:104380004A6B12F0450FF8D012F4006FF5D1486B6C
:1043900010F0040002D1C5238B63704704208863AA
:1043A00070474FF00040704700000020D34D62106E
:1043B00010B586B0044641F0004141F480110191EE
:1043C0002923029340230393002304934FF4806333
:1043D000059301A9FFF7AFFD2046FFF7C3FF06B025
:1043E00010BD0000F8B505460E461746234B1B6866
:1043F000234AA2FB03235B0A41F2883202FB03F348
:104400001A46013B8AB36C6B14F0450FF8D014F4D4
:10441000006FF5D16B6B13F0040F06D16B6B13F0CB
:10442000010F05D00120A86321E00420A8631EE04D
:104430002846FFF790FDB04201D0012017E0C523C8
:10444000AB6300212846FFF789FD034610F4604066
:1044500008D013F4804F0BD113F4004F0BD04FF45E
:10446000805004E01B0C3B8001E04FF00040F8BDA1
:104470004FF40050FBE74FF48030F8E700000020D5
:10448000D34D621070B586B004460D4600230193EB
:10449000032602964022039204934FF4806305930F
:1044A00001A9FFF748FD2A4631462046FFF79AFF4B
:1044B00006B070BD0146164B1B68164AA2FB0323CB
:1044C0005B0A41F2883202FB03F31A46013BE2B178
:1044D0004A6B12F0450FF8D012F4006FF5D14B6B18
:1044E00013F0040F0BD14B6B13F001030AD1486B8F
:1044F00010F040000BD040228A6318467047042019
:10450000886370470120886370474FF00040704710
:1045100000000020D34D621010B586B004464FF461
:10452000D57301930823029340230393002304933C
:104530004FF48063059301A9FFF7FDFC2046FFF7C8
:10454000B9FF06B010BD82B000230193019B013377
:104550000193019BB3F1706F15D80369002BF5DA55
:1045600000230193036943F001030361019B0133BD
:104570000193019BB3F1706F08D8036913F0010F29
:10458000F4D1002000E0032002B070470320FBE7D5
:1045900084B010B5044603A880E80E009DF81130E1
:1045A000012B21D1A36B23F48033A363E36823F4AD
:1045B000840323F04003E360E36823F44013E360E3
:1045C0009DF81830012B0AD02046FFF7BCFF9DF85C
:1045D0000E30012B1CD0BDE8104004B07047E368DA
:1045E00043F48013E360EFE7E36843F04003E360E4
:1045F0002046FFF7A8FF9DF8153023B9A36B43F4BD
:104600008033A363E3E7A36B23F48033A363DEE784
:10461000A36843F00603A360A36843F02003A360EC
:10462000D9E70000022A0AD00922C36823F4705394
:10463000C360C36843EA8223C36000207047234BF2
:104640000B44234A93422FD9224B0B44224A9342D4
:104650002CD9A1F57403A3F51053204A934227D90E
:10466000A1F18373A3F5E7431D4A934222D31D4B67
:104670000B441D4A93421FD91C4B0B441C4A9342C6
:104680001CD31C4B0B441C4A934219D3A1F1B773A2
:10469000A3F55853194A934214D3194B0B44194AA2
:1046A000934211D20722C0E70F22BEE70E22BCE7D9
:1046B0000D22BAE70C22B8E70B22B6E70A22B4E7CC
:1046C0000922B2E70822B0E70622AEE7405327FFEF
:1046D000FF340C00401E1BFF3F420F007F4F1200B3
:1046E00020D6130060B6E5FE5FE3160000D3CEFED1
:1046F00040771B00C05BB3FEC091210020753800DD
:10470000E05459FEE09C4100836843F0010383605C
:1047100000207047836823F0010383600020704706
:1047200082B000230193019B01330193019BB3F1FC
:10473000706F15D80369002BF5DA00230193890106
:1047400041F020010161019B01330193019BB3F111
:10475000706F08D8036913F0200FF4D1002000E037
:10476000032002B070470320FBE782B000230193CF
:10477000019B01330193019BB3F1706F13D803695F
:10478000002BF5DA0023019310230361019B013311
:104790000193019BB3F1706F08D8036913F0100FF8
:1047A000F4D1002000E0032002B070470320FBE7B3
:1047B000D0F800381943C0F80018002070470000F6
:1047C00084B0F8B5044607A880E80E00002306E090
:1047D00003F1400204EB82020021516001330E2BF1
:1047E000F6D99DF8266006BBD4F8043843F00203DE
:1047F000C4F80438A36B43F40013A363A36B23F43E
:104800000023A363A36B23F48023A3630023C4F8D2
:10481000003E9DF82130012B15D19DF81F306BB95A
:1048200000212046FFF7C4FF11E0A36B23F400131F
:10483000A363A36B43F40023A363E7E701212046AE
:10484000FFF7B6FF03E003212046FFF7B1FF102179
:104850002046FFF765FF054600B101252046FFF71A
:1048600084FF00B1012504F5006C0023CCF8103062
:10487000CCF81430CCF81C300AE0CBB94FF0006013
:10488000C2F8000900220A614FF67F328A600133C4
:104890009DF81C10994210D904EB431202F51061E7
:1048A000D2F800090028E8DB0020C2F80009E9E797
:1048B0004FF09040C2F80009E4E700230AE0BBB1E2
:1048C0004FF09047C2F8007B002202614FF67F3222
:1048D00082600133994210D904EB431202F5306033
:1048E000D2F8007B002FEADB0027C2F8007BEBE761
:1048F0004FF00067C2F8007BE6E7DCF8103023F4E5
:104900008073CCF810300023A3616FF080436361A3
:104910009DF81E301BB9A36943F01003A361A2697F
:104920000B4B1343A3619DF822301BB1A36943F0E5
:104930000803A361012E04D02846BDE8F84004B066
:104940007047A36943F0804343F00403A361F3E796
:1049500000383C80D0F8083803F00603022B04D05E
:10496000062B04D02BB9002070470220704702208C
:1049700070470F20704710B591F800C04B78012B9D
:1049800023D000F5006ED0F81C380CF00F04012283
:10499000A24043EA0243C0F81C3800EB4C10D0F8A8
:1049A000003B13F4004F0ED1D0F8003B8A68C2F3ED
:1049B0000A02097942EA8142134343F0805343F4E7
:1049C0000043C0F8003B002010BDD0F81C280CF0BC
:1049D0000F0E03FA0EF39BB21343C0F81C3800EB22
:1049E0004C10D0F8003913F4004FECD1D0F8003956
:1049F0008A68C2F30A02097942EA814242EA8C5289
:104A0000134343F0805343F40043C0F80039DAE71E
:104A100030B40B784A78012A26D000EB4313D3F840
:104A2000002B002A52DBD0F83C480A7802F00F0233
:104A30004FF0010C0CFA02F224EA0242C0F83C28C2
:104A4000D0F81C28097801F00F010CFA01FC22EAC9
:104A50000C42C0F81C28D3F8001B234A0A40C3F8B4
:104A6000002B002030BC704700EB4313D3F8002923
:104A7000002A1EDBD0F83C580A7802F00F0201240D
:104A800004FA02F292B225EA0202C0F83C28D0F8F9
:104A90001C28097801F00F018C40A4B222EA04021C
:104AA000C0F81C28D3F80019104A0A40C3F800299E
:104AB000D7E7D3F8002942F00062C3F80029D3F801
:104AC000002942F08042C3F80029D3E7D3F8002B35
:104AD00042F00062C3F8002BD3F8002B42F0804272
:104AE000C3F8002B9FE700BF0078F3EF007833ECAA
:104AF00010B483B0024600230193487801280AD0FD
:104B00000B7802EB4313D3F8000B00282CDB0020BA
:104B100003B010BC70470B7802EB4313D3F8004985
:104B2000002C01DB0020F3E7D3F8004944F00064D7
:104B3000C3F800490B7802EB4313D3F8004944F063
:104B40008044C3F80049019B01330193019C42F268
:104B500010739C42DCD80B7802EB4313D3F8003976
:104B6000002BF0DB0020D3E7D3F8000B40F000600F
:104B7000C3F8000B0B7802EB4313D3F8000B40F0A3
:104B80008040C3F8000B019B01330193019842F26E
:104B90001073984208D80B7802EB4313D3F8003B0C
:104BA000002BF0DB0020B3E70120B1E710B59DF842
:104BB000084084B903334FEA930E4FF0000C08E02D
:104BC00000EB023303F5805351F8044B1C600CF1E9
:104BD000010CF445F4D3002010BD0000F0B583B003
:104BE0000C784B78012B2DD000EB441C0CF5306376
:104BF0001D696FF312051D611D696FF3DC451D61B1
:104C0000002C40F0CE800C690CB18C680C618C6873
:104C10000C621D69C4F312042C431C611C6944F42A
:104C200000241C61012A00F0DF800B79012B00F0C9
:104C3000E180DCF8003B43F00443CCF8003B00206B
:104C400003B0F0BD0B6973BB00EB4413D3F81059EC
:104C50006FF3DC45C3F81059D3F8105945F400251B
:104C6000C3F81059D3F810596FF31205C3F810594F
:104C7000012A54D000EB4414D4F8003943F0044323
:104C8000C4F800390B79012B72D00B69002BD6D0F8
:104C9000D0F83438097801F00F0101228A4013431B
:104CA000C0F83438CBE700EB441303F510631D69FB
:104CB0006FF312051D611D696FF3DC451D6184B939
:104CC0000E698D68AE4200D90D611D6945F400255D
:104CD0001D611D690E69C6F3120C45EA0C051D61C4
:104CE000C6E70D698E683544013DB5FBF6F51E69D2
:104CF0001FFA85FC494F07EAC54535431D610D790B
:104D0000012DE6D11D6925F0C0451D611D694FEAE1
:104D10004C7C0CF0C04C45EA0C051D61D9E7CB6911
:104D20001BB100EB4412C2F814390B79012B08D0E7
:104D300000EB4414D4F8003943F00443C4F80039BC
:104D40007DE7D0F8083813F4807F08D100EB4412D7
:104D5000D2F8003943F00053C2F80039E8E700EB1D
:104D60004412D2F8003943F08053C2F80039DFE72B
:104D7000D0F8083813F4807F0CD1D4F8003943F010
:104D80000053C4F8003900920B8A0A78C968FFF70B
:104D90000DFF54E7D4F8003943F08053C4F80039CC
:104DA000F1E70C6954B91C698D68C5F312052C43F1
:104DB0001C611C6944F400241C6133E78D682C4499
:104DC000013CB4FBF5F4A4B204FB05F50D621D69CA
:104DD000124E06EAC4442C431C611C690D6AC5F3DB
:104DE00012052C431C611DE7CA68002A3FF41DAF61
:104DF0005A611AE7D0F8083813F4807F06D1DCF83E
:104E0000003B43F00053CCF8003B12E7DCF8003BDA
:104E100043F08053CCF8003B0BE700BF0000F81FC5
:104E200010B5844608464FEA920E02F003020023B2
:104E300005E00CF58051096840F8041B0133734507
:104E4000F7D37AB10CF5805CDCF800400021CBB2DE
:104E5000DB0024FA03F300F8013B0131013A92B27E
:104E6000002AF4D110BD0B784A78012A14D000EB47
:104E70004310D0F8002B002A06DB2BB1D0F8003B02
:104E800023F08043C0F8003BD0F8003B43F400130C
:104E9000C0F8003B0020704700EB4310D0F8002919
:104EA000002A06DB2BB1D0F8003923F08043C0F88C
:104EB0000039D0F8003943F40013C0F80039E9E7AD
:104EC0000B784A78012A0ED000EB4310D0F8003B53
:104ED00023F40013C0F8003B0B79023BDBB2012B3B
:104EE00015D90020704700EB4310D0F8003923F4A7
:104EF0000013C0F800390B79023BDBB2012BF0D86C
:104F0000D0F8003943F08053C0F80039E9E7D0F811
:104F1000003B43F08053C0F8003BE2E7D0F8003894
:104F200023F4FE63C0F80038D0F80038090101F41A
:104F3000FE610B43C0F8003800207047D0F8003EF7
:104F400023F00303C0F8003ED0F8043823F0020336
:104F5000C0F8043800207047D0F8003E23F0030367
:104F6000C0F8003ED0F8043843F00203C0F804381B
:104F7000002070474269806910407047D0F81838A7
:104F800000F50060C0691840000C7047D0F8183870
:104F900000F50060C069184080B2704700EB411115
:104FA000D1F8082B00F50060406910407047D0F838
:104FB0001028D0F8343801F00F0C23FA0CF3DB0181
:104FC000DBB2134300EB411000F51060806818401D
:104FD0007047406900F00100704738B50546C36866
:104FE00023F0C043C360012913D019BBC36843F049
:104FF0008043C36000240A20FCF7F6F90A342846EF
:10500000FFF7E7FF08B1C72CF5D9C82C14D0002052
:1050100038BDC36843F00053C36000240A20FCF786
:10502000E3F90A342846FFF7D4FF0128EDD0C72C56
:10503000F4D9EAE70120EBE70120E9E7D0F80039ED
:105040006FF30A03C0F80039D0F8043843F48073D2
:10505000C0F804380020704710B4046C144B9C4214
:1050600003D9D0F8003B002B16DB0024C0F8104B0E
:10507000D0F8104B44F40024C0F8104BD0F8104B7B
:1050800044F01804C0F8104BD0F8104B44F0C04462
:10509000C0F8104B012902D0002010BC7047C0F8A6
:1050A000142BD0F8003B43F08023C0F8003BF3E71B
:1050B0000A30544F08B50349034802F0B9FF034BC7
:1050C000187008BDC40800208CEE0008C808002035
:1050D0000020704700B583B0009313460A4601468E
:1050E0000348FDF79BFD00B1012003B05DF804FB10
:1050F000F007002000B583B0009313460A4601462E
:105100000348FDF7B3FE00B1012003B05DF804FBD6
:10511000F007002008B50348FEF78DF9043818BFE2
:10512000012008BDF007002008B501460148FEF740
:1051300070F908BDF0070020704708B5FFF7FCFFC5
:1051400008BD704708B5FFF7FCFF08BD704708B5FC
:10515000FFF7FCFF08BD82B001238DF807309DF8F2
:10516000070002B07047000008B5FFF7F4FF012800
:1051700001D0012008BD0248FEF730F9FAE700BF70
:10518000F007002008B5074B01221A70FFF7C2FF95
:1051900020B9044A137803F0FE031370014B18780A
:1051A00008BD00BF0C00002010B50446074B0122CB
:1051B0001A70FFF7D9FF10B1044B187810BD2046C4
:1051C000FFF7E0FF014B1870F6E700BF0C0000206E
:1051D00008B5FFF7D7FF08BD08B5084611461A46BF
:1051E0004FF0FF33FFF776FF30B9FFF793FF034629
:1051F0000028FAD1184608BD0123FBE708B5084688
:1052000011461A464FF0FF33FFF774FF30B9FFF72E
:1052100081FF03460028FAD1184608BD0123FBE7A9
:1052200030B589B0134B187810F001041BD1154626
:1052300003291CD8DFE801F002040A100C4613E031
:105240006846FFF771FF069B2B600DE06846FFF78D
:105250006BFF079B2B8007E06846FFF765FF079B06
:105260005B0A2B6000E00324204609B030BD042413
:10527000FAE700BF0C00002010B5D0F8D43203F1DB
:10528000B00250F822408CB100EB820043687BB141
:1052900094F80002FF280DD09B6894F80122214663
:1052A0009847FF2384F80032002010BD0320FCE75C
:1052B0000020FAE70020F8E70A230380004870473F
:1052C0008C000020F8B506460F4F8221384600F0CA
:1052D00044FC05460121384600F03FFC044681218C
:1052E000384600F03AFC0DB11022AA711CB14022E0
:1052F00022710022627118B14022027100224271B3
:10530000432333800048F8BD10000020F8B506465E
:105310000F4F8221384600F020FC05460121384617
:1053200000F01BFC04468121384600F016FC0DB14C
:105330001022AA711CB1402222710022627118B1A0
:105340004022027100224271432333800048F8BD9D
:1053500010000020F8B506460F4F8221384600F0B5
:10536000FCFB05460121384600F0F7FB044681218D
:10537000384600F0F2FB0DB11022AA711CB10022D8
:1053800022710222627118B100220271022242715E
:10539000432333800048F8BD1000002038B5D0F812
:1053A000D432B03350F8235095B1044603F062FA7A
:1053B000C5F80C02D4F8D432B03304EB830463682C
:1053C000DB6805F50371D5F804029847002038BD65
:1053D0000320FCE738B5D0F8C852D0F8D432B03347
:1053E00050F8234084B301F00F0303EB830200EB7A
:1053F000820292694AB103EBC30C05EB8C05ED699F
:10540000B2FBF5FC05FB1C2292B10023C4F8143258
:10541000D0F8D432B03300EB830043681B69ABB1E2
:105420000A4604F50471D4F808029847002038BDF4
:1054300003EB830300EB830300249C612346224695
:1054400003F060FA2046F2E70320F0E70020EEE7E1
:10545000F0B583B0D0F8D43203F1B00250F8227026
:1054600000228DF80720ADF80420002F7BD00446E1
:105470000D46097811F0600634D0202E6CD1EA88F0
:105480002AB311F0800F07D16B7887F80032EA88D1
:105490003F2A13D8D2B212E0B03300EB83035B682B
:1054A0009B68394668789847EA88072A28BF072208
:1054B0003946204600F008FF002651E0402287F8D8
:1054C00001223946204600F014FF002648E0B033A0
:1054D00000EB83035B689B68002229466878984745
:1054E00000263DE06F780B2F31D8DFE807F0063952
:1054F0003030303030303030162690F89C32DBB20D
:10550000032B04D0294600F065FB032628E0022285
:1055100001A900F0D9FE3E4622E090F89C32DBB2B1
:10552000032B04D0294600F055FB032618E0012286
:105530000DF1070100F0C8FE12E090F89C32DBB2DA
:10554000032B0DD0294600F045FB032608E0294631
:1055500000F040FB032603E0294600F03BFB032656
:10556000304603B0F0BD0326FAE738B50446812182
:1055700003F0A8F9002525870121204603F0A2F9B0
:10558000A4F878518221204603F09CF9A4F84C50ED
:10559000A4F84E50D4F8D43203F1B00254F82220CB
:1055A0009AB1B03304EB83035B685B689847D4F827
:1055B000D432B03354F8230003F066F9D4F8D4326F
:1055C000B03344F82350C4F8BC52002038BD70B545
:1055D00004464FF4077003F053F9002849D00546FC
:1055E0004FF40772002103F051FFD4F8D432B033E6
:1055F00044F82350C4F8BC52237C002B41D14FF413
:10560000007302228121204603F051F901262687EA
:105610004FF4007302223146204603F048F9A4F803
:1056200078611023A4F84E300823032282212046FB
:1056300003F03DF90123A4F84C300026C5F80462BC
:10564000D4F8D432B03304EB83035B681B6898470B
:10565000C5F81462C5F81862D5F8042262B3257C37
:105660001DBB4FF400730121204603F053F9284677
:1056700070BDD4F8D432B033002244F82320022580
:10568000F5E7402302228121204603F010F901268C
:105690002687402302223146204603F008F9A4F869
:1056A00078611023A4F84E30BEE740230121204644
:1056B00003F030F90025DAE70225D8E739B1D0F850
:1056C000D432B03300EB83004160002070470320E8
:1056D0007047D0F8D432B03350F823302BB1C3F830
:1056E0000812C3F810220020704703207047D0F83A
:1056F000D432B03350F823301BB1C3F80412002069
:1057000070470320704708B5D0F8D432B03350F852
:1057100023208AB1D2F814320BB1012008BD012335
:10572000C2F81432D2F81032C362D2F808228121B2
:1057300003F0E8F80020F1E70320EFE710B5D0F818
:10574000D432B03350F8232092B1047C44B94FF4E2
:105750000073D2F80422012103F0DCF8204610BDCA
:105760004023D2F80422012103F0D4F80024F5E705
:105770000324F3E798B108B503460020C3F8B80244
:10578000C3F8C402C3F8D00209B1C3F8B4120121AE
:1057900083F89C121A70184603F022F808BD032003
:1057A000704710B582B00023ADF80630B9B1044699
:1057B000C0F8B812D0F8D422CB6A43B1AE3250F858
:1057C0002230DB6A0DF106009847C4F8D002D4F805
:1057D000D8320133C4F8D832002002B010BD032003
:1057E000FBE708B503F05BF808BD08B5D0F8B832A0
:1057F00013B11B68984708BD0020FCE708B5D0F836
:10580000B8325B68984700B908BD0320FCE738B59B
:10581000044600F2AA25284600F0C8F90123C4F87E
:105820009432B4F8B032C4F8983294F8AA1201F065
:105830001F03012B07D0022B0AD073B9294620463B
:1058400000F08AFB38BD2946204600F0C0FBF9E78E
:105850002946204600F0FDFBF4E701F080012046D8
:1058600003F038F8EEE7F8B50446012380F89C32DF
:105870000023C0F894324360C0F8A43280F8A0320C
:10588000D0F8B832DBB15B68DBB10021984707463E
:10589000C8B9402300221146204603F008F801262B
:1058A000A4F864614025C4F860512B460022802191
:1058B000204602F0FCFFA68425623846F8BD00278A
:1058C000E7E70027E5E70327E3E7017400207047D7
:1058D00090F89C32DBB2042B04D090F89C32DBB2FF
:1058E00080F89D32042380F89C320020704790F8A5
:1058F0009C32DBB2042B01D00020704790F89D321F
:10590000DBB280F89C32F7E708B590F89C32DBB246
:10591000032B01D0002008BDD0F8B832002BF9D0FD
:10592000DB69002BF6D09847F4E708B5D0F8D432FD
:10593000AE3350F823205AB190F89C32DBB2032BDF
:1059400001D0002008BD136A23B198470020F9E771
:105950000320F7E70020F5E708B5D0F8D432AE33DE
:1059600050F823205AB190F89C32DBB2032B01D0BF
:10597000002008BD536A23B198470020F9E70320AF
:10598000F7E70020F5E70020704708B5012380F80D
:105990009C32D0F8B83223B15B680179984710B9CE
:1059A00008BD0020FCE70320FAE700207047002034
:1059B000704738B504460D46002942D11346D0F849
:1059C0009422032A01D0084638BDD0F85C11D0F8E3
:1059D0006021914209D890F8AA3203F01F03012BED
:1059E0000ED0022B1BD028460FE0891AC0F85C119C
:1059F0008A4228BF0A46194600F08AFC2846E3E797
:105A000090F8AE12FFF7D1FF20B994F89C32DBB2C8
:105A1000032B09D0204600F083FC2846D4E790F8F9
:105A2000AE12FFF7C4FFEFE700F1AE0354F82330E6
:105A30001A69002AEED0C4F8D4021B6920469847A0
:105A4000E8E701F07F01FFF7B2FF90B994F89C32CC
:105A5000DBB2032BB8D100F1AE0354F823309A69BE
:105A6000002AB1D0C4F8D4029B6929462046984741
:105A7000AAE70020A8E738B504460D4600294BD117
:105A80001346D0F89422022A07D094F8A00218B145
:105A9000002384F8A032284638BDC269016A8A42D0
:105AA0000ED88A4218D094F89C32DBB2032B27D050
:105AB0008021204602F00EFF204600F03CFCE4E787
:105AC000521AC261194600F00CFC00231A4619460E
:105AD000204602F01FFFD8E783699942E3D8D0F847
:105AE00098229342DFD20022114600F0FAFB0021F7
:105AF000C4F898120B460A46204602F00BFFC4E792
:105B0000D4F8B832DA68002AD2D00022C4F8D422FD
